{
  "contractName": "GreenToken",
  "abi": [
    {
      "inputs": [
        {
          "internalType": "uint256",
          "name": "tokenQty",
          "type": "uint256"
        }
      ],
      "stateMutability": "nonpayable",
      "type": "constructor"
    },
    {
      "anonymous": false,
      "inputs": [
        {
          "indexed": true,
          "internalType": "address",
          "name": "owner",
          "type": "address"
        },
        {
          "indexed": true,
          "internalType": "address",
          "name": "spender",
          "type": "address"
        },
        {
          "indexed": false,
          "internalType": "uint256",
          "name": "value",
          "type": "uint256"
        }
      ],
      "name": "Approval",
      "type": "event"
    },
    {
      "anonymous": false,
      "inputs": [
        {
          "indexed": false,
          "internalType": "address",
          "name": "account",
          "type": "address"
        }
      ],
      "name": "Paused",
      "type": "event"
    },
    {
      "anonymous": false,
      "inputs": [
        {
          "indexed": true,
          "internalType": "bytes32",
          "name": "role",
          "type": "bytes32"
        },
        {
          "indexed": true,
          "internalType": "bytes32",
          "name": "previousAdminRole",
          "type": "bytes32"
        },
        {
          "indexed": true,
          "internalType": "bytes32",
          "name": "newAdminRole",
          "type": "bytes32"
        }
      ],
      "name": "RoleAdminChanged",
      "type": "event"
    },
    {
      "anonymous": false,
      "inputs": [
        {
          "indexed": true,
          "internalType": "bytes32",
          "name": "role",
          "type": "bytes32"
        },
        {
          "indexed": true,
          "internalType": "address",
          "name": "account",
          "type": "address"
        },
        {
          "indexed": true,
          "internalType": "address",
          "name": "sender",
          "type": "address"
        }
      ],
      "name": "RoleGranted",
      "type": "event"
    },
    {
      "anonymous": false,
      "inputs": [
        {
          "indexed": true,
          "internalType": "bytes32",
          "name": "role",
          "type": "bytes32"
        },
        {
          "indexed": true,
          "internalType": "address",
          "name": "account",
          "type": "address"
        },
        {
          "indexed": true,
          "internalType": "address",
          "name": "sender",
          "type": "address"
        }
      ],
      "name": "RoleRevoked",
      "type": "event"
    },
    {
      "anonymous": false,
      "inputs": [
        {
          "indexed": false,
          "internalType": "bool",
          "name": "",
          "type": "bool"
        },
        {
          "indexed": false,
          "internalType": "address",
          "name": "",
          "type": "address"
        }
      ],
      "name": "STATUS",
      "type": "event"
    },
    {
      "anonymous": false,
      "inputs": [
        {
          "indexed": true,
          "internalType": "address",
          "name": "from",
          "type": "address"
        },
        {
          "indexed": true,
          "internalType": "address",
          "name": "to",
          "type": "address"
        },
        {
          "indexed": false,
          "internalType": "uint256",
          "name": "value",
          "type": "uint256"
        }
      ],
      "name": "Transfer",
      "type": "event"
    },
    {
      "anonymous": false,
      "inputs": [
        {
          "indexed": false,
          "internalType": "address",
          "name": "account",
          "type": "address"
        }
      ],
      "name": "Unpaused",
      "type": "event"
    },
    {
      "inputs": [],
      "name": "COMPANY_ROLE",
      "outputs": [
        {
          "internalType": "bytes32",
          "name": "",
          "type": "bytes32"
        }
      ],
      "stateMutability": "view",
      "type": "function",
      "constant": true
    },
    {
      "inputs": [],
      "name": "DEFAULT_ADMIN_ROLE",
      "outputs": [
        {
          "internalType": "bytes32",
          "name": "",
          "type": "bytes32"
        }
      ],
      "stateMutability": "view",
      "type": "function",
      "constant": true
    },
    {
      "inputs": [],
      "name": "GOVERNER_ROLE",
      "outputs": [
        {
          "internalType": "bytes32",
          "name": "",
          "type": "bytes32"
        }
      ],
      "stateMutability": "view",
      "type": "function",
      "constant": true
    },
    {
      "inputs": [],
      "name": "PROJECT_ROLE",
      "outputs": [
        {
          "internalType": "bytes32",
          "name": "",
          "type": "bytes32"
        }
      ],
      "stateMutability": "view",
      "type": "function",
      "constant": true
    },
    {
      "inputs": [],
      "name": "VERIFIER_ROLE",
      "outputs": [
        {
          "internalType": "bytes32",
          "name": "",
          "type": "bytes32"
        }
      ],
      "stateMutability": "view",
      "type": "function",
      "constant": true
    },
    {
      "inputs": [
        {
          "internalType": "address",
          "name": "owner",
          "type": "address"
        },
        {
          "internalType": "address",
          "name": "spender",
          "type": "address"
        }
      ],
      "name": "allowance",
      "outputs": [
        {
          "internalType": "uint256",
          "name": "",
          "type": "uint256"
        }
      ],
      "stateMutability": "view",
      "type": "function",
      "constant": true
    },
    {
      "inputs": [
        {
          "internalType": "address",
          "name": "spender",
          "type": "address"
        },
        {
          "internalType": "uint256",
          "name": "amount",
          "type": "uint256"
        }
      ],
      "name": "approve",
      "outputs": [
        {
          "internalType": "bool",
          "name": "",
          "type": "bool"
        }
      ],
      "stateMutability": "nonpayable",
      "type": "function"
    },
    {
      "inputs": [
        {
          "internalType": "address",
          "name": "account",
          "type": "address"
        }
      ],
      "name": "balanceOf",
      "outputs": [
        {
          "internalType": "uint256",
          "name": "",
          "type": "uint256"
        }
      ],
      "stateMutability": "view",
      "type": "function",
      "constant": true
    },
    {
      "inputs": [
        {
          "internalType": "uint256",
          "name": "amount",
          "type": "uint256"
        }
      ],
      "name": "burn",
      "outputs": [],
      "stateMutability": "nonpayable",
      "type": "function"
    },
    {
      "inputs": [
        {
          "internalType": "address",
          "name": "account",
          "type": "address"
        },
        {
          "internalType": "uint256",
          "name": "amount",
          "type": "uint256"
        }
      ],
      "name": "burnFrom",
      "outputs": [],
      "stateMutability": "nonpayable",
      "type": "function"
    },
    {
      "inputs": [
        {
          "internalType": "uint256",
          "name": "",
          "type": "uint256"
        }
      ],
      "name": "company_request_address",
      "outputs": [
        {
          "internalType": "address",
          "name": "",
          "type": "address"
        }
      ],
      "stateMutability": "view",
      "type": "function",
      "constant": true
    },
    {
      "inputs": [],
      "name": "decimals",
      "outputs": [
        {
          "internalType": "uint8",
          "name": "",
          "type": "uint8"
        }
      ],
      "stateMutability": "view",
      "type": "function",
      "constant": true
    },
    {
      "inputs": [
        {
          "internalType": "address",
          "name": "spender",
          "type": "address"
        },
        {
          "internalType": "uint256",
          "name": "subtractedValue",
          "type": "uint256"
        }
      ],
      "name": "decreaseAllowance",
      "outputs": [
        {
          "internalType": "bool",
          "name": "",
          "type": "bool"
        }
      ],
      "stateMutability": "nonpayable",
      "type": "function"
    },
    {
      "inputs": [
        {
          "internalType": "bytes32",
          "name": "role",
          "type": "bytes32"
        }
      ],
      "name": "getRoleAdmin",
      "outputs": [
        {
          "internalType": "bytes32",
          "name": "",
          "type": "bytes32"
        }
      ],
      "stateMutability": "view",
      "type": "function",
      "constant": true
    },
    {
      "inputs": [
        {
          "internalType": "bytes32",
          "name": "role",
          "type": "bytes32"
        },
        {
          "internalType": "address",
          "name": "account",
          "type": "address"
        }
      ],
      "name": "grantRole",
      "outputs": [],
      "stateMutability": "nonpayable",
      "type": "function"
    },
    {
      "inputs": [
        {
          "internalType": "bytes32",
          "name": "role",
          "type": "bytes32"
        },
        {
          "internalType": "address",
          "name": "account",
          "type": "address"
        }
      ],
      "name": "hasRole",
      "outputs": [
        {
          "internalType": "bool",
          "name": "",
          "type": "bool"
        }
      ],
      "stateMutability": "view",
      "type": "function",
      "constant": true
    },
    {
      "inputs": [
        {
          "internalType": "address",
          "name": "spender",
          "type": "address"
        },
        {
          "internalType": "uint256",
          "name": "addedValue",
          "type": "uint256"
        }
      ],
      "name": "increaseAllowance",
      "outputs": [
        {
          "internalType": "bool",
          "name": "",
          "type": "bool"
        }
      ],
      "stateMutability": "nonpayable",
      "type": "function"
    },
    {
      "inputs": [],
      "name": "name",
      "outputs": [
        {
          "internalType": "string",
          "name": "",
          "type": "string"
        }
      ],
      "stateMutability": "view",
      "type": "function",
      "constant": true
    },
    {
      "inputs": [],
      "name": "paused",
      "outputs": [
        {
          "internalType": "bool",
          "name": "",
          "type": "bool"
        }
      ],
      "stateMutability": "view",
      "type": "function",
      "constant": true
    },
    {
      "inputs": [
        {
          "internalType": "uint256",
          "name": "",
          "type": "uint256"
        }
      ],
      "name": "project_request_address",
      "outputs": [
        {
          "internalType": "address",
          "name": "",
          "type": "address"
        }
      ],
      "stateMutability": "view",
      "type": "function",
      "constant": true
    },
    {
      "inputs": [
        {
          "internalType": "bytes32",
          "name": "role",
          "type": "bytes32"
        },
        {
          "internalType": "address",
          "name": "account",
          "type": "address"
        }
      ],
      "name": "renounceRole",
      "outputs": [],
      "stateMutability": "nonpayable",
      "type": "function"
    },
    {
      "inputs": [
        {
          "internalType": "bytes32",
          "name": "role",
          "type": "bytes32"
        },
        {
          "internalType": "address",
          "name": "account",
          "type": "address"
        }
      ],
      "name": "revokeRole",
      "outputs": [],
      "stateMutability": "nonpayable",
      "type": "function"
    },
    {
      "inputs": [
        {
          "internalType": "bytes4",
          "name": "interfaceId",
          "type": "bytes4"
        }
      ],
      "name": "supportsInterface",
      "outputs": [
        {
          "internalType": "bool",
          "name": "",
          "type": "bool"
        }
      ],
      "stateMutability": "view",
      "type": "function",
      "constant": true
    },
    {
      "inputs": [],
      "name": "symbol",
      "outputs": [
        {
          "internalType": "string",
          "name": "",
          "type": "string"
        }
      ],
      "stateMutability": "view",
      "type": "function",
      "constant": true
    },
    {
      "inputs": [],
      "name": "tokenContract",
      "outputs": [
        {
          "internalType": "contract IERC20",
          "name": "",
          "type": "address"
        }
      ],
      "stateMutability": "view",
      "type": "function",
      "constant": true
    },
    {
      "inputs": [],
      "name": "totalSupply",
      "outputs": [
        {
          "internalType": "uint256",
          "name": "",
          "type": "uint256"
        }
      ],
      "stateMutability": "view",
      "type": "function",
      "constant": true
    },
    {
      "inputs": [
        {
          "internalType": "address",
          "name": "to",
          "type": "address"
        },
        {
          "internalType": "uint256",
          "name": "amount",
          "type": "uint256"
        }
      ],
      "name": "transfer",
      "outputs": [
        {
          "internalType": "bool",
          "name": "",
          "type": "bool"
        }
      ],
      "stateMutability": "nonpayable",
      "type": "function"
    },
    {
      "inputs": [
        {
          "internalType": "address",
          "name": "from",
          "type": "address"
        },
        {
          "internalType": "address",
          "name": "to",
          "type": "address"
        },
        {
          "internalType": "uint256",
          "name": "amount",
          "type": "uint256"
        }
      ],
      "name": "transferFrom",
      "outputs": [
        {
          "internalType": "bool",
          "name": "",
          "type": "bool"
        }
      ],
      "stateMutability": "nonpayable",
      "type": "function"
    },
    {
      "inputs": [
        {
          "internalType": "address",
          "name": "",
          "type": "address"
        }
      ],
      "name": "verifiedCompanies",
      "outputs": [
        {
          "internalType": "string",
          "name": "registrationID",
          "type": "string"
        },
        {
          "internalType": "uint256",
          "name": "tco2Emission",
          "type": "uint256"
        },
        {
          "internalType": "uint256",
          "name": "gntTokenBalance",
          "type": "uint256"
        },
        {
          "internalType": "string",
          "name": "document_uri",
          "type": "string"
        },
        {
          "internalType": "bool",
          "name": "appliedForVerification",
          "type": "bool"
        }
      ],
      "stateMutability": "view",
      "type": "function",
      "constant": true
    },
    {
      "inputs": [
        {
          "internalType": "address",
          "name": "",
          "type": "address"
        }
      ],
      "name": "verifiedProjects",
      "outputs": [
        {
          "internalType": "string",
          "name": "registrationID",
          "type": "string"
        },
        {
          "internalType": "uint256",
          "name": "tco2Reduction",
          "type": "uint256"
        },
        {
          "internalType": "uint256",
          "name": "gntTokenBalance",
          "type": "uint256"
        },
        {
          "internalType": "string",
          "name": "document_uri",
          "type": "string"
        },
        {
          "internalType": "bool",
          "name": "appliedForVerification",
          "type": "bool"
        }
      ],
      "stateMutability": "view",
      "type": "function",
      "constant": true
    },
    {
      "inputs": [
        {
          "internalType": "uint256",
          "name": "",
          "type": "uint256"
        }
      ],
      "name": "verifier_request_address",
      "outputs": [
        {
          "internalType": "address",
          "name": "",
          "type": "address"
        }
      ],
      "stateMutability": "view",
      "type": "function",
      "constant": true
    },
    {
      "inputs": [],
      "name": "requestFirstAddressInVerifierList",
      "outputs": [
        {
          "internalType": "address",
          "name": "",
          "type": "address"
        },
        {
          "internalType": "string",
          "name": "",
          "type": "string"
        }
      ],
      "stateMutability": "view",
      "type": "function",
      "constant": true
    },
    {
      "inputs": [],
      "name": "requestFirstAddressInCompanyList",
      "outputs": [
        {
          "internalType": "address",
          "name": "",
          "type": "address"
        },
        {
          "internalType": "string",
          "name": "",
          "type": "string"
        },
        {
          "internalType": "uint256",
          "name": "",
          "type": "uint256"
        },
        {
          "internalType": "uint256",
          "name": "",
          "type": "uint256"
        },
        {
          "internalType": "string",
          "name": "",
          "type": "string"
        }
      ],
      "stateMutability": "view",
      "type": "function",
      "constant": true
    },
    {
      "inputs": [],
      "name": "requestFirstAddressInProjectList",
      "outputs": [
        {
          "internalType": "address",
          "name": "",
          "type": "address"
        },
        {
          "internalType": "string",
          "name": "",
          "type": "string"
        },
        {
          "internalType": "uint256",
          "name": "",
          "type": "uint256"
        },
        {
          "internalType": "uint256",
          "name": "",
          "type": "uint256"
        },
        {
          "internalType": "string",
          "name": "",
          "type": "string"
        }
      ],
      "stateMutability": "view",
      "type": "function",
      "constant": true
    },
    {
      "inputs": [
        {
          "internalType": "string",
          "name": "_registrationID",
          "type": "string"
        }
      ],
      "name": "requestVerifierRole",
      "outputs": [],
      "stateMutability": "nonpayable",
      "type": "function"
    },
    {
      "inputs": [
        {
          "internalType": "address",
          "name": "applicantAddress",
          "type": "address"
        }
      ],
      "name": "grantVerifierRole",
      "outputs": [],
      "stateMutability": "nonpayable",
      "type": "function"
    },
    {
      "inputs": [
        {
          "internalType": "address",
          "name": "applicantAddress",
          "type": "address"
        }
      ],
      "name": "rejectVerifierApplication",
      "outputs": [],
      "stateMutability": "nonpayable",
      "type": "function"
    },
    {
      "inputs": [
        {
          "internalType": "string",
          "name": "_registrationID",
          "type": "string"
        },
        {
          "internalType": "uint256",
          "name": "_tco2Emission",
          "type": "uint256"
        },
        {
          "internalType": "uint256",
          "name": "_gntTokenBalance",
          "type": "uint256"
        },
        {
          "internalType": "string",
          "name": "_document_uri",
          "type": "string"
        }
      ],
      "name": "requestCompanyVerification",
      "outputs": [],
      "stateMutability": "nonpayable",
      "type": "function"
    },
    {
      "inputs": [
        {
          "internalType": "address",
          "name": "_companyAddress",
          "type": "address"
        }
      ],
      "name": "companyApplicationVerified",
      "outputs": [],
      "stateMutability": "nonpayable",
      "type": "function"
    },
    {
      "inputs": [
        {
          "internalType": "address",
          "name": "_companyAddress",
          "type": "address"
        }
      ],
      "name": "companyApplicationRejected",
      "outputs": [],
      "stateMutability": "nonpayable",
      "type": "function"
    },
    {
      "inputs": [
        {
          "internalType": "string",
          "name": "_registrationID",
          "type": "string"
        },
        {
          "internalType": "uint256",
          "name": "_tco2Reduction",
          "type": "uint256"
        },
        {
          "internalType": "uint256",
          "name": "_gntTokenBalance",
          "type": "uint256"
        },
        {
          "internalType": "string",
          "name": "_document_uri",
          "type": "string"
        }
      ],
      "name": "requestProjectVerification",
      "outputs": [],
      "stateMutability": "nonpayable",
      "type": "function"
    },
    {
      "inputs": [
        {
          "internalType": "address",
          "name": "_projectAddress",
          "type": "address"
        }
      ],
      "name": "projectApplicationVerified",
      "outputs": [],
      "stateMutability": "nonpayable",
      "type": "function"
    },
    {
      "inputs": [
        {
          "internalType": "address",
          "name": "_projectAddress",
          "type": "address"
        }
      ],
      "name": "projectApplicationRejected",
      "outputs": [],
      "stateMutability": "nonpayable",
      "type": "function"
    },
    {
      "inputs": [],
      "name": "pause",
      "outputs": [],
      "stateMutability": "nonpayable",
      "type": "function"
    },
    {
      "inputs": [],
      "name": "unpause",
      "outputs": [],
      "stateMutability": "nonpayable",
      "type": "function"
    },
    {
      "inputs": [
        {
          "internalType": "address",
          "name": "to",
          "type": "address"
        },
        {
          "internalType": "uint256",
          "name": "amount",
          "type": "uint256"
        }
      ],
      "name": "mint",
      "outputs": [],
      "stateMutability": "nonpayable",
      "type": "function"
    },
    {
      "inputs": [],
      "name": "buyToken",
      "outputs": [],
      "stateMutability": "payable",
      "type": "function",
      "payable": true
    },
    {
      "inputs": [
        {
          "internalType": "uint256",
          "name": "token",
          "type": "uint256"
        }
      ],
      "name": "sellToken",
      "outputs": [],
      "stateMutability": "nonpayable",
      "type": "function"
    }
  ],
  "bytecode": "0x6080604052600160075560016008553480156200001b57600080fd5b5060405162003e8738038062003e878339810160408190526200003e9162000505565b6040518060400160405280600a81526020016923b932b2b72a37b5b2b760b11b8152506040518060400160405280600381526020016211d39560ea1b8152508160039080519060200190620000959291906200045f565b508051620000ab9060049060208401906200045f565b50506005805460ff1916905550620000c560003362000211565b620000e060008051602062003e678339815191523362000211565b620000fb60008051602062003e478339815191523362000211565b6200011660008051602062003e078339815191523362000211565b6200013160008051602062003e278339815191523362000211565b6200015b60008051602062003e2783398151915260008051602062003e67833981519152620002b6565b6200018560008051602062003e0783398151915260008051602062003e67833981519152620002b6565b620001af60008051602062003e6783398151915260008051602062003e47833981519152620002b6565b620001cb60008051602062003e478339815191526000620002b6565b620001ea30620001e483670de0b6b3a764000062000539565b62000301565b50600a80546001600160a01b031990811633179091556012805490911630179055620005ae565b60008281526006602090815260408083206001600160a01b038516845290915290205460ff16620002b25760008281526006602090815260408083206001600160a01b03851684529091529020805460ff19166001179055620002713390565b6001600160a01b0316816001600160a01b0316837f2f8788117e7eff1d82e926ec794901d17c78024a50270940304540a733656f0d60405160405180910390a45b5050565b600082815260066020526040808220600101805490849055905190918391839186917fbd79b86ffe0ab8e8776151514217cd7cacd52c909f66475c3af44e129f0b00ff9190a4505050565b6001600160a01b0382166200035d5760405162461bcd60e51b815260206004820152601f60248201527f45524332303a206d696e7420746f20746865207a65726f20616464726573730060448201526064015b60405180910390fd5b6200036b60008383620003fa565b80600260008282546200037f91906200051e565b90915550506001600160a01b03821660009081526020819052604081208054839290620003ae9084906200051e565b90915550506040518181526001600160a01b038316906000907fddf252ad1be2c89b69c2b068fc378daa952ba7f163c4a11628f55a4df523b3ef9060200160405180910390a3620002b2565b60055460ff1615620004425760405162461bcd60e51b815260206004820152601060248201526f14185d5cd8589b194e881c185d5cd95960821b604482015260640162000354565b6200045a8383836200045a60201b6200105c1760201c565b505050565b8280546200046d906200055b565b90600052602060002090601f016020900481019282620004915760008555620004dc565b82601f10620004ac57805160ff1916838001178555620004dc565b82800160010185558215620004dc579182015b82811115620004dc578251825591602001919060010190620004bf565b50620004ea929150620004ee565b5090565b5b80821115620004ea5760008155600101620004ef565b60006020828403121562000517578081fd5b5051919050565b6000821982111562000534576200053462000598565b500190565b600081600019048311821515161562000556576200055662000598565b500290565b600181811c908216806200057057607f821691505b602082108114156200059257634e487b7160e01b600052602260045260246000fd5b50919050565b634e487b7160e01b600052601160045260246000fd5b61384980620005be6000396000f3fe6080604052600436106103135760003560e01c806370a082311161019a578063a9059cbb116100e1578063dd62ed3e1161008a578063f69a4eb711610064578063f69a4eb714610974578063fb24ed1c14610989578063ff9c1ddf146109a957610313565b8063dd62ed3e146108da578063e7705db614610920578063f4cc934a1461095457610313565b8063d547741f116100bb578063d547741f14610866578063da04d2e014610886578063da33b01e146108ba57610313565b8063a9059cbb14610806578063acc1e49c14610826578063ce83f5331461084657610313565b8063994fa19811610143578063a217fddf1161011d578063a217fddf146107c9578063a457c2d7146107de578063a4821719146107fe57610313565b8063994fa1981461074f5780639c39af01146107755780639fe6678c1461079557610313565b80638456cb59116101745780638456cb59146106df57806391d14854146106f457806395d89b411461073a57610313565b806370a082311461066957806379cc67901461069f5780637ff511b1146106bf57610313565b8063313ce5671161025e57806340c10f19116102075780635c975abb116101e15780635c975abb146106115780636847386c146106295780636bbc203d1461064957610313565b806340c10f19146105b157806342966c68146105d157806355a373d6146105f157610313565b8063395093511161023857806339509351146105445780633a50957a146105645780633f4ba83a1461059c57610313565b8063313ce567146104d757806331a37632146104f357806336568abe1461052457610313565b806318160ddd116102c057806323b872dd1161029a57806323b872dd14610467578063248a9ca3146104875780632f2ff15d146104b757610313565b806318160ddd146103f45780631c9ee11a146104135780632397e4d71461044757610313565b806306fdde03116102f157806306fdde0314610392578063095ea7b3146103b45780631058d500146103d457610313565b806301ffc9a7146103185780630337c0611461034d5780630501386a1461036f575b600080fd5b34801561032457600080fd5b506103386103333660046134ad565b6109c9565b60405190151581526020015b60405180910390f35b34801561035957600080fd5b5061036d6103683660046133a3565b610a34565b005b34801561037b57600080fd5b50610384610c5e565b604051610344929190613642565b34801561039e57600080fd5b506103a7610daa565b60405161034491906136b8565b3480156103c057600080fd5b506103386103cf36600461342a565b610e3c565b3480156103e057600080fd5b5061036d6103ef366004613515565b610e54565b34801561040057600080fd5b506002545b604051908152602001610344565b34801561041f57600080fd5b506104057f9e1688b53537f356172ce07f39e129155063957163c5f9462d4d9e55b228b06c81565b34801561045357600080fd5b5061036d610462366004613473565b610faa565b34801561047357600080fd5b506103386104823660046133ef565b611012565b34801561049357600080fd5b506104056104a2366004613473565b60009081526006602052604090206001015490565b3480156104c357600080fd5b5061036d6104d236600461348b565b611036565b3480156104e357600080fd5b5060405160128152602001610344565b3480156104ff57600080fd5b5061051361050e3660046133a3565b611061565b6040516103449594939291906136cb565b34801561053057600080fd5b5061036d61053f36600461348b565b6111a2565b34801561055057600080fd5b5061033861055f36600461342a565b61122a565b34801561057057600080fd5b5061058461057f366004613473565b611269565b6040516001600160a01b039091168152602001610344565b3480156105a857600080fd5b5061036d611293565b3480156105bd57600080fd5b5061036d6105cc36600461342a565b6112c9565b3480156105dd57600080fd5b5061036d6105ec366004613473565b61130f565b3480156105fd57600080fd5b50601254610584906001600160a01b031681565b34801561061d57600080fd5b5060055460ff16610338565b34801561063557600080fd5b5061036d6106443660046133a3565b611319565b34801561065557600080fd5b5061036d610664366004613515565b6114e6565b34801561067557600080fd5b506104056106843660046133a3565b6001600160a01b031660009081526020819052604090205490565b3480156106ab57600080fd5b5061036d6106ba36600461342a565b61163c565b3480156106cb57600080fd5b5061036d6106da3660046134d5565b611651565b3480156106eb57600080fd5b5061036d611723565b34801561070057600080fd5b5061033861070f36600461348b565b60009182526006602090815260408084206001600160a01b0393909316845291905290205460ff1690565b34801561074657600080fd5b506103a7611756565b34801561075b57600080fd5b50610764611765565b60405161034495949392919061366c565b34801561078157600080fd5b506105136107903660046133a3565b61195b565b3480156107a157600080fd5b506104057f99b4cb81d693045578a6795d2045a8e4a6dc2d789bd539397ae2ce05c660459981565b3480156107d557600080fd5b50610405600081565b3480156107ea57600080fd5b506103386107f936600461342a565b611976565b61036d611a20565b34801561081257600080fd5b5061033861082136600461342a565b611b79565b34801561083257600080fd5b5061036d6108413660046133a3565b611b87565b34801561085257600080fd5b50610584610861366004613473565b611f2d565b34801561087257600080fd5b5061036d61088136600461348b565b611f3d565b34801561089257600080fd5b506104057f704c992d358ec8f6051d88e5bd9f92457afedcbc3e2d110fcd019b5eda48e52e81565b3480156108c657600080fd5b5061036d6108d53660046133a3565b611f63565b3480156108e657600080fd5b506104056108f53660046133bd565b6001600160a01b03918216600090815260016020908152604080832093909416825291909152205490565b34801561092c57600080fd5b506104057f0ce23c3e399818cfee81a7ab0880f714e53d7672b08df0fa62f2843416e1ea0981565b34801561096057600080fd5b5061036d61096f3660046133a3565b6120b9565b34801561098057600080fd5b50610764612286565b34801561099557600080fd5b5061036d6109a43660046133a3565b61235d565b3480156109b557600080fd5b506105846109c4366004613473565b6125b9565b60006001600160e01b031982167f7965db0b000000000000000000000000000000000000000000000000000000001480610a2c57507f01ffc9a7000000000000000000000000000000000000000000000000000000006001600160e01b03198316145b90505b919050565b7f0ce23c3e399818cfee81a7ab0880f714e53d7672b08df0fa62f2843416e1ea0960005260066020527fe298173fb715fb8b47cba95afe542599cde89075e978203baa0c87bd3333a43a54610a8a81335b6125c9565b6001600160a01b03821660009081526009602052604090206001015460ff16610b065760405162461bcd60e51b8152602060048201526024808201527f4163636f756e7420646964206e6f7420726571756573742076657269666963616044820152633a34b7b760e11b60648201526084015b60405180910390fd5b600f80546001600160a01b0384169190610b2290600190613768565b81548110610b4057634e487b7160e01b600052603260045260246000fd5b6000918252602090912001546001600160a01b031614610b905760405162461bcd60e51b815260206004820152600b60248201526a04e6f742074686520746f760ac1b6044820152606401610afd565b6001600160a01b0382166000908152600960205260409020600101805460ff19169055610bdd7f0ce23c3e399818cfee81a7ab0880f714e53d7672b08df0fa62f2843416e1ea0983612649565b6001600160a01b038216600090815260096020526040812090610c0082826131f5565b50600101805460ff19169055600f805480610c2b57634e487b7160e01b600052603160045260246000fd5b6000828152602090208101600019908101805473ffffffffffffffffffffffffffffffffffffffff191690550190555050565b7f0ce23c3e399818cfee81a7ab0880f714e53d7672b08df0fa62f2843416e1ea09600090815260066020527fe298173fb715fb8b47cba95afe542599cde89075e978203baa0c87bd3333a43a54606090610cb88133610a85565b600f805460009190610ccc90600190613768565b81548110610cea57634e487b7160e01b600052603260045260246000fd5b60009182526020808320909101546001600160a01b031680835260099091526040909120805491925082918190610d20906137c2565b80601f0160208091040260200160405190810160405280929190818152602001828054610d4c906137c2565b8015610d995780601f10610d6e57610100808354040283529160200191610d99565b820191906000526020600020905b815481529060010190602001808311610d7c57829003601f168201915b505050505090509350935050509091565b606060038054610db9906137c2565b80601f0160208091040260200160405190810160405280929190818152602001828054610de5906137c2565b8015610e325780601f10610e0757610100808354040283529160200191610e32565b820191906000526020600020905b815481529060010190602001808311610e1557829003601f168201915b5050505050905090565b600033610e4a8185856126eb565b5060019392505050565b6040518060a0016040528087878080601f016020809104026020016040519081016040528093929190818152602001838380828437600092019190915250505090825250602080820187905260408083018790528051601f860183900483028101830190915284815260609092019190859085908190840183828082843760009201829052509385525050600160209384015250338152600c825260409020825180519192610f0892849290910190613231565b5060208281015160018301556040830151600283015560608301518051610f359260038501920190613231565b50608091909101516004909101805491151560ff199092169190911790555050601180546001810182556000919091527f31ecc21a745e3968a04e9570e4425bc18fa8019c68028196b546d1669c200c6801805473ffffffffffffffffffffffffffffffffffffffff19163317905550505050565b60085433906108fc90610fc584670de0b6b3a7640000613749565b610fcf9190613729565b6040518115909202916000818181858888f19350505050158015610ff7573d6000803e3d6000fd5b5061100e3061082183670de0b6b3a7640000613749565b5050565b600033611020858285612843565b61102b8585856128d5565b506001949350505050565b6000828152600660205260409020600101546110528133610a85565b61105c8383612649565b505050565b600d6020526000908152604090208054819061107c906137c2565b80601f01602080910402602001604051908101604052809291908181526020018280546110a8906137c2565b80156110f55780601f106110ca576101008083540402835291602001916110f5565b820191906000526020600020905b8154815290600101906020018083116110d857829003601f168201915b505050505090806001015490806002015490806003018054611116906137c2565b80601f0160208091040260200160405190810160405280929190818152602001828054611142906137c2565b801561118f5780601f106111645761010080835404028352916020019161118f565b820191906000526020600020905b81548152906001019060200180831161117257829003601f168201915b5050506004909301549192505060ff1685565b6001600160a01b03811633146112205760405162461bcd60e51b815260206004820152602f60248201527f416363657373436f6e74726f6c3a2063616e206f6e6c792072656e6f756e636560448201527f20726f6c657320666f722073656c6600000000000000000000000000000000006064820152608401610afd565b61100e8282612af7565b3360008181526001602090815260408083206001600160a01b0387168452909152812054909190610e4a9082908690611264908790613711565b6126eb565b6011818154811061127957600080fd5b6000918252602090912001546001600160a01b0316905081565b7f704c992d358ec8f6051d88e5bd9f92457afedcbc3e2d110fcd019b5eda48e52e6112be8133610a85565b6112c6612b7a565b50565b7f704c992d358ec8f6051d88e5bd9f92457afedcbc3e2d110fcd019b5eda48e52e6112f48133610a85565b61105c8361130a84670de0b6b3a7640000613749565b612c16565b6112c63382612d02565b7f99b4cb81d693045578a6795d2045a8e4a6dc2d789bd539397ae2ce05c660459960005260066020527f176b99087ad4cd73da9aac2ee819eec93a21c8cdff2ffe0bac026fa3810fd51e5461136e8133610a85565b6001600160a01b0382166000908152600c602052604090206004015460ff166113ee5760405162461bcd60e51b815260206004820152602c60248201527f4163636f756e7420646964206e6f7420726571756573742070726f6a6563742060448201526b3b32b934b334b1b0ba34b7b760a11b6064820152608401610afd565b601180546001600160a01b038416919061140a90600190613768565b8154811061142857634e487b7160e01b600052603260045260246000fd5b6000918252602090912001546001600160a01b0316146114785760405162461bcd60e51b815260206004820152600b60248201526a04e6f742074686520746f760ac1b6044820152606401610afd565b6001600160a01b0382166000908152600c602052604081209061149b82826131f5565b600182016000905560028201600090556003820160006114bb91906131f5565b50600401805460ff191690556011805480610c2b57634e487b7160e01b600052603160045260246000fd5b6040518060a0016040528087878080601f016020809104026020016040519081016040528093929190818152602001838380828437600092019190915250505090825250602080820187905260408083018790528051601f860183900483028101830190915284815260609092019190859085908190840183828082843760009201829052509385525050600160209384015250338152600b82526040902082518051919261159a92849290910190613231565b50602082810151600183015560408301516002830155606083015180516115c79260038501920190613231565b50608091909101516004909101805491151560ff199092169190911790555050601080546001810182556000919091527f1b6847dc741a1b0cd08d278845f9d819d87b734759afb55fe2de5cb82a9ae67201805473ffffffffffffffffffffffffffffffffffffffff19163317905550505050565b611647823383612843565b61100e8282612d02565b6040805160606020601f850181900402820181018352918101838152909182919085908590819085018382808284376000920182905250938552505060016020938401525033815260098252604090208251805191926116b692849290910190613231565b50602091909101516001918201805491151560ff19909216919091179055600f805491820181556000527f8d1108e10bcb7c27dddfc02ed9d693a074039d026cf4ea4240b40f7d581ac80201805473ffffffffffffffffffffffffffffffffffffffff1916331790555050565b7f704c992d358ec8f6051d88e5bd9f92457afedcbc3e2d110fcd019b5eda48e52e61174e8133610a85565b6112c6612e93565b606060048054610db9906137c2565b7f99b4cb81d693045578a6795d2045a8e4a6dc2d789bd539397ae2ce05c6604599600090815260066020527f176b99087ad4cd73da9aac2ee819eec93a21c8cdff2ffe0bac026fa3810fd51e546060908290819083906117c58133610a85565b60118054600091906117d990600190613768565b815481106117f757634e487b7160e01b600052603260045260246000fd5b60009182526020808320909101546001600160a01b0316808352600c909152604090912060018101546002820154825493945084936003840190849061183c906137c2565b80601f0160208091040260200160405190810160405280929190818152602001828054611868906137c2565b80156118b55780601f1061188a576101008083540402835291602001916118b5565b820191906000526020600020905b81548152906001019060200180831161189857829003601f168201915b505050505093508080546118c8906137c2565b80601f01602080910402602001604051908101604052809291908181526020018280546118f4906137c2565b80156119415780601f1061191657610100808354040283529160200191611941565b820191906000526020600020905b81548152906001019060200180831161192457829003601f168201915b505050505090509650965096509650965050509091929394565b600e6020526000908152604090208054819061107c906137c2565b3360008181526001602090815260408083206001600160a01b038716845290915281205490919083811015611a135760405162461bcd60e51b815260206004820152602560248201527f45524332303a2064656372656173656420616c6c6f77616e63652062656c6f7760448201527f207a65726f0000000000000000000000000000000000000000000000000000006064820152608401610afd565b61102b82868684036126eb565b3360009081527fc81c8225f2254956dc26755c4ef41658dbad58d566720249d4092c05cd441414602052604090205460ff1680611a8b57503360009081527f176b99087ad4cd73da9aac2ee819eec93a21c8cdff2ffe0bac026fa3810fd51d602052604090205460ff165b611ad75760405162461bcd60e51b815260206004820152600b60248201527f4e6f7420616c6c6f7765640000000000000000000000000000000000000000006044820152606401610afd565b6012546008546001600160a01b039091169063a9059cbb903390611afb9034613749565b6040516001600160e01b031960e085901b1681526001600160a01b0390921660048301526024820152604401602060405180830381600087803b158015611b4157600080fd5b505af1158015611b55573d6000803e3d6000fd5b505050506040513d601f19601f820116820180604052508101906112c69190613453565b600033610e4a8185856128d5565b7f99b4cb81d693045578a6795d2045a8e4a6dc2d789bd539397ae2ce05c660459960005260066020527f176b99087ad4cd73da9aac2ee819eec93a21c8cdff2ffe0bac026fa3810fd51e54611bdc8133610a85565b6001600160a01b0382166000908152600c602052604090206004015460ff16611c5c5760405162461bcd60e51b815260206004820152602c60248201527f4163636f756e7420646964206e6f7420726571756573742070726f6a6563742060448201526b3b32b934b334b1b0ba34b7b760a11b6064820152608401610afd565b601180546001600160a01b0384169190611c7890600190613768565b81548110611c9657634e487b7160e01b600052603260045260246000fd5b6000918252602090912001546001600160a01b031614611ce65760405162461bcd60e51b815260206004820152600b60248201526a04e6f742074686520746f760ac1b6044820152606401610afd565b6001600160a01b0382166000908152600c60205260409020600401805460ff19169055611d337f99b4cb81d693045578a6795d2045a8e4a6dc2d789bd539397ae2ce05c660459983612649565b6001600160a01b0382166000908152600c60209081526040808320600e909252909120815481908390611d65906137c2565b611d709291906132b5565b5060018201548160010155600282015481600201556003820181600301908054611d99906137c2565b611da49291906132b5565b506004918201549101805460ff191660ff90921615159190911790556001600160a01b0382166000908152600c6020526040812090611de382826131f5565b60018201600090556002820160009055600382016000611e0391906131f5565b50600401805460ff191690556011805480611e2e57634e487b7160e01b600052603160045260246000fd5b6000828152602090206000199082018101805473ffffffffffffffffffffffffffffffffffffffff191690550190556012546007546001600160a01b039091169063a9059cbb908490611eaf90611e8d90670de0b6b3a7640000613749565b6001600160a01b0387166000908152600e602052604090206001015490612f1b565b6040516001600160e01b031960e085901b1681526001600160a01b0390921660048301526024820152604401602060405180830381600087803b158015611ef557600080fd5b505af1158015611f09573d6000803e3d6000fd5b505050506040513d601f19601f8201168201806040525081019061105c9190613453565b6010818154811061127957600080fd5b600082815260066020526040902060010154611f598133610a85565b61105c8383612af7565b7f0ce23c3e399818cfee81a7ab0880f714e53d7672b08df0fa62f2843416e1ea0960005260066020527fe298173fb715fb8b47cba95afe542599cde89075e978203baa0c87bd3333a43a54611fb88133610a85565b6001600160a01b03821660009081526009602052604090206001015460ff1661202f5760405162461bcd60e51b8152602060048201526024808201527f4163636f756e7420646964206e6f7420726571756573742076657269666963616044820152633a34b7b760e11b6064820152608401610afd565b600f80546001600160a01b038416919061204b90600190613768565b8154811061206957634e487b7160e01b600052603260045260246000fd5b6000918252602090912001546001600160a01b031614610bdd5760405162461bcd60e51b815260206004820152600b60248201526a04e6f742074686520746f760ac1b6044820152606401610afd565b7f9e1688b53537f356172ce07f39e129155063957163c5f9462d4d9e55b228b06c60005260066020527fc81c8225f2254956dc26755c4ef41658dbad58d566720249d4092c05cd4414155461210e8133610a85565b6001600160a01b0382166000908152600b602052604090206004015460ff1661218e5760405162461bcd60e51b815260206004820152602c60248201527f4163636f756e7420646964206e6f74207265717565737420636f6d70616e792060448201526b3b32b934b334b1b0ba34b7b760a11b6064820152608401610afd565b601080546001600160a01b03841691906121aa90600190613768565b815481106121c857634e487b7160e01b600052603260045260246000fd5b6000918252602090912001546001600160a01b0316146122185760405162461bcd60e51b815260206004820152600b60248201526a04e6f742074686520746f760ac1b6044820152606401610afd565b6001600160a01b0382166000908152600b602052604081209061223b82826131f5565b6001820160009055600282016000905560038201600061225b91906131f5565b50600401805460ff191690556010805480610c2b57634e487b7160e01b600052603160045260246000fd5b7f9e1688b53537f356172ce07f39e129155063957163c5f9462d4d9e55b228b06c600090815260066020527fc81c8225f2254956dc26755c4ef41658dbad58d566720249d4092c05cd441415546060908290819083906122e68133610a85565b60108054600091906122fa90600190613768565b8154811061231857634e487b7160e01b600052603260045260246000fd5b60009182526020808320909101546001600160a01b0316808352600b909152604090912060018101546002820154825493945084936003840190849061183c906137c2565b7f9e1688b53537f356172ce07f39e129155063957163c5f9462d4d9e55b228b06c60005260066020527fc81c8225f2254956dc26755c4ef41658dbad58d566720249d4092c05cd441415546123b28133610a85565b6001600160a01b0382166000908152600b602052604090206004015460ff166124325760405162461bcd60e51b815260206004820152602c60248201527f4163636f756e7420646964206e6f74207265717565737420636f6d70616e792060448201526b3b32b934b334b1b0ba34b7b760a11b6064820152608401610afd565b601080546001600160a01b038416919061244e90600190613768565b8154811061246c57634e487b7160e01b600052603260045260246000fd5b6000918252602090912001546001600160a01b0316146124bc5760405162461bcd60e51b815260206004820152600b60248201526a04e6f742074686520746f760ac1b6044820152606401610afd565b6001600160a01b0382166000908152600b60205260409020600401805460ff191690556125097f9e1688b53537f356172ce07f39e129155063957163c5f9462d4d9e55b228b06c83612649565b6001600160a01b0382166000908152600b60209081526040808320600d90925290912081548190839061253b906137c2565b6125469291906132b5565b506001820154816001015560028201548160020155600382018160030190805461256f906137c2565b61257a9291906132b5565b506004918201549101805460ff191660ff90921615159190911790556001600160a01b0382166000908152600b602052604081209061223b82826131f5565b600f818154811061127957600080fd5b60008281526006602090815260408083206001600160a01b038516845290915290205460ff1661100e57612607816001600160a01b03166014612f2e565b612612836020612f2e565b6040516020016126239291906135c1565b60408051601f198184030181529082905262461bcd60e51b8252610afd916004016136b8565b60008281526006602090815260408083206001600160a01b038516845290915290205460ff1661100e5760008281526006602090815260408083206001600160a01b03851684529091529020805460ff191660011790556126a73390565b6001600160a01b0316816001600160a01b0316837f2f8788117e7eff1d82e926ec794901d17c78024a50270940304540a733656f0d60405160405180910390a45050565b6001600160a01b0383166127665760405162461bcd60e51b8152602060048201526024808201527f45524332303a20617070726f76652066726f6d20746865207a65726f2061646460448201527f72657373000000000000000000000000000000000000000000000000000000006064820152608401610afd565b6001600160a01b0382166127e25760405162461bcd60e51b815260206004820152602260248201527f45524332303a20617070726f766520746f20746865207a65726f20616464726560448201527f73730000000000000000000000000000000000000000000000000000000000006064820152608401610afd565b6001600160a01b0383811660008181526001602090815260408083209487168084529482529182902085905590518481527f8c5be1e5ebec7d5bd14f71427d1e84f3dd0314c0f7b2291e5b200ac8c7c3b925910160405180910390a3505050565b6001600160a01b0383811660009081526001602090815260408083209386168352929052205460001981146128cf57818110156128c25760405162461bcd60e51b815260206004820152601d60248201527f45524332303a20696e73756666696369656e7420616c6c6f77616e63650000006044820152606401610afd565b6128cf84848484036126eb565b50505050565b6001600160a01b0383166129515760405162461bcd60e51b815260206004820152602560248201527f45524332303a207472616e736665722066726f6d20746865207a65726f20616460448201527f64726573730000000000000000000000000000000000000000000000000000006064820152608401610afd565b6001600160a01b0382166129cd5760405162461bcd60e51b815260206004820152602360248201527f45524332303a207472616e7366657220746f20746865207a65726f206164647260448201527f65737300000000000000000000000000000000000000000000000000000000006064820152608401610afd565b6129d883838361319d565b6001600160a01b03831660009081526020819052604090205481811015612a675760405162461bcd60e51b815260206004820152602660248201527f45524332303a207472616e7366657220616d6f756e742065786365656473206260448201527f616c616e636500000000000000000000000000000000000000000000000000006064820152608401610afd565b6001600160a01b03808516600090815260208190526040808220858503905591851681529081208054849290612a9e908490613711565b92505081905550826001600160a01b0316846001600160a01b03167fddf252ad1be2c89b69c2b068fc378daa952ba7f163c4a11628f55a4df523b3ef84604051612aea91815260200190565b60405180910390a36128cf565b60008281526006602090815260408083206001600160a01b038516845290915290205460ff161561100e5760008281526006602090815260408083206001600160a01b0385168085529252808320805460ff1916905551339285917ff6391f5c32d9c69d2a47ea670b442974b53935d1edc7fd64eb21e047a839171b9190a45050565b60055460ff16612bcc5760405162461bcd60e51b815260206004820152601460248201527f5061757361626c653a206e6f74207061757365640000000000000000000000006044820152606401610afd565b6005805460ff191690557f5db9ee0a495bf2e6ff9c91a7834c1ba4fdd244a5e8aa4e537bd38aeae4b073aa335b6040516001600160a01b03909116815260200160405180910390a1565b6001600160a01b038216612c6c5760405162461bcd60e51b815260206004820152601f60248201527f45524332303a206d696e7420746f20746865207a65726f2061646472657373006044820152606401610afd565b612c786000838361319d565b8060026000828254612c8a9190613711565b90915550506001600160a01b03821660009081526020819052604081208054839290612cb7908490613711565b90915550506040518181526001600160a01b038316906000907fddf252ad1be2c89b69c2b068fc378daa952ba7f163c4a11628f55a4df523b3ef9060200160405180910390a361100e565b6001600160a01b038216612d7e5760405162461bcd60e51b815260206004820152602160248201527f45524332303a206275726e2066726f6d20746865207a65726f2061646472657360448201527f73000000000000000000000000000000000000000000000000000000000000006064820152608401610afd565b612d8a8260008361319d565b6001600160a01b03821660009081526020819052604090205481811015612e195760405162461bcd60e51b815260206004820152602260248201527f45524332303a206275726e20616d6f756e7420657863656564732062616c616e60448201527f63650000000000000000000000000000000000000000000000000000000000006064820152608401610afd565b6001600160a01b0383166000908152602081905260408120838303905560028054849290612e48908490613768565b90915550506040518281526000906001600160a01b038516907fddf252ad1be2c89b69c2b068fc378daa952ba7f163c4a11628f55a4df523b3ef9060200160405180910390a361105c565b60055460ff1615612ee65760405162461bcd60e51b815260206004820152601060248201527f5061757361626c653a20706175736564000000000000000000000000000000006044820152606401610afd565b6005805460ff191660011790557f62e78cea01bee320cd4e420270b5ea74000d11b0c9f74754ebdbfc544b05a258612bf93390565b6000612f278284613749565b9392505050565b60606000612f3d836002613749565b612f48906002613711565b67ffffffffffffffff811115612f6e57634e487b7160e01b600052604160045260246000fd5b6040519080825280601f01601f191660200182016040528015612f98576020820181803683370190505b5090507f300000000000000000000000000000000000000000000000000000000000000081600081518110612fdd57634e487b7160e01b600052603260045260246000fd5b60200101907effffffffffffffffffffffffffffffffffffffffffffffffffffffffffffff1916908160001a9053507f78000000000000000000000000000000000000000000000000000000000000008160018151811061304e57634e487b7160e01b600052603260045260246000fd5b60200101907effffffffffffffffffffffffffffffffffffffffffffffffffffffffffffff1916908160001a905350600061308a846002613749565b613095906001613711565b90505b600181111561314e577f303132333435363738396162636465660000000000000000000000000000000085600f16601081106130e457634e487b7160e01b600052603260045260246000fd5b1a60f81b82828151811061310857634e487b7160e01b600052603260045260246000fd5b60200101907effffffffffffffffffffffffffffffffffffffffffffffffffffffffffffff1916908160001a90535060049490941c93613147816137ab565b9050613098565b508315612f275760405162461bcd60e51b815260206004820181905260248201527f537472696e67733a20686578206c656e67746820696e73756666696369656e746044820152606401610afd565b60055460ff16156131f05760405162461bcd60e51b815260206004820152601060248201527f5061757361626c653a20706175736564000000000000000000000000000000006044820152606401610afd565b61105c565b508054613201906137c2565b6000825580601f1061321357506112c6565b601f0160209004906000526020600020908101906112c69190613330565b82805461323d906137c2565b90600052602060002090601f01602090048101928261325f57600085556132a5565b82601f1061327857805160ff19168380011785556132a5565b828001600101855582156132a5579182015b828111156132a557825182559160200191906001019061328a565b506132b1929150613330565b5090565b8280546132c1906137c2565b90600052602060002090601f0160209004810192826132e357600085556132a5565b82601f106132f457805485556132a5565b828001600101855582156132a557600052602060002091601f016020900482015b828111156132a5578254825591600101919060010190613315565b5b808211156132b15760008155600101613331565b80356001600160a01b0381168114610a2f57600080fd5b60008083601f84011261336d578182fd5b50813567ffffffffffffffff811115613384578182fd5b60208301915083602082850101111561339c57600080fd5b9250929050565b6000602082840312156133b4578081fd5b612f2782613345565b600080604083850312156133cf578081fd5b6133d883613345565b91506133e660208401613345565b90509250929050565b600080600060608486031215613403578081fd5b61340c84613345565b925061341a60208501613345565b9150604084013590509250925092565b6000806040838503121561343c578182fd5b61344583613345565b946020939093013593505050565b600060208284031215613464578081fd5b81518015158114612f27578182fd5b600060208284031215613484578081fd5b5035919050565b6000806040838503121561349d578182fd5b823591506133e660208401613345565b6000602082840312156134be578081fd5b81356001600160e01b031981168114612f27578182fd5b600080602083850312156134e7578182fd5b823567ffffffffffffffff8111156134fd578283fd5b6135098582860161335c565b90969095509350505050565b6000806000806000806080878903121561352d578182fd5b863567ffffffffffffffff80821115613544578384fd5b6135508a838b0161335c565b909850965060208901359550604089013594506060890135915080821115613576578384fd5b5061358389828a0161335c565b979a9699509497509295939492505050565b600081518084526135ad81602086016020860161377f565b601f01601f19169290920160200192915050565b60007f416363657373436f6e74726f6c3a206163636f756e7420000000000000000000825283516135f981601785016020880161377f565b7f206973206d697373696e6720726f6c6520000000000000000000000000000000601791840191820152835161363681602884016020880161377f565b01602801949350505050565b60006001600160a01b0384168252604060208301526136646040830184613595565b949350505050565b60006001600160a01b038716825260a0602083015261368e60a0830187613595565b85604084015284606084015282810360808401526136ac8185613595565b98975050505050505050565b600060208252612f276020830184613595565b600060a082526136de60a0830188613595565b86602084015285604084015282810360608401526136fc8186613595565b91505082151560808301529695505050505050565b60008219821115613724576137246137fd565b500190565b60008261374457634e487b7160e01b81526012600452602481fd5b500490565b6000816000190483118215151615613763576137636137fd565b500290565b60008282101561377a5761377a6137fd565b500390565b60005b8381101561379a578181015183820152602001613782565b838111156128cf5750506000910152565b6000816137ba576137ba6137fd565b506000190190565b600181811c908216806137d657607f821691505b602082108114156137f757634e487b7160e01b600052602260045260246000fd5b50919050565b634e487b7160e01b600052601160045260246000fdfea264697066735822122040fa6878a5dddf8bdc4e76145578f6f1f8eb0d9c1244dd18d5150fda3142751064736f6c634300080300339e1688b53537f356172ce07f39e129155063957163c5f9462d4d9e55b228b06c99b4cb81d693045578a6795d2045a8e4a6dc2d789bd539397ae2ce05c6604599704c992d358ec8f6051d88e5bd9f92457afedcbc3e2d110fcd019b5eda48e52e0ce23c3e399818cfee81a7ab0880f714e53d7672b08df0fa62f2843416e1ea09",
  "immutableReferences": {},
  "source": "// SPDX-License-Identifier: MIT\r\npragma solidity >=0.4.22 <0.9.0;\r\n// ERC20 for token\r\n// ERC721 will be required for nft receipt\r\n// Burnable is required for yearly burning\r\n// Access control for assigning responsibilities\r\n\r\nimport \"../node_modules/@openzeppelin/contracts/token/ERC20/ERC20.sol\";\r\nimport \"../node_modules/@openzeppelin/contracts/token/ERC20/extensions/ERC20Burnable.sol\";\r\nimport \"../node_modules/@openzeppelin/contracts/security/Pausable.sol\";\r\nimport \"../node_modules/@openzeppelin/contracts/access/AccessControl.sol\";\r\nimport \"../node_modules/@openzeppelin/contracts/utils/math/SafeMath.sol\";\r\n\r\ncontract GreenToken is ERC20, ERC20Burnable, Pausable, AccessControl {\r\n    using SafeMath for uint256;\r\n    //Create roles\r\n    bytes32 public constant VERIFIER_ROLE = keccak256(\"VERIFIER_ROLE\");\r\n    bytes32 public constant GOVERNER_ROLE = keccak256(\"GOVERNER_ROLE\");\r\n    bytes32 public constant COMPANY_ROLE = keccak256(\"COMPANY_ROLE\");\r\n    bytes32 public constant PROJECT_ROLE = keccak256(\"PROJECT_ROLE\");\r\n\r\n    //token = tco2_multiplier*tCO2\r\n    uint private tco2_multiplier = 1.0;\r\n    //token = Rate*Ether\r\n    uint256 private Rate =1.0;\r\n    // uint256 public INITIAL_SUPPLY = 1000*(10 ** uint256(decimals));\r\n    enum Roles{ GOV, VALIDATOR, COMPANY, PROJECT }\r\n    //enum ApplicationStatus{}\r\n    //list of addresses requesting verification\r\n    //Should be poped out once they are analysed\r\n    // address[] private addressesRequestingVerifierRole;\r\n    struct KYC_Verifier {\r\n        string registrationID;\r\n        bool appliedForVerification;\r\n    } \r\n\r\n    mapping(address => KYC_Verifier) private addressesRequestingVerifierRole;\r\n    address owner;\r\n\r\n\r\n    struct KYC_Company {\r\n        string registrationID;\r\n        uint256 tco2Emission;\r\n        uint256 gntTokenBalance;\r\n        string document_uri;\r\n        bool appliedForVerification;\r\n    }\r\n\r\n    \r\n    struct KYC_Project {\r\n        string registrationID;\r\n        uint256 tco2Reduction;\r\n        uint256 gntTokenBalance;\r\n        string document_uri;\r\n        bool appliedForVerification;\r\n    }\r\n    //mappings\r\n\r\n    mapping(address => KYC_Company) private addressesRequestingCompanyVerification;\r\n    mapping(address => KYC_Project) private addressesRequestingProjectVerification;\r\n    mapping(address => KYC_Company) public verifiedCompanies;\r\n    mapping(address => KYC_Project) public verifiedProjects;\r\n\r\n\r\n    //arrays (fifo) keeps the list of addresses requesting specific roles\r\n    address[] public verifier_request_address;\r\n    address[] public company_request_address;\r\n    address[] public project_request_address;\r\n\r\n    //Events\r\n    //V,C,P are FIFO type array\r\n    // event VERIFIER_REQUEST(address);\r\n    // event COMPANY_REQUEST();\r\n    // event PROJECT_REQUEST();\r\n    // event COMPANY_DETAIL();\r\n    // event PROJECT_DETAIL();\r\n    // event VERIFIER_DETAIL();\r\n    event STATUS(bool, address);\r\n\r\n    IERC20 public tokenContract;\r\n\r\n    //--need to add mint amount in the constructor for initial tokens qty to mint\r\n    constructor(uint256 tokenQty) ERC20(\"GreenToken\", \"GNT\")  {\r\n        //assign all initial roles to contract creator\r\n        _grantRole(DEFAULT_ADMIN_ROLE, msg.sender);\r\n        _grantRole(VERIFIER_ROLE, msg.sender);\r\n        _grantRole(GOVERNER_ROLE, msg.sender);\r\n        _grantRole(COMPANY_ROLE, msg.sender);\r\n        _grantRole(PROJECT_ROLE, msg.sender);\r\n\r\n        _setRoleAdmin(PROJECT_ROLE,VERIFIER_ROLE);\r\n        _setRoleAdmin(COMPANY_ROLE,VERIFIER_ROLE);\r\n        _setRoleAdmin(VERIFIER_ROLE,GOVERNER_ROLE);\r\n        _setRoleAdmin(GOVERNER_ROLE,DEFAULT_ADMIN_ROLE);\r\n\r\n        //mint init token\r\n        // uint256 totalSupply = 10000 * (10 ** uint256(decimals));\r\n        // _mint(msg.sender, 10000 * (10 **uint256(decimals)));\r\n        _mint(address(this), tokenQty * (10 **18));\r\n        // uint256 totalSupply = 10000 * (10 ** uint256(decimals));\r\n         owner = msg.sender;\r\n         tokenContract = IERC20(address(this));\r\n        \r\n    }\r\n    //frontend request 1st address in the list of verifier\r\n\r\n\r\n    function requestFirstAddressInVerifierList() public view onlyRole(getRoleAdmin(VERIFIER_ROLE))  returns(address, string memory){\r\n        address addr = verifier_request_address[verifier_request_address.length-1];\r\n        return ( addr,\r\n                addressesRequestingVerifierRole[addr].registrationID);\r\n    }\r\n    function requestFirstAddressInCompanyList() public view onlyRole(getRoleAdmin(COMPANY_ROLE))  returns(address, string memory, uint256, uint256, string memory){\r\n        address addr = company_request_address[company_request_address.length-1];\r\n        return ( addr,\r\n                addressesRequestingCompanyVerification[addr].registrationID,\r\n                addressesRequestingCompanyVerification[addr].tco2Emission,\r\n                addressesRequestingCompanyVerification[addr].gntTokenBalance,\r\n                addressesRequestingCompanyVerification[addr].document_uri);\r\n    }\r\n    function requestFirstAddressInProjectList() public view onlyRole(getRoleAdmin(PROJECT_ROLE))  returns(address, string memory, uint256, uint256, string memory){\r\n        address addr = project_request_address[project_request_address.length-1];\r\n        return ( addr,\r\n                addressesRequestingProjectVerification[addr].registrationID,\r\n                addressesRequestingProjectVerification[addr].tco2Reduction,\r\n                addressesRequestingProjectVerification[addr].gntTokenBalance,\r\n                addressesRequestingProjectVerification[addr].document_uri);\r\n    }\r\n\r\n    //request verifier role\r\n    function requestVerifierRole( string calldata _registrationID) public{\r\n        addressesRequestingVerifierRole[msg.sender]=KYC_Verifier(_registrationID, true);\r\n        verifier_request_address.push(msg.sender);\r\n    }\r\n\r\n    //grant verifier  role\r\n    function grantVerifierRole(address applicantAddress) public onlyRole(getRoleAdmin(VERIFIER_ROLE)){\r\n        require(addressesRequestingVerifierRole[applicantAddress].appliedForVerification,\"Account did not request verification\"); //--added this line to prevent non request address.\r\n        require(verifier_request_address[verifier_request_address.length-1] == applicantAddress, \"Not the top\");\r\n        addressesRequestingVerifierRole[applicantAddress].appliedForVerification =false;\r\n        _grantRole(VERIFIER_ROLE,applicantAddress);\r\n        delete addressesRequestingVerifierRole[applicantAddress];\r\n        verifier_request_address.pop();\r\n    }\r\n\r\n    //Reject verifier application\r\n    function rejectVerifierApplication(address applicantAddress) public onlyRole(getRoleAdmin(VERIFIER_ROLE)){\r\n        require(addressesRequestingVerifierRole[applicantAddress].appliedForVerification,\"Account did not request verification\"); //--added this line to prevent non request address.      \r\n        require(verifier_request_address[verifier_request_address.length-1] == applicantAddress, \"Not the top\");\r\n        delete addressesRequestingVerifierRole[applicantAddress];\r\n        verifier_request_address.pop();\r\n    }\r\n\r\n\r\n    //Company request to review their CO2 emission\r\n    //change memory to calldata?\r\n    function requestCompanyVerification( string calldata _registrationID, uint256 _tco2Emission, uint256 _gntTokenBalance, string calldata _document_uri) public{\r\n        //save in addressesRequestingCompanyVerification\r\n        addressesRequestingCompanyVerification[msg.sender]= KYC_Company(_registrationID, _tco2Emission, _gntTokenBalance, _document_uri, true);\r\n        company_request_address.push(msg.sender);\r\n    }\r\n                \r\n    //Accept company request\r\n\r\n    function companyApplicationVerified(address _companyAddress) public onlyRole(getRoleAdmin(COMPANY_ROLE)){\r\n        //--added this line to prevent non request address.\r\n        require(addressesRequestingCompanyVerification[_companyAddress].appliedForVerification,\"Account did not request company verification\");\r\n        require(company_request_address[company_request_address.length-1] == _companyAddress, \"Not the top\");\r\n        addressesRequestingCompanyVerification[_companyAddress].appliedForVerification = false;\r\n        _grantRole(COMPANY_ROLE,_companyAddress);\r\n        //add to verified company list\r\n        verifiedCompanies[_companyAddress] = addressesRequestingCompanyVerification[_companyAddress];\r\n        //verify if it is a copy or just referncing otherwise after delete phase, the data will be removed from verified compan yas ell\r\n        delete addressesRequestingCompanyVerification[_companyAddress];\r\n        company_request_address.pop();\r\n        //emit event to be done\r\n    }\r\n\r\n    //Reject company request\r\n    function companyApplicationRejected(address _companyAddress) public onlyRole(getRoleAdmin(COMPANY_ROLE)){\r\n        require(addressesRequestingCompanyVerification[_companyAddress].appliedForVerification,\"Account did not request company verification\");\r\n        require(company_request_address[company_request_address.length-1] == _companyAddress, \"Not the top\");\r\n        delete addressesRequestingCompanyVerification[_companyAddress];\r\n        company_request_address.pop();\r\n            //emit event to be done\r\n\r\n    }\r\n\r\n\r\n    //Project request to review their CO2 offset\r\n\r\n     function requestProjectVerification ( string calldata _registrationID, uint256 _tco2Reduction, uint256 _gntTokenBalance, string calldata _document_uri) public{\r\n        //save in addressesRequestingProjectVerification\r\n        addressesRequestingProjectVerification[msg.sender]= KYC_Project(_registrationID, _tco2Reduction, _gntTokenBalance, _document_uri, true);\r\n        project_request_address.push(msg.sender);\r\n    }\r\n    \r\n    //Accept project requet\r\n    function projectApplicationVerified(address _projectAddress) public onlyRole(getRoleAdmin(PROJECT_ROLE)){\r\n\r\n        require(addressesRequestingProjectVerification[_projectAddress].appliedForVerification,\"Account did not request project verification\");\r\n        require(project_request_address[project_request_address.length-1] == _projectAddress, \"Not the top\");\r\n        addressesRequestingProjectVerification[_projectAddress].appliedForVerification = false;\r\n        _grantRole(PROJECT_ROLE,_projectAddress);\r\n        //add to verified project list\r\n        verifiedProjects[_projectAddress] = addressesRequestingProjectVerification[_projectAddress];\r\n        //verify if it is a copy or just referncing otherwise after delete phase, the data will be removed from verified compan yas ell\r\n        delete addressesRequestingProjectVerification[_projectAddress];\r\n        project_request_address.pop();\r\n\r\n        //mint equivalent tokens\r\n        // mint(_projectAddress, (verifiedProjects[_projectAddress].tco2Reduction).mul(Rate));\r\n        //Should be transfer token instead of mint\r\n        // (payable address(this)).transfer(_projectAddress, (verifiedProjects[_projectAddress].tco2Reduction).mul(Rate));\r\n        // IERC20 tokenContract = IERC20(_tokenAddress);\r\n\r\n        tokenContract.transfer(_projectAddress, ((verifiedProjects[_projectAddress].tco2Reduction).mul(tco2_multiplier* (10 **18))));\r\n        //emit event to be done\r\n\r\n    }\r\n\r\n    //Reject proejct request\r\n    function projectApplicationRejected(address _projectAddress) public onlyRole(getRoleAdmin(PROJECT_ROLE)){\r\n        require(addressesRequestingProjectVerification[_projectAddress].appliedForVerification,\"Account did not request project verification\");\r\n        require(project_request_address[project_request_address.length-1] == _projectAddress, \"Not the top\");\r\n        delete addressesRequestingProjectVerification[_projectAddress];\r\n        project_request_address.pop();\r\n            //emit event to be done\r\n    }\r\n\r\n\r\n\r\n    function pause() public onlyRole(GOVERNER_ROLE) {\r\n        _pause();\r\n    }\r\n\r\n    function unpause() public onlyRole(GOVERNER_ROLE) {\r\n        _unpause();\r\n    }\r\n\r\n\r\n    /*\r\n    ERC20 methods\r\n    */\r\n\r\n    // Mint function is private since, it will be called by another func\r\n    function mint(address to, uint256 amount) public onlyRole(GOVERNER_ROLE) {\r\n        // Pop out the specific address\r\n        \r\n        // require(hasRole(PROJECT_ROLE,to), \"address is not a verified project\");\r\n        _mint(to, amount*(10**18));\r\n        //Emit event (to be done)\r\n    }\r\n\r\n\r\n    /*Function for buying token by sending equivalent ether to contract\r\n        Buying token by company means:\r\n        1. Company request to buy XX GNT \r\n        2. Check if sufficient GNT/ETH in the account\r\n        3. Payable Eth receive, and then send equivalent token to the account\r\n        4. Emit event \r\n        5. Issue NFT for the transaction\r\n        \r\n        \r\n        Function to sell token to contract\r\n        1. Check sufficient balance in contract account\r\n        2. Rate decided by the contract\r\n        3. Add the asked token to the pool, and pay to the requesting amount in ETH equivalent\r\n        4. Emit event\r\n        5. Issue NFT for the transaction\r\n    */\r\n\r\n    //Implementation\r\n    //removed addressparam \r\n    function buyToken() public payable { //onlyRole(COMPANY_ROLE)\r\n        // verifiedCompanies[msg.sender].gntTokenBalance.add(msg.value);\r\n        // approve(address(this),msg.value);\r\n        require(hasRole(COMPANY_ROLE,msg.sender) || hasRole(PROJECT_ROLE, msg.sender), \"Not allowed\");\r\n        //IERC20 tokenContract = IERC20(_tokenAddress);\r\n        // transferFrom(owner,msg.sender,msg.value*(10**18)); //to transfer in max token unit\r\n        tokenContract.transfer(msg.sender, msg.value*Rate);\r\n        // address(this).send()\r\n\r\n    }\r\n\r\n    function sellToken(  uint256 token) public{ //address _tokenAddress\r\n        // require(hasRole(COMPANY_ROLE,msg.sender) || hasRole(PROJECT_ROLE, msg.sender), \"Not allowed\");\r\n        // IERC20 tokenContract = IERC20(_tokenAddress);\r\n        //address(this) take this-> msg sender i guess\r\n        payable(msg.sender).transfer( token*(10**18)/Rate);\r\n        transfer(address(this), token*(10**18));\r\n    }\r\n\r\n\r\n\r\n\r\n\r\n    function _beforeTokenTransfer(address from, address to, uint256 amount)\r\n        internal\r\n        whenNotPaused\r\n        override\r\n    {\r\n        super._beforeTokenTransfer(from, to, amount);\r\n    }\r\n}",
  "sourcePath": "C:\\Users\\rahul\\Documents\\GitHub\\CCT_NetZero\\contracts\\GreenToken.sol",
  "compiler": {
    "name": "solc",
    "version": "0.8.3+commit.8d00100c.Emscripten.clang"
  },
  "schemaVersion": "3.4.4",
  "updatedAt": "2022-04-21T23:19:33.769Z",
  "networkType": "ethereum",
  "devdoc": {
    "kind": "dev",
    "methods": {
      "allowance(address,address)": {
        "details": "See {IERC20-allowance}."
      },
      "approve(address,uint256)": {
        "details": "See {IERC20-approve}. NOTE: If `amount` is the maximum `uint256`, the allowance is not updated on `transferFrom`. This is semantically equivalent to an infinite approval. Requirements: - `spender` cannot be the zero address."
      },
      "balanceOf(address)": {
        "details": "See {IERC20-balanceOf}."
      },
      "burn(uint256)": {
        "details": "Destroys `amount` tokens from the caller. See {ERC20-_burn}."
      },
      "burnFrom(address,uint256)": {
        "details": "Destroys `amount` tokens from `account`, deducting from the caller's allowance. See {ERC20-_burn} and {ERC20-allowance}. Requirements: - the caller must have allowance for ``accounts``'s tokens of at least `amount`."
      },
      "decimals()": {
        "details": "Returns the number of decimals used to get its user representation. For example, if `decimals` equals `2`, a balance of `505` tokens should be displayed to a user as `5.05` (`505 / 10 ** 2`). Tokens usually opt for a value of 18, imitating the relationship between Ether and Wei. This is the value {ERC20} uses, unless this function is overridden; NOTE: This information is only used for _display_ purposes: it in no way affects any of the arithmetic of the contract, including {IERC20-balanceOf} and {IERC20-transfer}."
      },
      "decreaseAllowance(address,uint256)": {
        "details": "Atomically decreases the allowance granted to `spender` by the caller. This is an alternative to {approve} that can be used as a mitigation for problems described in {IERC20-approve}. Emits an {Approval} event indicating the updated allowance. Requirements: - `spender` cannot be the zero address. - `spender` must have allowance for the caller of at least `subtractedValue`."
      },
      "getRoleAdmin(bytes32)": {
        "details": "Returns the admin role that controls `role`. See {grantRole} and {revokeRole}. To change a role's admin, use {_setRoleAdmin}."
      },
      "grantRole(bytes32,address)": {
        "details": "Grants `role` to `account`. If `account` had not been already granted `role`, emits a {RoleGranted} event. Requirements: - the caller must have ``role``'s admin role."
      },
      "hasRole(bytes32,address)": {
        "details": "Returns `true` if `account` has been granted `role`."
      },
      "increaseAllowance(address,uint256)": {
        "details": "Atomically increases the allowance granted to `spender` by the caller. This is an alternative to {approve} that can be used as a mitigation for problems described in {IERC20-approve}. Emits an {Approval} event indicating the updated allowance. Requirements: - `spender` cannot be the zero address."
      },
      "name()": {
        "details": "Returns the name of the token."
      },
      "paused()": {
        "details": "Returns true if the contract is paused, and false otherwise."
      },
      "renounceRole(bytes32,address)": {
        "details": "Revokes `role` from the calling account. Roles are often managed via {grantRole} and {revokeRole}: this function's purpose is to provide a mechanism for accounts to lose their privileges if they are compromised (such as when a trusted device is misplaced). If the calling account had been revoked `role`, emits a {RoleRevoked} event. Requirements: - the caller must be `account`."
      },
      "revokeRole(bytes32,address)": {
        "details": "Revokes `role` from `account`. If `account` had been granted `role`, emits a {RoleRevoked} event. Requirements: - the caller must have ``role``'s admin role."
      },
      "supportsInterface(bytes4)": {
        "details": "See {IERC165-supportsInterface}."
      },
      "symbol()": {
        "details": "Returns the symbol of the token, usually a shorter version of the name."
      },
      "totalSupply()": {
        "details": "See {IERC20-totalSupply}."
      },
      "transfer(address,uint256)": {
        "details": "See {IERC20-transfer}. Requirements: - `to` cannot be the zero address. - the caller must have a balance of at least `amount`."
      },
      "transferFrom(address,address,uint256)": {
        "details": "See {IERC20-transferFrom}. Emits an {Approval} event indicating the updated allowance. This is not required by the EIP. See the note at the beginning of {ERC20}. NOTE: Does not update the allowance if the current allowance is the maximum `uint256`. Requirements: - `from` and `to` cannot be the zero address. - `from` must have a balance of at least `amount`. - the caller must have allowance for ``from``'s tokens of at least `amount`."
      }
    },
    "version": 1
  },
  "userdoc": {
    "kind": "user",
    "methods": {},
    "version": 1
  }
}