{
  "contractName": "GreenToken",
  "abi": [
    {
      "inputs": [],
      "stateMutability": "nonpayable",
      "type": "constructor"
    },
    {
      "anonymous": false,
      "inputs": [
        {
          "indexed": true,
          "internalType": "address",
          "name": "owner",
          "type": "address"
        },
        {
          "indexed": true,
          "internalType": "address",
          "name": "spender",
          "type": "address"
        },
        {
          "indexed": false,
          "internalType": "uint256",
          "name": "value",
          "type": "uint256"
        }
      ],
      "name": "Approval",
      "type": "event"
    },
    {
      "anonymous": false,
      "inputs": [
        {
          "indexed": false,
          "internalType": "address",
          "name": "account",
          "type": "address"
        }
      ],
      "name": "Paused",
      "type": "event"
    },
    {
      "anonymous": false,
      "inputs": [
        {
          "indexed": true,
          "internalType": "bytes32",
          "name": "role",
          "type": "bytes32"
        },
        {
          "indexed": true,
          "internalType": "bytes32",
          "name": "previousAdminRole",
          "type": "bytes32"
        },
        {
          "indexed": true,
          "internalType": "bytes32",
          "name": "newAdminRole",
          "type": "bytes32"
        }
      ],
      "name": "RoleAdminChanged",
      "type": "event"
    },
    {
      "anonymous": false,
      "inputs": [
        {
          "indexed": true,
          "internalType": "bytes32",
          "name": "role",
          "type": "bytes32"
        },
        {
          "indexed": true,
          "internalType": "address",
          "name": "account",
          "type": "address"
        },
        {
          "indexed": true,
          "internalType": "address",
          "name": "sender",
          "type": "address"
        }
      ],
      "name": "RoleGranted",
      "type": "event"
    },
    {
      "anonymous": false,
      "inputs": [
        {
          "indexed": true,
          "internalType": "bytes32",
          "name": "role",
          "type": "bytes32"
        },
        {
          "indexed": true,
          "internalType": "address",
          "name": "account",
          "type": "address"
        },
        {
          "indexed": true,
          "internalType": "address",
          "name": "sender",
          "type": "address"
        }
      ],
      "name": "RoleRevoked",
      "type": "event"
    },
    {
      "anonymous": false,
      "inputs": [
        {
          "indexed": true,
          "internalType": "address",
          "name": "from",
          "type": "address"
        },
        {
          "indexed": true,
          "internalType": "address",
          "name": "to",
          "type": "address"
        },
        {
          "indexed": false,
          "internalType": "uint256",
          "name": "value",
          "type": "uint256"
        }
      ],
      "name": "Transfer",
      "type": "event"
    },
    {
      "anonymous": false,
      "inputs": [
        {
          "indexed": false,
          "internalType": "address",
          "name": "account",
          "type": "address"
        }
      ],
      "name": "Unpaused",
      "type": "event"
    },
    {
      "inputs": [],
      "name": "COMPANY_ROLE",
      "outputs": [
        {
          "internalType": "bytes32",
          "name": "",
          "type": "bytes32"
        }
      ],
      "stateMutability": "view",
      "type": "function",
      "constant": true
    },
    {
      "inputs": [],
      "name": "DEFAULT_ADMIN_ROLE",
      "outputs": [
        {
          "internalType": "bytes32",
          "name": "",
          "type": "bytes32"
        }
      ],
      "stateMutability": "view",
      "type": "function",
      "constant": true
    },
    {
      "inputs": [],
      "name": "GOVERNER_ROLE",
      "outputs": [
        {
          "internalType": "bytes32",
          "name": "",
          "type": "bytes32"
        }
      ],
      "stateMutability": "view",
      "type": "function",
      "constant": true
    },
    {
      "inputs": [],
      "name": "INITIAL_SUPPLY",
      "outputs": [
        {
          "internalType": "uint256",
          "name": "",
          "type": "uint256"
        }
      ],
      "stateMutability": "view",
      "type": "function",
      "constant": true
    },
    {
      "inputs": [],
      "name": "PROJECT_ROLE",
      "outputs": [
        {
          "internalType": "bytes32",
          "name": "",
          "type": "bytes32"
        }
      ],
      "stateMutability": "view",
      "type": "function",
      "constant": true
    },
    {
      "inputs": [],
      "name": "VERIFIER_ROLE",
      "outputs": [
        {
          "internalType": "bytes32",
          "name": "",
          "type": "bytes32"
        }
      ],
      "stateMutability": "view",
      "type": "function",
      "constant": true
    },
    {
      "inputs": [
        {
          "internalType": "address",
          "name": "owner",
          "type": "address"
        },
        {
          "internalType": "address",
          "name": "spender",
          "type": "address"
        }
      ],
      "name": "allowance",
      "outputs": [
        {
          "internalType": "uint256",
          "name": "",
          "type": "uint256"
        }
      ],
      "stateMutability": "view",
      "type": "function",
      "constant": true
    },
    {
      "inputs": [
        {
          "internalType": "address",
          "name": "spender",
          "type": "address"
        },
        {
          "internalType": "uint256",
          "name": "amount",
          "type": "uint256"
        }
      ],
      "name": "approve",
      "outputs": [
        {
          "internalType": "bool",
          "name": "",
          "type": "bool"
        }
      ],
      "stateMutability": "nonpayable",
      "type": "function"
    },
    {
      "inputs": [
        {
          "internalType": "address",
          "name": "account",
          "type": "address"
        }
      ],
      "name": "balanceOf",
      "outputs": [
        {
          "internalType": "uint256",
          "name": "",
          "type": "uint256"
        }
      ],
      "stateMutability": "view",
      "type": "function",
      "constant": true
    },
    {
      "inputs": [
        {
          "internalType": "uint256",
          "name": "amount",
          "type": "uint256"
        }
      ],
      "name": "burn",
      "outputs": [],
      "stateMutability": "nonpayable",
      "type": "function"
    },
    {
      "inputs": [
        {
          "internalType": "address",
          "name": "account",
          "type": "address"
        },
        {
          "internalType": "uint256",
          "name": "amount",
          "type": "uint256"
        }
      ],
      "name": "burnFrom",
      "outputs": [],
      "stateMutability": "nonpayable",
      "type": "function"
    },
    {
      "inputs": [],
      "name": "decimals",
      "outputs": [
        {
          "internalType": "uint8",
          "name": "",
          "type": "uint8"
        }
      ],
      "stateMutability": "view",
      "type": "function",
      "constant": true
    },
    {
      "inputs": [
        {
          "internalType": "address",
          "name": "spender",
          "type": "address"
        },
        {
          "internalType": "uint256",
          "name": "subtractedValue",
          "type": "uint256"
        }
      ],
      "name": "decreaseAllowance",
      "outputs": [
        {
          "internalType": "bool",
          "name": "",
          "type": "bool"
        }
      ],
      "stateMutability": "nonpayable",
      "type": "function"
    },
    {
      "inputs": [
        {
          "internalType": "bytes32",
          "name": "role",
          "type": "bytes32"
        }
      ],
      "name": "getRoleAdmin",
      "outputs": [
        {
          "internalType": "bytes32",
          "name": "",
          "type": "bytes32"
        }
      ],
      "stateMutability": "view",
      "type": "function",
      "constant": true
    },
    {
      "inputs": [
        {
          "internalType": "bytes32",
          "name": "role",
          "type": "bytes32"
        },
        {
          "internalType": "address",
          "name": "account",
          "type": "address"
        }
      ],
      "name": "grantRole",
      "outputs": [],
      "stateMutability": "nonpayable",
      "type": "function"
    },
    {
      "inputs": [
        {
          "internalType": "bytes32",
          "name": "role",
          "type": "bytes32"
        },
        {
          "internalType": "address",
          "name": "account",
          "type": "address"
        }
      ],
      "name": "hasRole",
      "outputs": [
        {
          "internalType": "bool",
          "name": "",
          "type": "bool"
        }
      ],
      "stateMutability": "view",
      "type": "function",
      "constant": true
    },
    {
      "inputs": [
        {
          "internalType": "address",
          "name": "spender",
          "type": "address"
        },
        {
          "internalType": "uint256",
          "name": "addedValue",
          "type": "uint256"
        }
      ],
      "name": "increaseAllowance",
      "outputs": [
        {
          "internalType": "bool",
          "name": "",
          "type": "bool"
        }
      ],
      "stateMutability": "nonpayable",
      "type": "function"
    },
    {
      "inputs": [],
      "name": "name",
      "outputs": [
        {
          "internalType": "string",
          "name": "",
          "type": "string"
        }
      ],
      "stateMutability": "view",
      "type": "function",
      "constant": true
    },
    {
      "inputs": [],
      "name": "paused",
      "outputs": [
        {
          "internalType": "bool",
          "name": "",
          "type": "bool"
        }
      ],
      "stateMutability": "view",
      "type": "function",
      "constant": true
    },
    {
      "inputs": [
        {
          "internalType": "bytes32",
          "name": "role",
          "type": "bytes32"
        },
        {
          "internalType": "address",
          "name": "account",
          "type": "address"
        }
      ],
      "name": "renounceRole",
      "outputs": [],
      "stateMutability": "nonpayable",
      "type": "function"
    },
    {
      "inputs": [
        {
          "internalType": "bytes32",
          "name": "role",
          "type": "bytes32"
        },
        {
          "internalType": "address",
          "name": "account",
          "type": "address"
        }
      ],
      "name": "revokeRole",
      "outputs": [],
      "stateMutability": "nonpayable",
      "type": "function"
    },
    {
      "inputs": [
        {
          "internalType": "bytes4",
          "name": "interfaceId",
          "type": "bytes4"
        }
      ],
      "name": "supportsInterface",
      "outputs": [
        {
          "internalType": "bool",
          "name": "",
          "type": "bool"
        }
      ],
      "stateMutability": "view",
      "type": "function",
      "constant": true
    },
    {
      "inputs": [],
      "name": "symbol",
      "outputs": [
        {
          "internalType": "string",
          "name": "",
          "type": "string"
        }
      ],
      "stateMutability": "view",
      "type": "function",
      "constant": true
    },
    {
      "inputs": [],
      "name": "totalSupply",
      "outputs": [
        {
          "internalType": "uint256",
          "name": "",
          "type": "uint256"
        }
      ],
      "stateMutability": "view",
      "type": "function",
      "constant": true
    },
    {
      "inputs": [
        {
          "internalType": "address",
          "name": "to",
          "type": "address"
        },
        {
          "internalType": "uint256",
          "name": "amount",
          "type": "uint256"
        }
      ],
      "name": "transfer",
      "outputs": [
        {
          "internalType": "bool",
          "name": "",
          "type": "bool"
        }
      ],
      "stateMutability": "nonpayable",
      "type": "function"
    },
    {
      "inputs": [
        {
          "internalType": "address",
          "name": "from",
          "type": "address"
        },
        {
          "internalType": "address",
          "name": "to",
          "type": "address"
        },
        {
          "internalType": "uint256",
          "name": "amount",
          "type": "uint256"
        }
      ],
      "name": "transferFrom",
      "outputs": [
        {
          "internalType": "bool",
          "name": "",
          "type": "bool"
        }
      ],
      "stateMutability": "nonpayable",
      "type": "function"
    },
    {
      "inputs": [
        {
          "internalType": "address",
          "name": "",
          "type": "address"
        }
      ],
      "name": "verifiedCompanies",
      "outputs": [
        {
          "internalType": "string",
          "name": "registrationID",
          "type": "string"
        },
        {
          "internalType": "uint256",
          "name": "tco2Emission",
          "type": "uint256"
        },
        {
          "internalType": "uint256",
          "name": "gntTokenBalance",
          "type": "uint256"
        },
        {
          "internalType": "string",
          "name": "document_uri",
          "type": "string"
        }
      ],
      "stateMutability": "view",
      "type": "function",
      "constant": true
    },
    {
      "inputs": [
        {
          "internalType": "address",
          "name": "",
          "type": "address"
        }
      ],
      "name": "verifiedProjects",
      "outputs": [
        {
          "internalType": "string",
          "name": "registrationID",
          "type": "string"
        },
        {
          "internalType": "uint256",
          "name": "tco2Reduction",
          "type": "uint256"
        },
        {
          "internalType": "uint256",
          "name": "gntTokenBalance",
          "type": "uint256"
        },
        {
          "internalType": "string",
          "name": "document_uri",
          "type": "string"
        }
      ],
      "stateMutability": "view",
      "type": "function",
      "constant": true
    },
    {
      "inputs": [],
      "name": "requestVerifierRole",
      "outputs": [],
      "stateMutability": "nonpayable",
      "type": "function"
    },
    {
      "inputs": [
        {
          "internalType": "address",
          "name": "applicantAddress",
          "type": "address"
        }
      ],
      "name": "grantVerifierRole",
      "outputs": [],
      "stateMutability": "nonpayable",
      "type": "function"
    },
    {
      "inputs": [
        {
          "internalType": "address",
          "name": "applicantAddress",
          "type": "address"
        }
      ],
      "name": "rejectVerifierApplication",
      "outputs": [],
      "stateMutability": "nonpayable",
      "type": "function"
    },
    {
      "inputs": [
        {
          "internalType": "string",
          "name": "_registrationID",
          "type": "string"
        },
        {
          "internalType": "uint256",
          "name": "_tco2Emission",
          "type": "uint256"
        },
        {
          "internalType": "uint256",
          "name": "_gntTokenBalance",
          "type": "uint256"
        },
        {
          "internalType": "string",
          "name": "_document_uri",
          "type": "string"
        }
      ],
      "name": "requestCompanyVerification",
      "outputs": [],
      "stateMutability": "nonpayable",
      "type": "function"
    },
    {
      "inputs": [
        {
          "internalType": "address",
          "name": "_companyAddress",
          "type": "address"
        }
      ],
      "name": "companyApplicationVerified",
      "outputs": [],
      "stateMutability": "nonpayable",
      "type": "function"
    },
    {
      "inputs": [
        {
          "internalType": "address",
          "name": "_companyAddress",
          "type": "address"
        }
      ],
      "name": "companyApplicationRejected",
      "outputs": [],
      "stateMutability": "nonpayable",
      "type": "function"
    },
    {
      "inputs": [
        {
          "internalType": "string",
          "name": "_registrationID",
          "type": "string"
        },
        {
          "internalType": "uint256",
          "name": "_tco2Reduction",
          "type": "uint256"
        },
        {
          "internalType": "uint256",
          "name": "_gntTokenBalance",
          "type": "uint256"
        },
        {
          "internalType": "string",
          "name": "_document_uri",
          "type": "string"
        }
      ],
      "name": "requestProjectVerification",
      "outputs": [],
      "stateMutability": "nonpayable",
      "type": "function"
    },
    {
      "inputs": [
        {
          "internalType": "address",
          "name": "_projectAddress",
          "type": "address"
        }
      ],
      "name": "projectApplicationVerified",
      "outputs": [],
      "stateMutability": "nonpayable",
      "type": "function"
    },
    {
      "inputs": [
        {
          "internalType": "address",
          "name": "_projectAddress",
          "type": "address"
        }
      ],
      "name": "projectApplicationRejected",
      "outputs": [],
      "stateMutability": "nonpayable",
      "type": "function"
    },
    {
      "inputs": [],
      "name": "pause",
      "outputs": [],
      "stateMutability": "nonpayable",
      "type": "function"
    },
    {
      "inputs": [],
      "name": "unpause",
      "outputs": [],
      "stateMutability": "nonpayable",
      "type": "function"
    }
  ],
  "bytecode": "0x60806040526001600755612ee06008553480156200001c57600080fd5b506040518060400160405280600a81526020017f477265656e546f6b656e000000000000000000000000000000000000000000008152506040518060400160405280600381526020017f474e5400000000000000000000000000000000000000000000000000000000008152508160039080519060200190620000a1929190620006ed565b508060049080519060200190620000ba929190620006ed565b5050506000600560006101000a81548160ff021916908315150217905550620000ed6000801b33620002fa60201b60201c565b6200011f7f0ce23c3e399818cfee81a7ab0880f714e53d7672b08df0fa62f2843416e1ea0933620002fa60201b60201c565b620001517f704c992d358ec8f6051d88e5bd9f92457afedcbc3e2d110fcd019b5eda48e52e33620002fa60201b60201c565b620001837f9e1688b53537f356172ce07f39e129155063957163c5f9462d4d9e55b228b06c33620002fa60201b60201c565b620001b57f99b4cb81d693045578a6795d2045a8e4a6dc2d789bd539397ae2ce05c660459933620002fa60201b60201c565b620002077f99b4cb81d693045578a6795d2045a8e4a6dc2d789bd539397ae2ce05c66045997f0ce23c3e399818cfee81a7ab0880f714e53d7672b08df0fa62f2843416e1ea09620003ec60201b60201c565b620002597f9e1688b53537f356172ce07f39e129155063957163c5f9462d4d9e55b228b06c7f0ce23c3e399818cfee81a7ab0880f714e53d7672b08df0fa62f2843416e1ea09620003ec60201b60201c565b620002ab7f0ce23c3e399818cfee81a7ab0880f714e53d7672b08df0fa62f2843416e1ea097f704c992d358ec8f6051d88e5bd9f92457afedcbc3e2d110fcd019b5eda48e52e620003ec60201b60201c565b620002e07f704c992d358ec8f6051d88e5bd9f92457afedcbc3e2d110fcd019b5eda48e52e6000801b620003ec60201b60201c565b620002f4336008546200045060201b60201c565b620009bb565b6200030c8282620005c960201b60201c565b620003e85760016006600084815260200190815260200160002060000160008373ffffffffffffffffffffffffffffffffffffffff1673ffffffffffffffffffffffffffffffffffffffff16815260200190815260200160002060006101000a81548160ff0219169083151502179055506200038d6200063460201b60201c565b73ffffffffffffffffffffffffffffffffffffffff168173ffffffffffffffffffffffffffffffffffffffff16837f2f8788117e7eff1d82e926ec794901d17c78024a50270940304540a733656f0d60405160405180910390a45b5050565b6000620003ff836200063c60201b60201c565b90508160066000858152602001908152602001600020600101819055508181847fbd79b86ffe0ab8e8776151514217cd7cacd52c909f66475c3af44e129f0b00ff60405160405180910390a4505050565b600073ffffffffffffffffffffffffffffffffffffffff168273ffffffffffffffffffffffffffffffffffffffff161415620004c3576040517f08c379a0000000000000000000000000000000000000000000000000000000008152600401620004ba906200081e565b60405180910390fd5b620004d7600083836200065c60201b60201c565b8060026000828254620004eb91906200086e565b92505081905550806000808473ffffffffffffffffffffffffffffffffffffffff1673ffffffffffffffffffffffffffffffffffffffff16815260200190815260200160002060008282546200054291906200086e565b925050819055508173ffffffffffffffffffffffffffffffffffffffff16600073ffffffffffffffffffffffffffffffffffffffff167fddf252ad1be2c89b69c2b068fc378daa952ba7f163c4a11628f55a4df523b3ef83604051620005a9919062000840565b60405180910390a3620005c560008383620006cc60201b60201c565b5050565b60006006600084815260200190815260200160002060000160008373ffffffffffffffffffffffffffffffffffffffff1673ffffffffffffffffffffffffffffffffffffffff16815260200190815260200160002060009054906101000a900460ff16905092915050565b600033905090565b600060066000838152602001908152602001600020600101549050919050565b6200066c620006d160201b60201c565b15620006af576040517f08c379a0000000000000000000000000000000000000000000000000000000008152600401620006a690620007fc565b60405180910390fd5b620006c7838383620006e860201b62001a651760201c565b505050565b505050565b6000600560009054906101000a900460ff16905090565b505050565b828054620006fb90620008d5565b90600052602060002090601f0160209004810192826200071f57600085556200076b565b82601f106200073a57805160ff19168380011785556200076b565b828001600101855582156200076b579182015b828111156200076a5782518255916020019190600101906200074d565b5b5090506200077a91906200077e565b5090565b5b80821115620007995760008160009055506001016200077f565b5090565b6000620007ac6010836200085d565b9150620007b98262000969565b602082019050919050565b6000620007d3601f836200085d565b9150620007e08262000992565b602082019050919050565b620007f681620008cb565b82525050565b6000602082019050818103600083015262000817816200079d565b9050919050565b600060208201905081810360008301526200083981620007c4565b9050919050565b6000602082019050620008576000830184620007eb565b92915050565b600082825260208201905092915050565b60006200087b82620008cb565b91506200088883620008cb565b9250827fffffffffffffffffffffffffffffffffffffffffffffffffffffffffffffffff03821115620008c057620008bf6200090b565b5b828201905092915050565b6000819050919050565b60006002820490506001821680620008ee57607f821691505b602082108114156200090557620009046200093a565b5b50919050565b7f4e487b7100000000000000000000000000000000000000000000000000000000600052601160045260246000fd5b7f4e487b7100000000000000000000000000000000000000000000000000000000600052602260045260246000fd5b7f5061757361626c653a2070617573656400000000000000000000000000000000600082015250565b7f45524332303a206d696e7420746f20746865207a65726f206164647265737300600082015250565b613c7080620009cb6000396000f3fe608060405234801561001057600080fd5b506004361061023d5760003560e01c80636bbc203d1161013b578063a64edfa7116100b8578063da33b01e1161007c578063da33b01e146106ba578063dd62ed3e146106d6578063e7705db614610706578063f4cc934a14610724578063fb24ed1c146107405761023d565b8063a64edfa71461062a578063a9059cbb14610634578063acc1e49c14610664578063d547741f14610680578063da04d2e01461069c5761023d565b806395d89b41116100ff57806395d89b411461056d5780639c39af011461058b5780639fe6678c146105be578063a217fddf146105dc578063a457c2d7146105fa5761023d565b80636bbc203d146104cb57806370a08231146104e757806379cc6790146105175780638456cb591461053357806391d148541461053d5761023d565b80632f2ff15d116101c9578063395093511161018d578063395093511461043b5780633f4ba83a1461046b57806342966c68146104755780635c975abb146104915780636847386c146104af5761023d565b80632f2ff15d146103945780632ff2e9dc146103b0578063313ce567146103ce57806331a37632146103ec57806336568abe1461041f5761023d565b80631058d500116102105780631058d500146102dc57806318160ddd146102f85780631c9ee11a1461031657806323b872dd14610334578063248a9ca3146103645761023d565b806301ffc9a7146102425780630337c0611461027257806306fdde031461028e578063095ea7b3146102ac575b600080fd5b61025c60048036038101906102579190612e0a565b61075c565b6040516102699190613254565b60405180910390f35b61028c60048036038101906102879190612cb5565b6107d6565b005b61029661088d565b6040516102a3919061328a565b60405180910390f35b6102c660048036038101906102c19190612d69565b61091f565b6040516102d39190613254565b60405180910390f35b6102f660048036038101906102f19190612e33565b610942565b005b610300610a83565b60405161030d91906134df565b60405180910390f35b61031e610a8d565b60405161032b919061326f565b60405180910390f35b61034e60048036038101906103499190612d1a565b610ab1565b60405161035b9190613254565b60405180910390f35b61037e60048036038101906103799190612da5565b610ae0565b60405161038b919061326f565b60405180910390f35b6103ae60048036038101906103a99190612dce565b610b00565b005b6103b8610b29565b6040516103c591906134df565b60405180910390f35b6103d6610b2f565b6040516103e391906134fa565b60405180910390f35b61040660048036038101906104019190612cb5565b610b38565b60405161041694939291906132ac565b60405180910390f35b61043960048036038101906104349190612dce565b610c78565b005b61045560048036038101906104509190612d69565b610cfb565b6040516104629190613254565b60405180910390f35b610473610da5565b005b61048f600480360381019061048a9190612ece565b610de2565b005b610499610df6565b6040516104a69190613254565b60405180910390f35b6104c960048036038101906104c49190612cb5565b610e0d565b005b6104e560048036038101906104e09190612e33565b610ebd565b005b61050160048036038101906104fc9190612cb5565b610ffe565b60405161050e91906134df565b60405180910390f35b610531600480360381019061052c9190612d69565b611046565b005b61053b611066565b005b61055760048036038101906105529190612dce565b6110a3565b6040516105649190613254565b60405180910390f35b61057561110e565b604051610582919061328a565b60405180910390f35b6105a560048036038101906105a09190612cb5565b6111a0565b6040516105b594939291906132ac565b60405180910390f35b6105c66112e0565b6040516105d3919061326f565b60405180910390f35b6105e4611304565b6040516105f1919061326f565b60405180910390f35b610614600480360381019061060f9190612d69565b61130b565b6040516106219190613254565b60405180910390f35b6106326113f5565b005b61064e60048036038101906106499190612d69565b61144f565b60405161065b9190613254565b60405180910390f35b61067e60048036038101906106799190612cb5565b611472565b005b61069a60048036038101906106959190612dce565b611681565b005b6106a46116aa565b6040516106b1919061326f565b60405180910390f35b6106d460048036038101906106cf9190612cb5565b6116ce565b005b6106f060048036038101906106eb9190612cde565b61175b565b6040516106fd91906134df565b60405180910390f35b61070e6117e2565b60405161071b919061326f565b60405180910390f35b61073e60048036038101906107399190612cb5565b611806565b005b61075a60048036038101906107559190612cb5565b6118b6565b005b60007f7965db0b000000000000000000000000000000000000000000000000000000007bffffffffffffffffffffffffffffffffffffffffffffffffffffffff1916827bffffffffffffffffffffffffffffffffffffffffffffffffffffffff191614806107cf57506107ce82611a6a565b5b9050919050565b6107ff7f0ce23c3e399818cfee81a7ab0880f714e53d7672b08df0fa62f2843416e1ea09610ae0565b6108108161080b611ad4565b611adc565b61083a7f0ce23c3e399818cfee81a7ab0880f714e53d7672b08df0fa62f2843416e1ea0983611b79565b600960008373ffffffffffffffffffffffffffffffffffffffff1673ffffffffffffffffffffffffffffffffffffffff16815260200190815260200160002060006101000a81549060ff02191690555050565b60606003805461089c90613708565b80601f01602080910402602001604051908101604052809291908181526020018280546108c890613708565b80156109155780601f106108ea57610100808354040283529160200191610915565b820191906000526020600020905b8154815290600101906020018083116108f857829003601f168201915b5050505050905090565b60008061092a611ad4565b9050610937818585611c5a565b600191505092915050565b604051806080016040528087878080601f016020809104026020016040519081016040528093929190818152602001838380828437600081840152601f19601f82011690508083019250505050505050815260200185815260200184815260200183838080601f016020809104026020016040519081016040528093929190818152602001838380828437600081840152601f19601f82011690508083019250505050505050815250600b60003373ffffffffffffffffffffffffffffffffffffffff1673ffffffffffffffffffffffffffffffffffffffff1681526020019081526020016000206000820151816000019080519060200190610a46929190612aa7565b5060208201518160010155604082015181600201556060820151816003019080519060200190610a77929190612aa7565b50905050505050505050565b6000600254905090565b7f9e1688b53537f356172ce07f39e129155063957163c5f9462d4d9e55b228b06c81565b600080610abc611ad4565b9050610ac9858285611e25565b610ad4858585611eb1565b60019150509392505050565b600060066000838152602001908152602001600020600101549050919050565b610b0982610ae0565b610b1a81610b15611ad4565b611adc565b610b248383611b79565b505050565b60085481565b60006012905090565b600c602052806000526040600020600091509050806000018054610b5b90613708565b80601f0160208091040260200160405190810160405280929190818152602001828054610b8790613708565b8015610bd45780601f10610ba957610100808354040283529160200191610bd4565b820191906000526020600020905b815481529060010190602001808311610bb757829003601f168201915b505050505090806001015490806002015490806003018054610bf590613708565b80601f0160208091040260200160405190810160405280929190818152602001828054610c2190613708565b8015610c6e5780601f10610c4357610100808354040283529160200191610c6e565b820191906000526020600020905b815481529060010190602001808311610c5157829003601f168201915b5050505050905084565b610c80611ad4565b73ffffffffffffffffffffffffffffffffffffffff168173ffffffffffffffffffffffffffffffffffffffff1614610ced576040517f08c379a0000000000000000000000000000000000000000000000000000000008152600401610ce49061349f565b60405180910390fd5b610cf78282612132565b5050565b600080610d06611ad4565b9050610d9a818585600160008673ffffffffffffffffffffffffffffffffffffffff1673ffffffffffffffffffffffffffffffffffffffff16815260200190815260200160002060008973ffffffffffffffffffffffffffffffffffffffff1673ffffffffffffffffffffffffffffffffffffffff16815260200190815260200160002054610d95919061353c565b611c5a565b600191505092915050565b7f704c992d358ec8f6051d88e5bd9f92457afedcbc3e2d110fcd019b5eda48e52e610dd781610dd2611ad4565b611adc565b610ddf612214565b50565b610df3610ded611ad4565b826122b6565b50565b6000600560009054906101000a900460ff16905090565b610e367f99b4cb81d693045578a6795d2045a8e4a6dc2d789bd539397ae2ce05c6604599610ae0565b610e4781610e42611ad4565b611adc565b600b60008373ffffffffffffffffffffffffffffffffffffffff1673ffffffffffffffffffffffffffffffffffffffff16815260200190815260200160002060008082016000610e979190612b2d565b60018201600090556002820160009055600382016000610eb79190612b2d565b50505050565b604051806080016040528087878080601f016020809104026020016040519081016040528093929190818152602001838380828437600081840152601f19601f82011690508083019250505050505050815260200185815260200184815260200183838080601f016020809104026020016040519081016040528093929190818152602001838380828437600081840152601f19601f82011690508083019250505050505050815250600a60003373ffffffffffffffffffffffffffffffffffffffff1673ffffffffffffffffffffffffffffffffffffffff1681526020019081526020016000206000820151816000019080519060200190610fc1929190612aa7565b5060208201518160010155604082015181600201556060820151816003019080519060200190610ff2929190612aa7565b50905050505050505050565b60008060008373ffffffffffffffffffffffffffffffffffffffff1673ffffffffffffffffffffffffffffffffffffffff168152602001908152602001600020549050919050565b61105882611052611ad4565b83611e25565b61106282826122b6565b5050565b7f704c992d358ec8f6051d88e5bd9f92457afedcbc3e2d110fcd019b5eda48e52e61109881611093611ad4565b611adc565b6110a061248d565b50565b60006006600084815260200190815260200160002060000160008373ffffffffffffffffffffffffffffffffffffffff1673ffffffffffffffffffffffffffffffffffffffff16815260200190815260200160002060009054906101000a900460ff16905092915050565b60606004805461111d90613708565b80601f016020809104026020016040519081016040528092919081815260200182805461114990613708565b80156111965780601f1061116b57610100808354040283529160200191611196565b820191906000526020600020905b81548152906001019060200180831161117957829003601f168201915b5050505050905090565b600d6020528060005260406000206000915090508060000180546111c390613708565b80601f01602080910402602001604051908101604052809291908181526020018280546111ef90613708565b801561123c5780601f106112115761010080835404028352916020019161123c565b820191906000526020600020905b81548152906001019060200180831161121f57829003601f168201915b50505050509080600101549080600201549080600301805461125d90613708565b80601f016020809104026020016040519081016040528092919081815260200182805461128990613708565b80156112d65780601f106112ab576101008083540402835291602001916112d6565b820191906000526020600020905b8154815290600101906020018083116112b957829003601f168201915b5050505050905084565b7f99b4cb81d693045578a6795d2045a8e4a6dc2d789bd539397ae2ce05c660459981565b6000801b81565b600080611316611ad4565b90506000600160008373ffffffffffffffffffffffffffffffffffffffff1673ffffffffffffffffffffffffffffffffffffffff16815260200190815260200160002060008673ffffffffffffffffffffffffffffffffffffffff1673ffffffffffffffffffffffffffffffffffffffff168152602001908152602001600020549050838110156113dc576040517f08c379a00000000000000000000000000000000000000000000000000000000081526004016113d39061347f565b60405180910390fd5b6113e98286868403611c5a565b60019250505092915050565b6001600960003373ffffffffffffffffffffffffffffffffffffffff1673ffffffffffffffffffffffffffffffffffffffff16815260200190815260200160002060006101000a81548160ff021916908315150217905550565b60008061145a611ad4565b9050611467818585611eb1565b600191505092915050565b61149b7f99b4cb81d693045578a6795d2045a8e4a6dc2d789bd539397ae2ce05c6604599610ae0565b6114ac816114a7611ad4565b611adc565b6114d67f99b4cb81d693045578a6795d2045a8e4a6dc2d789bd539397ae2ce05c660459983611b79565b600b60008373ffffffffffffffffffffffffffffffffffffffff1673ffffffffffffffffffffffffffffffffffffffff168152602001908152602001600020600d60008473ffffffffffffffffffffffffffffffffffffffff1673ffffffffffffffffffffffffffffffffffffffff168152602001908152602001600020600082018160000190805461156890613708565b611573929190612b6d565b506001820154816001015560028201548160020155600382018160030190805461159c90613708565b6115a7929190612b6d565b50905050600b60008373ffffffffffffffffffffffffffffffffffffffff1673ffffffffffffffffffffffffffffffffffffffff168152602001908152602001600020600080820160006115fb9190612b2d565b6001820160009055600282016000905560038201600061161b9190612b2d565b505061167d82611678600754600d60008773ffffffffffffffffffffffffffffffffffffffff1673ffffffffffffffffffffffffffffffffffffffff1681526020019081526020016000206001015461253090919063ffffffff16565b612546565b5050565b61168a82610ae0565b61169b81611696611ad4565b611adc565b6116a58383612132565b505050565b7f704c992d358ec8f6051d88e5bd9f92457afedcbc3e2d110fcd019b5eda48e52e81565b6116f77f0ce23c3e399818cfee81a7ab0880f714e53d7672b08df0fa62f2843416e1ea09610ae0565b61170881611703611ad4565b611adc565b600960008373ffffffffffffffffffffffffffffffffffffffff1673ffffffffffffffffffffffffffffffffffffffff16815260200190815260200160002060006101000a81549060ff02191690555050565b6000600160008473ffffffffffffffffffffffffffffffffffffffff1673ffffffffffffffffffffffffffffffffffffffff16815260200190815260200160002060008373ffffffffffffffffffffffffffffffffffffffff1673ffffffffffffffffffffffffffffffffffffffff16815260200190815260200160002054905092915050565b7f0ce23c3e399818cfee81a7ab0880f714e53d7672b08df0fa62f2843416e1ea0981565b61182f7f9e1688b53537f356172ce07f39e129155063957163c5f9462d4d9e55b228b06c610ae0565b6118408161183b611ad4565b611adc565b600a60008373ffffffffffffffffffffffffffffffffffffffff1673ffffffffffffffffffffffffffffffffffffffff168152602001908152602001600020600080820160006118909190612b2d565b600182016000905560028201600090556003820160006118b09190612b2d565b50505050565b6118df7f9e1688b53537f356172ce07f39e129155063957163c5f9462d4d9e55b228b06c610ae0565b6118f0816118eb611ad4565b611adc565b61191a7f9e1688b53537f356172ce07f39e129155063957163c5f9462d4d9e55b228b06c83611b79565b600a60008373ffffffffffffffffffffffffffffffffffffffff1673ffffffffffffffffffffffffffffffffffffffff168152602001908152602001600020600c60008473ffffffffffffffffffffffffffffffffffffffff1673ffffffffffffffffffffffffffffffffffffffff16815260200190815260200160002060008201816000019080546119ac90613708565b6119b7929190612b6d565b50600182015481600101556002820154816002015560038201816003019080546119e090613708565b6119eb929190612b6d565b50905050600a60008373ffffffffffffffffffffffffffffffffffffffff1673ffffffffffffffffffffffffffffffffffffffff16815260200190815260200160002060008082016000611a3f9190612b2d565b60018201600090556002820160009055600382016000611a5f9190612b2d565b50505050565b505050565b60007f01ffc9a7000000000000000000000000000000000000000000000000000000007bffffffffffffffffffffffffffffffffffffffffffffffffffffffff1916827bffffffffffffffffffffffffffffffffffffffffffffffffffffffff1916149050919050565b600033905090565b611ae682826110a3565b611b7557611b0b8173ffffffffffffffffffffffffffffffffffffffff1660146125f0565b611b198360001c60206125f0565b604051602001611b2a9291906131ff565b6040516020818303038152906040526040517f08c379a0000000000000000000000000000000000000000000000000000000008152600401611b6c919061328a565b60405180910390fd5b5050565b611b8382826110a3565b611c565760016006600084815260200190815260200160002060000160008373ffffffffffffffffffffffffffffffffffffffff1673ffffffffffffffffffffffffffffffffffffffff16815260200190815260200160002060006101000a81548160ff021916908315150217905550611bfb611ad4565b73ffffffffffffffffffffffffffffffffffffffff168173ffffffffffffffffffffffffffffffffffffffff16837f2f8788117e7eff1d82e926ec794901d17c78024a50270940304540a733656f0d60405160405180910390a45b5050565b600073ffffffffffffffffffffffffffffffffffffffff168373ffffffffffffffffffffffffffffffffffffffff161415611cca576040517f08c379a0000000000000000000000000000000000000000000000000000000008152600401611cc19061345f565b60405180910390fd5b600073ffffffffffffffffffffffffffffffffffffffff168273ffffffffffffffffffffffffffffffffffffffff161415611d3a576040517f08c379a0000000000000000000000000000000000000000000000000000000008152600401611d319061337f565b60405180910390fd5b80600160008573ffffffffffffffffffffffffffffffffffffffff1673ffffffffffffffffffffffffffffffffffffffff16815260200190815260200160002060008473ffffffffffffffffffffffffffffffffffffffff1673ffffffffffffffffffffffffffffffffffffffff168152602001908152602001600020819055508173ffffffffffffffffffffffffffffffffffffffff168373ffffffffffffffffffffffffffffffffffffffff167f8c5be1e5ebec7d5bd14f71427d1e84f3dd0314c0f7b2291e5b200ac8c7c3b92583604051611e1891906134df565b60405180910390a3505050565b6000611e31848461175b565b90507fffffffffffffffffffffffffffffffffffffffffffffffffffffffffffffffff8114611eab5781811015611e9d576040517f08c379a0000000000000000000000000000000000000000000000000000000008152600401611e94906133bf565b60405180910390fd5b611eaa8484848403611c5a565b5b50505050565b600073ffffffffffffffffffffffffffffffffffffffff168373ffffffffffffffffffffffffffffffffffffffff161415611f21576040517f08c379a0000000000000000000000000000000000000000000000000000000008152600401611f189061343f565b60405180910390fd5b600073ffffffffffffffffffffffffffffffffffffffff168273ffffffffffffffffffffffffffffffffffffffff161415611f91576040517f08c379a0000000000000000000000000000000000000000000000000000000008152600401611f889061331f565b60405180910390fd5b611f9c8383836128ea565b60008060008573ffffffffffffffffffffffffffffffffffffffff1673ffffffffffffffffffffffffffffffffffffffff16815260200190815260200160002054905081811015612022576040517f08c379a0000000000000000000000000000000000000000000000000000000008152600401612019906133df565b60405180910390fd5b8181036000808673ffffffffffffffffffffffffffffffffffffffff1673ffffffffffffffffffffffffffffffffffffffff16815260200190815260200160002081905550816000808573ffffffffffffffffffffffffffffffffffffffff1673ffffffffffffffffffffffffffffffffffffffff16815260200190815260200160002060008282546120b5919061353c565b925050819055508273ffffffffffffffffffffffffffffffffffffffff168473ffffffffffffffffffffffffffffffffffffffff167fddf252ad1be2c89b69c2b068fc378daa952ba7f163c4a11628f55a4df523b3ef8460405161211991906134df565b60405180910390a361212c848484612942565b50505050565b61213c82826110a3565b156122105760006006600084815260200190815260200160002060000160008373ffffffffffffffffffffffffffffffffffffffff1673ffffffffffffffffffffffffffffffffffffffff16815260200190815260200160002060006101000a81548160ff0219169083151502179055506121b5611ad4565b73ffffffffffffffffffffffffffffffffffffffff168173ffffffffffffffffffffffffffffffffffffffff16837ff6391f5c32d9c69d2a47ea670b442974b53935d1edc7fd64eb21e047a839171b60405160405180910390a45b5050565b61221c610df6565b61225b576040517f08c379a00000000000000000000000000000000000000000000000000000000081526004016122529061333f565b60405180910390fd5b6000600560006101000a81548160ff0219169083151502179055507f5db9ee0a495bf2e6ff9c91a7834c1ba4fdd244a5e8aa4e537bd38aeae4b073aa61229f611ad4565b6040516122ac9190613239565b60405180910390a1565b600073ffffffffffffffffffffffffffffffffffffffff168273ffffffffffffffffffffffffffffffffffffffff161415612326576040517f08c379a000000000000000000000000000000000000000000000000000000000815260040161231d9061341f565b60405180910390fd5b612332826000836128ea565b60008060008473ffffffffffffffffffffffffffffffffffffffff1673ffffffffffffffffffffffffffffffffffffffff168152602001908152602001600020549050818110156123b8576040517f08c379a00000000000000000000000000000000000000000000000000000000081526004016123af9061335f565b60405180910390fd5b8181036000808573ffffffffffffffffffffffffffffffffffffffff1673ffffffffffffffffffffffffffffffffffffffff16815260200190815260200160002081905550816002600082825461240f91906135ec565b92505081905550600073ffffffffffffffffffffffffffffffffffffffff168373ffffffffffffffffffffffffffffffffffffffff167fddf252ad1be2c89b69c2b068fc378daa952ba7f163c4a11628f55a4df523b3ef8460405161247491906134df565b60405180910390a361248883600084612942565b505050565b612495610df6565b156124d5576040517f08c379a00000000000000000000000000000000000000000000000000000000081526004016124cc906133ff565b60405180910390fd5b6001600560006101000a81548160ff0219169083151502179055507f62e78cea01bee320cd4e420270b5ea74000d11b0c9f74754ebdbfc544b05a258612519611ad4565b6040516125269190613239565b60405180910390a1565b6000818361253e9190613592565b905092915050565b7f0ce23c3e399818cfee81a7ab0880f714e53d7672b08df0fa62f2843416e1ea0961257881612573611ad4565b611adc565b6125a27f99b4cb81d693045578a6795d2045a8e4a6dc2d789bd539397ae2ce05c6604599846110a3565b6125e1576040517f08c379a00000000000000000000000000000000000000000000000000000000081526004016125d89061339f565b60405180910390fd5b6125eb8383612947565b505050565b6060600060028360026126039190613592565b61260d919061353c565b67ffffffffffffffff81111561264c577f4e487b7100000000000000000000000000000000000000000000000000000000600052604160045260246000fd5b6040519080825280601f01601f19166020018201604052801561267e5781602001600182028036833780820191505090505b5090507f3000000000000000000000000000000000000000000000000000000000000000816000815181106126dc577f4e487b7100000000000000000000000000000000000000000000000000000000600052603260045260246000fd5b60200101907effffffffffffffffffffffffffffffffffffffffffffffffffffffffffffff1916908160001a9053507f780000000000000000000000000000000000000000000000000000000000000081600181518110612766577f4e487b7100000000000000000000000000000000000000000000000000000000600052603260045260246000fd5b60200101907effffffffffffffffffffffffffffffffffffffffffffffffffffffffffffff1916908160001a905350600060018460026127a69190613592565b6127b0919061353c565b90505b600181111561289c577f3031323334353637383961626364656600000000000000000000000000000000600f861660108110612818577f4e487b7100000000000000000000000000000000000000000000000000000000600052603260045260246000fd5b1a60f81b828281518110612855577f4e487b7100000000000000000000000000000000000000000000000000000000600052603260045260246000fd5b60200101907effffffffffffffffffffffffffffffffffffffffffffffffffffffffffffff1916908160001a905350600485901c945080612895906136de565b90506127b3565b50600084146128e0576040517f08c379a00000000000000000000000000000000000000000000000000000000081526004016128d7906132ff565b60405180910390fd5b8091505092915050565b6128f2610df6565b15612932576040517f08c379a0000000000000000000000000000000000000000000000000000000008152600401612929906133ff565b60405180910390fd5b61293d838383611a65565b505050565b505050565b600073ffffffffffffffffffffffffffffffffffffffff168273ffffffffffffffffffffffffffffffffffffffff1614156129b7576040517f08c379a00000000000000000000000000000000000000000000000000000000081526004016129ae906134bf565b60405180910390fd5b6129c3600083836128ea565b80600260008282546129d5919061353c565b92505081905550806000808473ffffffffffffffffffffffffffffffffffffffff1673ffffffffffffffffffffffffffffffffffffffff1681526020019081526020016000206000828254612a2a919061353c565b925050819055508173ffffffffffffffffffffffffffffffffffffffff16600073ffffffffffffffffffffffffffffffffffffffff167fddf252ad1be2c89b69c2b068fc378daa952ba7f163c4a11628f55a4df523b3ef83604051612a8f91906134df565b60405180910390a3612aa360008383612942565b5050565b828054612ab390613708565b90600052602060002090601f016020900481019282612ad55760008555612b1c565b82601f10612aee57805160ff1916838001178555612b1c565b82800160010185558215612b1c579182015b82811115612b1b578251825591602001919060010190612b00565b5b509050612b299190612bfa565b5090565b508054612b3990613708565b6000825580601f10612b4b5750612b6a565b601f016020900490600052602060002090810190612b699190612bfa565b5b50565b828054612b7990613708565b90600052602060002090601f016020900481019282612b9b5760008555612be9565b82601f10612bac5780548555612be9565b82800160010185558215612be957600052602060002091601f016020900482015b82811115612be8578254825591600101919060010190612bcd565b5b509050612bf69190612bfa565b5090565b5b80821115612c13576000816000905550600101612bfb565b5090565b600081359050612c2681613bde565b92915050565b600081359050612c3b81613bf5565b92915050565b600081359050612c5081613c0c565b92915050565b60008083601f840112612c6857600080fd5b8235905067ffffffffffffffff811115612c8157600080fd5b602083019150836001820283011115612c9957600080fd5b9250929050565b600081359050612caf81613c23565b92915050565b600060208284031215612cc757600080fd5b6000612cd584828501612c17565b91505092915050565b60008060408385031215612cf157600080fd5b6000612cff85828601612c17565b9250506020612d1085828601612c17565b9150509250929050565b600080600060608486031215612d2f57600080fd5b6000612d3d86828701612c17565b9350506020612d4e86828701612c17565b9250506040612d5f86828701612ca0565b9150509250925092565b60008060408385031215612d7c57600080fd5b6000612d8a85828601612c17565b9250506020612d9b85828601612ca0565b9150509250929050565b600060208284031215612db757600080fd5b6000612dc584828501612c2c565b91505092915050565b60008060408385031215612de157600080fd5b6000612def85828601612c2c565b9250506020612e0085828601612c17565b9150509250929050565b600060208284031215612e1c57600080fd5b6000612e2a84828501612c41565b91505092915050565b60008060008060008060808789031215612e4c57600080fd5b600087013567ffffffffffffffff811115612e6657600080fd5b612e7289828a01612c56565b96509650506020612e8589828a01612ca0565b9450506040612e9689828a01612ca0565b935050606087013567ffffffffffffffff811115612eb357600080fd5b612ebf89828a01612c56565b92509250509295509295509295565b600060208284031215612ee057600080fd5b6000612eee84828501612ca0565b91505092915050565b612f0081613620565b82525050565b612f0f81613632565b82525050565b612f1e8161363e565b82525050565b6000612f2f82613515565b612f398185613520565b9350612f498185602086016136ab565b612f5281613798565b840191505092915050565b6000612f6882613515565b612f728185613531565b9350612f828185602086016136ab565b80840191505092915050565b6000612f9b602083613520565b9150612fa6826137a9565b602082019050919050565b6000612fbe602383613520565b9150612fc9826137d2565b604082019050919050565b6000612fe1601483613520565b9150612fec82613821565b602082019050919050565b6000613004602283613520565b915061300f8261384a565b604082019050919050565b6000613027602283613520565b915061303282613899565b604082019050919050565b600061304a602183613520565b9150613055826138e8565b604082019050919050565b600061306d601d83613520565b915061307882613937565b602082019050919050565b6000613090602683613520565b915061309b82613960565b604082019050919050565b60006130b3601083613520565b91506130be826139af565b602082019050919050565b60006130d6602183613520565b91506130e1826139d8565b604082019050919050565b60006130f9602583613520565b915061310482613a27565b604082019050919050565b600061311c602483613520565b915061312782613a76565b604082019050919050565b600061313f601783613531565b915061314a82613ac5565b601782019050919050565b6000613162602583613520565b915061316d82613aee565b604082019050919050565b6000613185601183613531565b915061319082613b3d565b601182019050919050565b60006131a8602f83613520565b91506131b382613b66565b604082019050919050565b60006131cb601f83613520565b91506131d682613bb5565b602082019050919050565b6131ea81613694565b82525050565b6131f98161369e565b82525050565b600061320a82613132565b91506132168285612f5d565b915061322182613178565b915061322d8284612f5d565b91508190509392505050565b600060208201905061324e6000830184612ef7565b92915050565b60006020820190506132696000830184612f06565b92915050565b60006020820190506132846000830184612f15565b92915050565b600060208201905081810360008301526132a48184612f24565b905092915050565b600060808201905081810360008301526132c68187612f24565b90506132d560208301866131e1565b6132e260408301856131e1565b81810360608301526132f48184612f24565b905095945050505050565b6000602082019050818103600083015261331881612f8e565b9050919050565b6000602082019050818103600083015261333881612fb1565b9050919050565b6000602082019050818103600083015261335881612fd4565b9050919050565b6000602082019050818103600083015261337881612ff7565b9050919050565b600060208201905081810360008301526133988161301a565b9050919050565b600060208201905081810360008301526133b88161303d565b9050919050565b600060208201905081810360008301526133d881613060565b9050919050565b600060208201905081810360008301526133f881613083565b9050919050565b60006020820190508181036000830152613418816130a6565b9050919050565b60006020820190508181036000830152613438816130c9565b9050919050565b60006020820190508181036000830152613458816130ec565b9050919050565b600060208201905081810360008301526134788161310f565b9050919050565b6000602082019050818103600083015261349881613155565b9050919050565b600060208201905081810360008301526134b88161319b565b9050919050565b600060208201905081810360008301526134d8816131be565b9050919050565b60006020820190506134f460008301846131e1565b92915050565b600060208201905061350f60008301846131f0565b92915050565b600081519050919050565b600082825260208201905092915050565b600081905092915050565b600061354782613694565b915061355283613694565b9250827fffffffffffffffffffffffffffffffffffffffffffffffffffffffffffffffff038211156135875761358661373a565b5b828201905092915050565b600061359d82613694565b91506135a883613694565b9250817fffffffffffffffffffffffffffffffffffffffffffffffffffffffffffffffff04831182151516156135e1576135e061373a565b5b828202905092915050565b60006135f782613694565b915061360283613694565b9250828210156136155761361461373a565b5b828203905092915050565b600061362b82613674565b9050919050565b60008115159050919050565b6000819050919050565b60007fffffffff0000000000000000000000000000000000000000000000000000000082169050919050565b600073ffffffffffffffffffffffffffffffffffffffff82169050919050565b6000819050919050565b600060ff82169050919050565b60005b838110156136c95780820151818401526020810190506136ae565b838111156136d8576000848401525b50505050565b60006136e982613694565b915060008214156136fd576136fc61373a565b5b600182039050919050565b6000600282049050600182168061372057607f821691505b6020821081141561373457613733613769565b5b50919050565b7f4e487b7100000000000000000000000000000000000000000000000000000000600052601160045260246000fd5b7f4e487b7100000000000000000000000000000000000000000000000000000000600052602260045260246000fd5b6000601f19601f8301169050919050565b7f537472696e67733a20686578206c656e67746820696e73756666696369656e74600082015250565b7f45524332303a207472616e7366657220746f20746865207a65726f206164647260008201527f6573730000000000000000000000000000000000000000000000000000000000602082015250565b7f5061757361626c653a206e6f7420706175736564000000000000000000000000600082015250565b7f45524332303a206275726e20616d6f756e7420657863656564732062616c616e60008201527f6365000000000000000000000000000000000000000000000000000000000000602082015250565b7f45524332303a20617070726f766520746f20746865207a65726f20616464726560008201527f7373000000000000000000000000000000000000000000000000000000000000602082015250565b7f61646472657373206973206e6f7420612076657269666965642070726f6a656360008201527f7400000000000000000000000000000000000000000000000000000000000000602082015250565b7f45524332303a20696e73756666696369656e7420616c6c6f77616e6365000000600082015250565b7f45524332303a207472616e7366657220616d6f756e742065786365656473206260008201527f616c616e63650000000000000000000000000000000000000000000000000000602082015250565b7f5061757361626c653a2070617573656400000000000000000000000000000000600082015250565b7f45524332303a206275726e2066726f6d20746865207a65726f2061646472657360008201527f7300000000000000000000000000000000000000000000000000000000000000602082015250565b7f45524332303a207472616e736665722066726f6d20746865207a65726f20616460008201527f6472657373000000000000000000000000000000000000000000000000000000602082015250565b7f45524332303a20617070726f76652066726f6d20746865207a65726f2061646460008201527f7265737300000000000000000000000000000000000000000000000000000000602082015250565b7f416363657373436f6e74726f6c3a206163636f756e7420000000000000000000600082015250565b7f45524332303a2064656372656173656420616c6c6f77616e63652062656c6f7760008201527f207a65726f000000000000000000000000000000000000000000000000000000602082015250565b7f206973206d697373696e6720726f6c6520000000000000000000000000000000600082015250565b7f416363657373436f6e74726f6c3a2063616e206f6e6c792072656e6f756e636560008201527f20726f6c657320666f722073656c660000000000000000000000000000000000602082015250565b7f45524332303a206d696e7420746f20746865207a65726f206164647265737300600082015250565b613be781613620565b8114613bf257600080fd5b50565b613bfe8161363e565b8114613c0957600080fd5b50565b613c1581613648565b8114613c2057600080fd5b50565b613c2c81613694565b8114613c3757600080fd5b5056fea26469706673582212201b7e520fb0adb6b7e6571fe635161cdefe70ff5a369c172146a5ccd972e6225764736f6c63430008030033",
  "immutableReferences": {},
  "source": "// SPDX-License-Identifier: MIT\npragma solidity >=0.4.22 <0.9.0;\n// ERC20 for token\n// ERC721 will be required for nft receipt\n// Burnable is required for yearly burning\n// Access control for assigning responsibilities\n\nimport \"../node_modules/@openzeppelin/contracts/token/ERC20/ERC20.sol\";\nimport \"../node_modules/@openzeppelin/contracts/token/ERC20/extensions/ERC20Burnable.sol\";\nimport \"../node_modules/@openzeppelin/contracts/security/Pausable.sol\";\nimport \"../node_modules/@openzeppelin/contracts/access/AccessControl.sol\";\nimport \"../node_modules/@openzeppelin/contracts/utils/math/SafeMath.sol\";\n\ncontract GreenToken is ERC20, ERC20Burnable, Pausable, AccessControl {\n    using SafeMath for uint256;\n    //Create roles\n    bytes32 public constant VERIFIER_ROLE = keccak256(\"VERIFIER_ROLE\");\n    bytes32 public constant GOVERNER_ROLE = keccak256(\"GOVERNER_ROLE\");\n    bytes32 public constant COMPANY_ROLE = keccak256(\"COMPANY_ROLE\");\n    bytes32 public constant PROJECT_ROLE = keccak256(\"PROJECT_ROLE\");\n\n    uint256 Rate =1;\n    uint public INITIAL_SUPPLY = 12000;\n    enum Roles{ GOV, VALIDATOR, COMPANY, PROJECT }\n\n    //list of addresses requesting verification\n    //Should be poped out once they are analysed\n    // address[] private addressesRequestingVerifierRole;\n    mapping(address => bool) private addressesRequestingVerifierRole;\n\n\n\n    struct KYC_Company {\n        string registrationID;\n        uint256 tco2Emission;\n        uint256 gntTokenBalance;\n        string document_uri;\n    }\n\n    \n    struct KYC_Project {\n        string registrationID;\n        uint256 tco2Reduction;\n        uint256 gntTokenBalance;\n        string document_uri;\n    }\n    mapping(address => KYC_Company) private addressesRequestingCompanyVerification;\n    mapping(address => KYC_Project) private addressesRequestingProjectVerification;\n\n    mapping(address => KYC_Company) public verifiedCompanies;\n    mapping(address => KYC_Project) public verifiedProjects;\n\n    constructor() ERC20(\"GreenToken\", \"GNT\") {\n        //assign all initial roles to contract creator\n        _grantRole(DEFAULT_ADMIN_ROLE, msg.sender);\n        _grantRole(VERIFIER_ROLE, msg.sender);\n        _grantRole(GOVERNER_ROLE, msg.sender);\n        _grantRole(COMPANY_ROLE, msg.sender);\n        _grantRole(PROJECT_ROLE, msg.sender);\n\n        _setRoleAdmin(PROJECT_ROLE,VERIFIER_ROLE);\n        _setRoleAdmin(COMPANY_ROLE,VERIFIER_ROLE);\n        _setRoleAdmin(VERIFIER_ROLE,GOVERNER_ROLE);\n        _setRoleAdmin(GOVERNER_ROLE,DEFAULT_ADMIN_ROLE);\n\n        //mint init token\n        _mint(msg.sender, INITIAL_SUPPLY);\n    }\n\n    //request verifier role\n    function requestVerifierRole() public{\n        addressesRequestingVerifierRole[msg.sender]=true;\n    }\n\n    //grant verifier  role\n    function grantVerifierRole(address applicantAddress) public onlyRole(getRoleAdmin(VERIFIER_ROLE)){\n        _grantRole(VERIFIER_ROLE,applicantAddress);\n        delete addressesRequestingVerifierRole[applicantAddress];\n    }\n\n    //Reject verifier application\n    function rejectVerifierApplication(address applicantAddress) public onlyRole(getRoleAdmin(VERIFIER_ROLE)){\n        delete addressesRequestingVerifierRole[applicantAddress];\n    }\n\n\n    //Company request to review their CO2 emission\n    //change memory to calldata?\n    function requestCompanyVerification( string calldata _registrationID, uint256 _tco2Emission, uint256 _gntTokenBalance, string calldata _document_uri) public{\n        //save in addressesRequestingCompanyVerification\n        addressesRequestingCompanyVerification[msg.sender]= KYC_Company(_registrationID, _tco2Emission, _gntTokenBalance, _document_uri);\n    }\n                \n    //Accept company request\n\n    function companyApplicationVerified(address _companyAddress) public onlyRole(getRoleAdmin(COMPANY_ROLE)){\n        _grantRole(COMPANY_ROLE,_companyAddress);\n        //add to verified company list\n        verifiedCompanies[_companyAddress] = addressesRequestingCompanyVerification[_companyAddress];\n        //verify if it is a copy or just referncing otherwise after delete phase, the data will be removed from verified compan yas ell\n        delete addressesRequestingCompanyVerification[_companyAddress];\n\n        //emit event to be done\n    }\n\n    //Reject company request\n    function companyApplicationRejected(address _companyAddress) public onlyRole(getRoleAdmin(COMPANY_ROLE)){\n        delete addressesRequestingCompanyVerification[_companyAddress];\n            //emit event to be done\n\n    }\n\n\n\n\n    //Project request to review their CO2 offset\n\n     function requestProjectVerification( string calldata _registrationID, uint256 _tco2Reduction, uint256 _gntTokenBalance, string calldata _document_uri) public{\n        //save in addressesRequestingProjectVerification\n        addressesRequestingProjectVerification[msg.sender]= KYC_Project(_registrationID, _tco2Reduction, _gntTokenBalance, _document_uri);\n    }\n    \n    //Accept project requet\n    function projectApplicationVerified(address _projectAddress) public onlyRole(getRoleAdmin(PROJECT_ROLE)){\n        _grantRole(PROJECT_ROLE,_projectAddress);\n        //add to verified project list\n        verifiedProjects[_projectAddress] = addressesRequestingProjectVerification[_projectAddress];\n        //verify if it is a copy or just referncing otherwise after delete phase, the data will be removed from verified compan yas ell\n        delete addressesRequestingProjectVerification[_projectAddress];\n\n        //mint equivalent tokens\n        mint(_projectAddress, (verifiedProjects[_projectAddress].tco2Reduction).mul(Rate));\n        //emit event to be done\n    }\n\n    //Reject proejct request\n    function projectApplicationRejected(address _projectAddress) public onlyRole(getRoleAdmin(PROJECT_ROLE)){\n        delete addressesRequestingProjectVerification[_projectAddress];\n            //emit event to be done\n\n    }\n\n\n\n    function pause() public onlyRole(GOVERNER_ROLE) {\n        _pause();\n    }\n\n    function unpause() public onlyRole(GOVERNER_ROLE) {\n        _unpause();\n    }\n\n    // Mint function is private since, it will be called by another func\n    function mint(address to, uint256 amount) private onlyRole(VERIFIER_ROLE) {\n        // Pop out the specific address\n        \n        require(hasRole(PROJECT_ROLE,to), \"address is not a verified project\");\n        _mint(to, amount);\n    }\n\n\n\n\n    // function transfer(address to, uint256 amount) public onlyRole(VERIFIER_ROLE){\n        \n    // }\n\n\n    function _beforeTokenTransfer(address from, address to, uint256 amount)\n        internal\n        whenNotPaused\n        override\n    {\n        super._beforeTokenTransfer(from, to, amount);\n    }\n}\n",
  "sourcePath": "C:\\Users\\rahul\\Documents\\GitHub\\CCT_NetZero\\contracts\\GreenToken.sol",
  "compiler": {
    "name": "solc",
    "version": "0.8.3+commit.8d00100c.Emscripten.clang"
  },
  "schemaVersion": "3.4.4",
  "updatedAt": "2022-04-06T16:33:44.888Z",
  "networkType": "ethereum",
  "devdoc": {
    "kind": "dev",
    "methods": {
      "allowance(address,address)": {
        "details": "See {IERC20-allowance}."
      },
      "approve(address,uint256)": {
        "details": "See {IERC20-approve}. NOTE: If `amount` is the maximum `uint256`, the allowance is not updated on `transferFrom`. This is semantically equivalent to an infinite approval. Requirements: - `spender` cannot be the zero address."
      },
      "balanceOf(address)": {
        "details": "See {IERC20-balanceOf}."
      },
      "burn(uint256)": {
        "details": "Destroys `amount` tokens from the caller. See {ERC20-_burn}."
      },
      "burnFrom(address,uint256)": {
        "details": "Destroys `amount` tokens from `account`, deducting from the caller's allowance. See {ERC20-_burn} and {ERC20-allowance}. Requirements: - the caller must have allowance for ``accounts``'s tokens of at least `amount`."
      },
      "decimals()": {
        "details": "Returns the number of decimals used to get its user representation. For example, if `decimals` equals `2`, a balance of `505` tokens should be displayed to a user as `5.05` (`505 / 10 ** 2`). Tokens usually opt for a value of 18, imitating the relationship between Ether and Wei. This is the value {ERC20} uses, unless this function is overridden; NOTE: This information is only used for _display_ purposes: it in no way affects any of the arithmetic of the contract, including {IERC20-balanceOf} and {IERC20-transfer}."
      },
      "decreaseAllowance(address,uint256)": {
        "details": "Atomically decreases the allowance granted to `spender` by the caller. This is an alternative to {approve} that can be used as a mitigation for problems described in {IERC20-approve}. Emits an {Approval} event indicating the updated allowance. Requirements: - `spender` cannot be the zero address. - `spender` must have allowance for the caller of at least `subtractedValue`."
      },
      "getRoleAdmin(bytes32)": {
        "details": "Returns the admin role that controls `role`. See {grantRole} and {revokeRole}. To change a role's admin, use {_setRoleAdmin}."
      },
      "grantRole(bytes32,address)": {
        "details": "Grants `role` to `account`. If `account` had not been already granted `role`, emits a {RoleGranted} event. Requirements: - the caller must have ``role``'s admin role."
      },
      "hasRole(bytes32,address)": {
        "details": "Returns `true` if `account` has been granted `role`."
      },
      "increaseAllowance(address,uint256)": {
        "details": "Atomically increases the allowance granted to `spender` by the caller. This is an alternative to {approve} that can be used as a mitigation for problems described in {IERC20-approve}. Emits an {Approval} event indicating the updated allowance. Requirements: - `spender` cannot be the zero address."
      },
      "name()": {
        "details": "Returns the name of the token."
      },
      "paused()": {
        "details": "Returns true if the contract is paused, and false otherwise."
      },
      "renounceRole(bytes32,address)": {
        "details": "Revokes `role` from the calling account. Roles are often managed via {grantRole} and {revokeRole}: this function's purpose is to provide a mechanism for accounts to lose their privileges if they are compromised (such as when a trusted device is misplaced). If the calling account had been revoked `role`, emits a {RoleRevoked} event. Requirements: - the caller must be `account`."
      },
      "revokeRole(bytes32,address)": {
        "details": "Revokes `role` from `account`. If `account` had been granted `role`, emits a {RoleRevoked} event. Requirements: - the caller must have ``role``'s admin role."
      },
      "supportsInterface(bytes4)": {
        "details": "See {IERC165-supportsInterface}."
      },
      "symbol()": {
        "details": "Returns the symbol of the token, usually a shorter version of the name."
      },
      "totalSupply()": {
        "details": "See {IERC20-totalSupply}."
      },
      "transfer(address,uint256)": {
        "details": "See {IERC20-transfer}. Requirements: - `to` cannot be the zero address. - the caller must have a balance of at least `amount`."
      },
      "transferFrom(address,address,uint256)": {
        "details": "See {IERC20-transferFrom}. Emits an {Approval} event indicating the updated allowance. This is not required by the EIP. See the note at the beginning of {ERC20}. NOTE: Does not update the allowance if the current allowance is the maximum `uint256`. Requirements: - `from` and `to` cannot be the zero address. - `from` must have a balance of at least `amount`. - the caller must have allowance for ``from``'s tokens of at least `amount`."
      }
    },
    "version": 1
  },
  "userdoc": {
    "kind": "user",
    "methods": {},
    "version": 1
  }
}