{
  "contractName": "GreenToken",
  "abi": [
    {
      "inputs": [],
      "stateMutability": "nonpayable",
      "type": "constructor"
    },
    {
      "anonymous": false,
      "inputs": [
        {
          "indexed": true,
          "internalType": "address",
          "name": "owner",
          "type": "address"
        },
        {
          "indexed": true,
          "internalType": "address",
          "name": "spender",
          "type": "address"
        },
        {
          "indexed": false,
          "internalType": "uint256",
          "name": "value",
          "type": "uint256"
        }
      ],
      "name": "Approval",
      "type": "event"
    },
    {
      "anonymous": false,
      "inputs": [
        {
          "indexed": false,
          "internalType": "address",
          "name": "account",
          "type": "address"
        }
      ],
      "name": "Paused",
      "type": "event"
    },
    {
      "anonymous": false,
      "inputs": [
        {
          "indexed": true,
          "internalType": "bytes32",
          "name": "role",
          "type": "bytes32"
        },
        {
          "indexed": true,
          "internalType": "bytes32",
          "name": "previousAdminRole",
          "type": "bytes32"
        },
        {
          "indexed": true,
          "internalType": "bytes32",
          "name": "newAdminRole",
          "type": "bytes32"
        }
      ],
      "name": "RoleAdminChanged",
      "type": "event"
    },
    {
      "anonymous": false,
      "inputs": [
        {
          "indexed": true,
          "internalType": "bytes32",
          "name": "role",
          "type": "bytes32"
        },
        {
          "indexed": true,
          "internalType": "address",
          "name": "account",
          "type": "address"
        },
        {
          "indexed": true,
          "internalType": "address",
          "name": "sender",
          "type": "address"
        }
      ],
      "name": "RoleGranted",
      "type": "event"
    },
    {
      "anonymous": false,
      "inputs": [
        {
          "indexed": true,
          "internalType": "bytes32",
          "name": "role",
          "type": "bytes32"
        },
        {
          "indexed": true,
          "internalType": "address",
          "name": "account",
          "type": "address"
        },
        {
          "indexed": true,
          "internalType": "address",
          "name": "sender",
          "type": "address"
        }
      ],
      "name": "RoleRevoked",
      "type": "event"
    },
    {
      "anonymous": false,
      "inputs": [
        {
          "indexed": true,
          "internalType": "address",
          "name": "from",
          "type": "address"
        },
        {
          "indexed": true,
          "internalType": "address",
          "name": "to",
          "type": "address"
        },
        {
          "indexed": false,
          "internalType": "uint256",
          "name": "value",
          "type": "uint256"
        }
      ],
      "name": "Transfer",
      "type": "event"
    },
    {
      "anonymous": false,
      "inputs": [
        {
          "indexed": false,
          "internalType": "address",
          "name": "account",
          "type": "address"
        }
      ],
      "name": "Unpaused",
      "type": "event"
    },
    {
      "inputs": [],
      "name": "COMPANY_ROLE",
      "outputs": [
        {
          "internalType": "bytes32",
          "name": "",
          "type": "bytes32"
        }
      ],
      "stateMutability": "view",
      "type": "function"
    },
    {
      "inputs": [],
      "name": "DEFAULT_ADMIN_ROLE",
      "outputs": [
        {
          "internalType": "bytes32",
          "name": "",
          "type": "bytes32"
        }
      ],
      "stateMutability": "view",
      "type": "function"
    },
    {
      "inputs": [],
      "name": "GOVERNER_ROLE",
      "outputs": [
        {
          "internalType": "bytes32",
          "name": "",
          "type": "bytes32"
        }
      ],
      "stateMutability": "view",
      "type": "function"
    },
    {
      "inputs": [],
      "name": "PROJECT_ROLE",
      "outputs": [
        {
          "internalType": "bytes32",
          "name": "",
          "type": "bytes32"
        }
      ],
      "stateMutability": "view",
      "type": "function"
    },
    {
      "inputs": [],
      "name": "VERIFIER_ROLE",
      "outputs": [
        {
          "internalType": "bytes32",
          "name": "",
          "type": "bytes32"
        }
      ],
      "stateMutability": "view",
      "type": "function"
    },
    {
      "inputs": [
        {
          "internalType": "address",
          "name": "owner",
          "type": "address"
        },
        {
          "internalType": "address",
          "name": "spender",
          "type": "address"
        }
      ],
      "name": "allowance",
      "outputs": [
        {
          "internalType": "uint256",
          "name": "",
          "type": "uint256"
        }
      ],
      "stateMutability": "view",
      "type": "function"
    },
    {
      "inputs": [
        {
          "internalType": "address",
          "name": "spender",
          "type": "address"
        },
        {
          "internalType": "uint256",
          "name": "amount",
          "type": "uint256"
        }
      ],
      "name": "approve",
      "outputs": [
        {
          "internalType": "bool",
          "name": "",
          "type": "bool"
        }
      ],
      "stateMutability": "nonpayable",
      "type": "function"
    },
    {
      "inputs": [
        {
          "internalType": "address",
          "name": "account",
          "type": "address"
        }
      ],
      "name": "balanceOf",
      "outputs": [
        {
          "internalType": "uint256",
          "name": "",
          "type": "uint256"
        }
      ],
      "stateMutability": "view",
      "type": "function"
    },
    {
      "inputs": [
        {
          "internalType": "uint256",
          "name": "amount",
          "type": "uint256"
        }
      ],
      "name": "burn",
      "outputs": [],
      "stateMutability": "nonpayable",
      "type": "function"
    },
    {
      "inputs": [
        {
          "internalType": "address",
          "name": "account",
          "type": "address"
        },
        {
          "internalType": "uint256",
          "name": "amount",
          "type": "uint256"
        }
      ],
      "name": "burnFrom",
      "outputs": [],
      "stateMutability": "nonpayable",
      "type": "function"
    },
    {
      "inputs": [],
      "name": "decimals",
      "outputs": [
        {
          "internalType": "uint8",
          "name": "",
          "type": "uint8"
        }
      ],
      "stateMutability": "view",
      "type": "function"
    },
    {
      "inputs": [
        {
          "internalType": "address",
          "name": "spender",
          "type": "address"
        },
        {
          "internalType": "uint256",
          "name": "subtractedValue",
          "type": "uint256"
        }
      ],
      "name": "decreaseAllowance",
      "outputs": [
        {
          "internalType": "bool",
          "name": "",
          "type": "bool"
        }
      ],
      "stateMutability": "nonpayable",
      "type": "function"
    },
    {
      "inputs": [
        {
          "internalType": "bytes32",
          "name": "role",
          "type": "bytes32"
        }
      ],
      "name": "getRoleAdmin",
      "outputs": [
        {
          "internalType": "bytes32",
          "name": "",
          "type": "bytes32"
        }
      ],
      "stateMutability": "view",
      "type": "function"
    },
    {
      "inputs": [
        {
          "internalType": "bytes32",
          "name": "role",
          "type": "bytes32"
        },
        {
          "internalType": "address",
          "name": "account",
          "type": "address"
        }
      ],
      "name": "grantRole",
      "outputs": [],
      "stateMutability": "nonpayable",
      "type": "function"
    },
    {
      "inputs": [
        {
          "internalType": "bytes32",
          "name": "role",
          "type": "bytes32"
        },
        {
          "internalType": "address",
          "name": "account",
          "type": "address"
        }
      ],
      "name": "hasRole",
      "outputs": [
        {
          "internalType": "bool",
          "name": "",
          "type": "bool"
        }
      ],
      "stateMutability": "view",
      "type": "function"
    },
    {
      "inputs": [
        {
          "internalType": "address",
          "name": "spender",
          "type": "address"
        },
        {
          "internalType": "uint256",
          "name": "addedValue",
          "type": "uint256"
        }
      ],
      "name": "increaseAllowance",
      "outputs": [
        {
          "internalType": "bool",
          "name": "",
          "type": "bool"
        }
      ],
      "stateMutability": "nonpayable",
      "type": "function"
    },
    {
      "inputs": [],
      "name": "name",
      "outputs": [
        {
          "internalType": "string",
          "name": "",
          "type": "string"
        }
      ],
      "stateMutability": "view",
      "type": "function"
    },
    {
      "inputs": [],
      "name": "paused",
      "outputs": [
        {
          "internalType": "bool",
          "name": "",
          "type": "bool"
        }
      ],
      "stateMutability": "view",
      "type": "function"
    },
    {
      "inputs": [
        {
          "internalType": "bytes32",
          "name": "role",
          "type": "bytes32"
        },
        {
          "internalType": "address",
          "name": "account",
          "type": "address"
        }
      ],
      "name": "renounceRole",
      "outputs": [],
      "stateMutability": "nonpayable",
      "type": "function"
    },
    {
      "inputs": [
        {
          "internalType": "bytes32",
          "name": "role",
          "type": "bytes32"
        },
        {
          "internalType": "address",
          "name": "account",
          "type": "address"
        }
      ],
      "name": "revokeRole",
      "outputs": [],
      "stateMutability": "nonpayable",
      "type": "function"
    },
    {
      "inputs": [
        {
          "internalType": "bytes4",
          "name": "interfaceId",
          "type": "bytes4"
        }
      ],
      "name": "supportsInterface",
      "outputs": [
        {
          "internalType": "bool",
          "name": "",
          "type": "bool"
        }
      ],
      "stateMutability": "view",
      "type": "function"
    },
    {
      "inputs": [],
      "name": "symbol",
      "outputs": [
        {
          "internalType": "string",
          "name": "",
          "type": "string"
        }
      ],
      "stateMutability": "view",
      "type": "function"
    },
    {
      "inputs": [],
      "name": "totalSupply",
      "outputs": [
        {
          "internalType": "uint256",
          "name": "",
          "type": "uint256"
        }
      ],
      "stateMutability": "view",
      "type": "function"
    },
    {
      "inputs": [
        {
          "internalType": "address",
          "name": "to",
          "type": "address"
        },
        {
          "internalType": "uint256",
          "name": "amount",
          "type": "uint256"
        }
      ],
      "name": "transfer",
      "outputs": [
        {
          "internalType": "bool",
          "name": "",
          "type": "bool"
        }
      ],
      "stateMutability": "nonpayable",
      "type": "function"
    },
    {
      "inputs": [
        {
          "internalType": "address",
          "name": "from",
          "type": "address"
        },
        {
          "internalType": "address",
          "name": "to",
          "type": "address"
        },
        {
          "internalType": "uint256",
          "name": "amount",
          "type": "uint256"
        }
      ],
      "name": "transferFrom",
      "outputs": [
        {
          "internalType": "bool",
          "name": "",
          "type": "bool"
        }
      ],
      "stateMutability": "nonpayable",
      "type": "function"
    },
    {
      "inputs": [
        {
          "internalType": "address",
          "name": "",
          "type": "address"
        }
      ],
      "name": "verifiedCompanies",
      "outputs": [
        {
          "internalType": "string",
          "name": "registrationID",
          "type": "string"
        },
        {
          "internalType": "uint256",
          "name": "tco2Emission",
          "type": "uint256"
        },
        {
          "internalType": "uint256",
          "name": "gntTokenBalance",
          "type": "uint256"
        },
        {
          "internalType": "string",
          "name": "document_uri",
          "type": "string"
        }
      ],
      "stateMutability": "view",
      "type": "function"
    },
    {
      "inputs": [
        {
          "internalType": "address",
          "name": "",
          "type": "address"
        }
      ],
      "name": "verifiedProjects",
      "outputs": [
        {
          "internalType": "string",
          "name": "registrationID",
          "type": "string"
        },
        {
          "internalType": "uint256",
          "name": "tco2Reduction",
          "type": "uint256"
        },
        {
          "internalType": "uint256",
          "name": "gntTokenBalance",
          "type": "uint256"
        },
        {
          "internalType": "string",
          "name": "document_uri",
          "type": "string"
        }
      ],
      "stateMutability": "view",
      "type": "function"
    },
    {
      "inputs": [],
      "name": "requestVerifierRole",
      "outputs": [],
      "stateMutability": "nonpayable",
      "type": "function"
    },
    {
      "inputs": [
        {
          "internalType": "address",
          "name": "applicantAddress",
          "type": "address"
        }
      ],
      "name": "grantVerifierRole",
      "outputs": [],
      "stateMutability": "nonpayable",
      "type": "function"
    },
    {
      "inputs": [
        {
          "internalType": "address",
          "name": "applicantAddress",
          "type": "address"
        }
      ],
      "name": "rejectVerifierApplication",
      "outputs": [],
      "stateMutability": "nonpayable",
      "type": "function"
    },
    {
      "inputs": [
        {
          "internalType": "string",
          "name": "_registrationID",
          "type": "string"
        },
        {
          "internalType": "uint256",
          "name": "_tco2Emission",
          "type": "uint256"
        },
        {
          "internalType": "uint256",
          "name": "_gntTokenBalance",
          "type": "uint256"
        },
        {
          "internalType": "string",
          "name": "_document_uri",
          "type": "string"
        }
      ],
      "name": "requestCompanyVerification",
      "outputs": [],
      "stateMutability": "nonpayable",
      "type": "function"
    },
    {
      "inputs": [
        {
          "internalType": "address",
          "name": "_companyAddress",
          "type": "address"
        }
      ],
      "name": "companyApplicationVerified",
      "outputs": [],
      "stateMutability": "nonpayable",
      "type": "function"
    },
    {
      "inputs": [
        {
          "internalType": "address",
          "name": "_companyAddress",
          "type": "address"
        }
      ],
      "name": "companyApplicationRejected",
      "outputs": [],
      "stateMutability": "nonpayable",
      "type": "function"
    },
    {
      "inputs": [
        {
          "internalType": "string",
          "name": "_registrationID",
          "type": "string"
        },
        {
          "internalType": "uint256",
          "name": "_tco2Reduction",
          "type": "uint256"
        },
        {
          "internalType": "uint256",
          "name": "_gntTokenBalance",
          "type": "uint256"
        },
        {
          "internalType": "string",
          "name": "_document_uri",
          "type": "string"
        }
      ],
      "name": "requestProjectVerification",
      "outputs": [],
      "stateMutability": "nonpayable",
      "type": "function"
    },
    {
      "inputs": [
        {
          "internalType": "address",
          "name": "_projectAddress",
          "type": "address"
        }
      ],
      "name": "projectApplicationVerified",
      "outputs": [],
      "stateMutability": "nonpayable",
      "type": "function"
    },
    {
      "inputs": [
        {
          "internalType": "address",
          "name": "_projectAddress",
          "type": "address"
        }
      ],
      "name": "projectApplicationRejected",
      "outputs": [],
      "stateMutability": "nonpayable",
      "type": "function"
    },
    {
      "inputs": [],
      "name": "pause",
      "outputs": [],
      "stateMutability": "nonpayable",
      "type": "function"
    },
    {
      "inputs": [],
      "name": "unpause",
      "outputs": [],
      "stateMutability": "nonpayable",
      "type": "function"
    },
    {
      "inputs": [
        {
          "internalType": "address",
          "name": "to",
          "type": "address"
        },
        {
          "internalType": "uint256",
          "name": "amount",
          "type": "uint256"
        }
      ],
      "name": "mint",
      "outputs": [],
      "stateMutability": "nonpayable",
      "type": "function"
    },
    {
      "inputs": [
        {
          "internalType": "address",
          "name": "_tokenAddress",
          "type": "address"
        }
      ],
      "name": "buyToken",
      "outputs": [],
      "stateMutability": "payable",
      "type": "function"
    },
    {
      "inputs": [
        {
          "internalType": "uint256",
          "name": "amount",
          "type": "uint256"
        }
      ],
      "name": "sellToken",
      "outputs": [],
      "stateMutability": "nonpayable",
      "type": "function"
    }
  ],
  "bytecode": "0x608060405260016007553480156200001657600080fd5b506040518060400160405280600a81526020017f477265656e546f6b656e000000000000000000000000000000000000000000008152506040518060400160405280600381526020017f474e54000000000000000000000000000000000000000000000000000000000081525081600390805190602001906200009b929190620006ef565b508060049080519060200190620000b4929190620006ef565b5050506000600560006101000a81548160ff021916908315150217905550620000e76000801b33620002fc60201b60201c565b620001197f0ce23c3e399818cfee81a7ab0880f714e53d7672b08df0fa62f2843416e1ea0933620002fc60201b60201c565b6200014b7f704c992d358ec8f6051d88e5bd9f92457afedcbc3e2d110fcd019b5eda48e52e33620002fc60201b60201c565b6200017d7f9e1688b53537f356172ce07f39e129155063957163c5f9462d4d9e55b228b06c33620002fc60201b60201c565b620001af7f99b4cb81d693045578a6795d2045a8e4a6dc2d789bd539397ae2ce05c660459933620002fc60201b60201c565b620002017f99b4cb81d693045578a6795d2045a8e4a6dc2d789bd539397ae2ce05c66045997f0ce23c3e399818cfee81a7ab0880f714e53d7672b08df0fa62f2843416e1ea09620003ee60201b60201c565b620002537f9e1688b53537f356172ce07f39e129155063957163c5f9462d4d9e55b228b06c7f0ce23c3e399818cfee81a7ab0880f714e53d7672b08df0fa62f2843416e1ea09620003ee60201b60201c565b620002a57f0ce23c3e399818cfee81a7ab0880f714e53d7672b08df0fa62f2843416e1ea097f704c992d358ec8f6051d88e5bd9f92457afedcbc3e2d110fcd019b5eda48e52e620003ee60201b60201c565b620002da7f704c992d358ec8f6051d88e5bd9f92457afedcbc3e2d110fcd019b5eda48e52e6000801b620003ee60201b60201c565b620002f6306901e7e4171bf4d3a000006200045260201b60201c565b620009bd565b6200030e8282620005cb60201b60201c565b620003ea5760016006600084815260200190815260200160002060000160008373ffffffffffffffffffffffffffffffffffffffff1673ffffffffffffffffffffffffffffffffffffffff16815260200190815260200160002060006101000a81548160ff0219169083151502179055506200038f6200063660201b60201c565b73ffffffffffffffffffffffffffffffffffffffff168173ffffffffffffffffffffffffffffffffffffffff16837f2f8788117e7eff1d82e926ec794901d17c78024a50270940304540a733656f0d60405160405180910390a45b5050565b600062000401836200063e60201b60201c565b90508160066000858152602001908152602001600020600101819055508181847fbd79b86ffe0ab8e8776151514217cd7cacd52c909f66475c3af44e129f0b00ff60405160405180910390a4505050565b600073ffffffffffffffffffffffffffffffffffffffff168273ffffffffffffffffffffffffffffffffffffffff161415620004c5576040517f08c379a0000000000000000000000000000000000000000000000000000000008152600401620004bc9062000820565b60405180910390fd5b620004d9600083836200065e60201b60201c565b8060026000828254620004ed919062000870565b92505081905550806000808473ffffffffffffffffffffffffffffffffffffffff1673ffffffffffffffffffffffffffffffffffffffff168152602001908152602001600020600082825462000544919062000870565b925050819055508173ffffffffffffffffffffffffffffffffffffffff16600073ffffffffffffffffffffffffffffffffffffffff167fddf252ad1be2c89b69c2b068fc378daa952ba7f163c4a11628f55a4df523b3ef83604051620005ab919062000842565b60405180910390a3620005c760008383620006ce60201b60201c565b5050565b60006006600084815260200190815260200160002060000160008373ffffffffffffffffffffffffffffffffffffffff1673ffffffffffffffffffffffffffffffffffffffff16815260200190815260200160002060009054906101000a900460ff16905092915050565b600033905090565b600060066000838152602001908152602001600020600101549050919050565b6200066e620006d360201b60201c565b15620006b1576040517f08c379a0000000000000000000000000000000000000000000000000000000008152600401620006a890620007fe565b60405180910390fd5b620006c9838383620006ea60201b62001f0f1760201c565b505050565b505050565b6000600560009054906101000a900460ff16905090565b505050565b828054620006fd90620008d7565b90600052602060002090601f0160209004810192826200072157600085556200076d565b82601f106200073c57805160ff19168380011785556200076d565b828001600101855582156200076d579182015b828111156200076c5782518255916020019190600101906200074f565b5b5090506200077c919062000780565b5090565b5b808211156200079b57600081600090555060010162000781565b5090565b6000620007ae6010836200085f565b9150620007bb826200096b565b602082019050919050565b6000620007d5601f836200085f565b9150620007e28262000994565b602082019050919050565b620007f881620008cd565b82525050565b6000602082019050818103600083015262000819816200079f565b9050919050565b600060208201905081810360008301526200083b81620007c6565b9050919050565b6000602082019050620008596000830184620007ed565b92915050565b600082825260208201905092915050565b60006200087d82620008cd565b91506200088a83620008cd565b9250827fffffffffffffffffffffffffffffffffffffffffffffffffffffffffffffffff03821115620008c257620008c16200090d565b5b828201905092915050565b6000819050919050565b60006002820490506001821680620008f057607f821691505b602082108114156200090757620009066200093c565b5b50919050565b7f4e487b7100000000000000000000000000000000000000000000000000000000600052601160045260246000fd5b7f4e487b7100000000000000000000000000000000000000000000000000000000600052602260045260246000fd5b7f5061757361626c653a2070617573656400000000000000000000000000000000600082015250565b7f45524332303a206d696e7420746f20746865207a65726f206164647265737300600082015250565b61415a80620009cd6000396000f3fe6080604052600436106102465760003560e01c80636bbc203d11610139578063a457c2d7116100b6578063da04d2e01161007a578063da04d2e014610895578063da33b01e146108c0578063dd62ed3e146108e9578063e7705db614610926578063f4cc934a14610951578063fb24ed1c1461097a57610246565b8063a457c2d7146107b2578063a64edfa7146107ef578063a9059cbb14610806578063acc1e49c14610843578063d547741f1461086c57610246565b806391d14854116100fd57806391d14854146106b457806395d89b41146106f15780639c39af011461071c5780639fe6678c1461075c578063a217fddf1461078757610246565b80636bbc203d146105f257806370a082311461061b57806379cc6790146106585780637e72fb52146106815780638456cb591461069d57610246565b80632f2ff15d116101c75780633f4ba83a1161018b5780633f4ba83a1461053557806340c10f191461054c57806342966c68146105755780635c975abb1461059e5780636847386c146105c957610246565b80632f2ff15d1461043b578063313ce5671461046457806331a376321461048f57806336568abe146104cf57806339509351146104f857610246565b806318160ddd1161020e57806318160ddd146103425780631c9ee11a1461036d5780632397e4d71461039857806323b872dd146103c1578063248a9ca3146103fe57610246565b806301ffc9a71461024b5780630337c0611461028857806306fdde03146102b1578063095ea7b3146102dc5780631058d50014610319575b600080fd5b34801561025757600080fd5b50610272600480360381019061026d9190613248565b6109a3565b60405161027f91906136de565b60405180910390f35b34801561029457600080fd5b506102af60048036038101906102aa91906130ca565b610a1d565b005b3480156102bd57600080fd5b506102c6610ad4565b6040516102d39190613714565b60405180910390f35b3480156102e857600080fd5b5061030360048036038101906102fe919061317e565b610b66565b60405161031091906136de565b60405180910390f35b34801561032557600080fd5b50610340600480360381019061033b9190613271565b610b89565b005b34801561034e57600080fd5b50610357610cca565b6040516103649190613989565b60405180910390f35b34801561037957600080fd5b50610382610cd4565b60405161038f91906136f9565b60405180910390f35b3480156103a457600080fd5b506103bf60048036038101906103ba919061330c565b610cf8565b005b3480156103cd57600080fd5b506103e860048036038101906103e3919061312f565b610d73565b6040516103f591906136de565b60405180910390f35b34801561040a57600080fd5b50610425600480360381019061042091906131e3565b610da2565b60405161043291906136f9565b60405180910390f35b34801561044757600080fd5b50610462600480360381019061045d919061320c565b610dc2565b005b34801561047057600080fd5b50610479610deb565b60405161048691906139a4565b60405180910390f35b34801561049b57600080fd5b506104b660048036038101906104b191906130ca565b610df4565b6040516104c69493929190613736565b60405180910390f35b3480156104db57600080fd5b506104f660048036038101906104f1919061320c565b610f34565b005b34801561050457600080fd5b5061051f600480360381019061051a919061317e565b610fb7565b60405161052c91906136de565b60405180910390f35b34801561054157600080fd5b5061054a611061565b005b34801561055857600080fd5b50610573600480360381019061056e919061317e565b61109e565b005b34801561058157600080fd5b5061059c6004803603810190610597919061330c565b61115b565b005b3480156105aa57600080fd5b506105b361116f565b6040516105c091906136de565b60405180910390f35b3480156105d557600080fd5b506105f060048036038101906105eb91906130ca565b611186565b005b3480156105fe57600080fd5b5061061960048036038101906106149190613271565b611236565b005b34801561062757600080fd5b50610642600480360381019061063d91906130ca565b611377565b60405161064f9190613989565b60405180910390f35b34801561066457600080fd5b5061067f600480360381019061067a919061317e565b6113bf565b005b61069b600480360381019061069691906130ca565b6113df565b005b3480156106a957600080fd5b506106b2611510565b005b3480156106c057600080fd5b506106db60048036038101906106d6919061320c565b61154d565b6040516106e891906136de565b60405180910390f35b3480156106fd57600080fd5b506107066115b8565b6040516107139190613714565b60405180910390f35b34801561072857600080fd5b50610743600480360381019061073e91906130ca565b61164a565b6040516107539493929190613736565b60405180910390f35b34801561076857600080fd5b5061077161178a565b60405161077e91906136f9565b60405180910390f35b34801561079357600080fd5b5061079c6117ae565b6040516107a991906136f9565b60405180910390f35b3480156107be57600080fd5b506107d960048036038101906107d4919061317e565b6117b5565b6040516107e691906136de565b60405180910390f35b3480156107fb57600080fd5b5061080461189f565b005b34801561081257600080fd5b5061082d6004803603810190610828919061317e565b6118f9565b60405161083a91906136de565b60405180910390f35b34801561084f57600080fd5b5061086a600480360381019061086591906130ca565b61191c565b005b34801561087857600080fd5b50610893600480360381019061088e919061320c565b611b2b565b005b3480156108a157600080fd5b506108aa611b54565b6040516108b791906136f9565b60405180910390f35b3480156108cc57600080fd5b506108e760048036038101906108e291906130ca565b611b78565b005b3480156108f557600080fd5b50610910600480360381019061090b91906130f3565b611c05565b60405161091d9190613989565b60405180910390f35b34801561093257600080fd5b5061093b611c8c565b60405161094891906136f9565b60405180910390f35b34801561095d57600080fd5b50610978600480360381019061097391906130ca565b611cb0565b005b34801561098657600080fd5b506109a1600480360381019061099c91906130ca565b611d60565b005b60007f7965db0b000000000000000000000000000000000000000000000000000000007bffffffffffffffffffffffffffffffffffffffffffffffffffffffff1916827bffffffffffffffffffffffffffffffffffffffffffffffffffffffff19161480610a165750610a1582611f14565b5b9050919050565b610a467f0ce23c3e399818cfee81a7ab0880f714e53d7672b08df0fa62f2843416e1ea09610da2565b610a5781610a52611f7e565b611f86565b610a817f0ce23c3e399818cfee81a7ab0880f714e53d7672b08df0fa62f2843416e1ea0983612023565b600860008373ffffffffffffffffffffffffffffffffffffffff1673ffffffffffffffffffffffffffffffffffffffff16815260200190815260200160002060006101000a81549060ff02191690555050565b606060038054610ae390613bb2565b80601f0160208091040260200160405190810160405280929190818152602001828054610b0f90613bb2565b8015610b5c5780601f10610b3157610100808354040283529160200191610b5c565b820191906000526020600020905b815481529060010190602001808311610b3f57829003601f168201915b5050505050905090565b600080610b71611f7e565b9050610b7e818585612104565b600191505092915050565b604051806080016040528087878080601f016020809104026020016040519081016040528093929190818152602001838380828437600081840152601f19601f82011690508083019250505050505050815260200185815260200184815260200183838080601f016020809104026020016040519081016040528093929190818152602001838380828437600081840152601f19601f82011690508083019250505050505050815250600b60003373ffffffffffffffffffffffffffffffffffffffff1673ffffffffffffffffffffffffffffffffffffffff1681526020019081526020016000206000820151816000019080519060200190610c8d929190612ea7565b5060208201518160010155604082015181600201556060820151816003019080519060200190610cbe929190612ea7565b50905050505050505050565b6000600254905090565b7f9e1688b53537f356172ce07f39e129155063957163c5f9462d4d9e55b228b06c81565b3373ffffffffffffffffffffffffffffffffffffffff166108fc670de0b6b3a764000083610d269190613a3c565b9081150290604051600060405180830381858888f19350505050158015610d51573d6000803e3d6000fd5b50610d6f30670de0b6b3a764000083610d6a9190613a3c565b6118f9565b5050565b600080610d7e611f7e565b9050610d8b8582856122cf565b610d9685858561235b565b60019150509392505050565b600060066000838152602001908152602001600020600101549050919050565b610dcb82610da2565b610ddc81610dd7611f7e565b611f86565b610de68383612023565b505050565b60006012905090565b600c602052806000526040600020600091509050806000018054610e1790613bb2565b80601f0160208091040260200160405190810160405280929190818152602001828054610e4390613bb2565b8015610e905780601f10610e6557610100808354040283529160200191610e90565b820191906000526020600020905b815481529060010190602001808311610e7357829003601f168201915b505050505090806001015490806002015490806003018054610eb190613bb2565b80601f0160208091040260200160405190810160405280929190818152602001828054610edd90613bb2565b8015610f2a5780601f10610eff57610100808354040283529160200191610f2a565b820191906000526020600020905b815481529060010190602001808311610f0d57829003601f168201915b5050505050905084565b610f3c611f7e565b73ffffffffffffffffffffffffffffffffffffffff168173ffffffffffffffffffffffffffffffffffffffff1614610fa9576040517f08c379a0000000000000000000000000000000000000000000000000000000008152600401610fa090613949565b60405180910390fd5b610fb382826125dc565b5050565b600080610fc2611f7e565b9050611056818585600160008673ffffffffffffffffffffffffffffffffffffffff1673ffffffffffffffffffffffffffffffffffffffff16815260200190815260200160002060008973ffffffffffffffffffffffffffffffffffffffff1673ffffffffffffffffffffffffffffffffffffffff1681526020019081526020016000205461105191906139e6565b612104565b600191505092915050565b7f704c992d358ec8f6051d88e5bd9f92457afedcbc3e2d110fcd019b5eda48e52e6110938161108e611f7e565b611f86565b61109b6126be565b50565b7f0ce23c3e399818cfee81a7ab0880f714e53d7672b08df0fa62f2843416e1ea096110d0816110cb611f7e565b611f86565b6110fa7f99b4cb81d693045578a6795d2045a8e4a6dc2d789bd539397ae2ce05c66045998461154d565b611139576040517f08c379a000000000000000000000000000000000000000000000000000000000815260040161113090613829565b60405180910390fd5b61115683670de0b6b3a7640000846111519190613a3c565b612760565b505050565b61116c611166611f7e565b826128c0565b50565b6000600560009054906101000a900460ff16905090565b6111af7f99b4cb81d693045578a6795d2045a8e4a6dc2d789bd539397ae2ce05c6604599610da2565b6111c0816111bb611f7e565b611f86565b600b60008373ffffffffffffffffffffffffffffffffffffffff1673ffffffffffffffffffffffffffffffffffffffff168152602001908152602001600020600080820160006112109190612f2d565b600182016000905560028201600090556003820160006112309190612f2d565b50505050565b604051806080016040528087878080601f016020809104026020016040519081016040528093929190818152602001838380828437600081840152601f19601f82011690508083019250505050505050815260200185815260200184815260200183838080601f016020809104026020016040519081016040528093929190818152602001838380828437600081840152601f19601f82011690508083019250505050505050815250600a60003373ffffffffffffffffffffffffffffffffffffffff1673ffffffffffffffffffffffffffffffffffffffff168152602001908152602001600020600082015181600001908051906020019061133a929190612ea7565b506020820151816001015560408201518160020155606082015181600301908051906020019061136b929190612ea7565b50905050505050505050565b60008060008373ffffffffffffffffffffffffffffffffffffffff1673ffffffffffffffffffffffffffffffffffffffff168152602001908152602001600020549050919050565b6113d1826113cb611f7e565b836122cf565b6113db82826128c0565b5050565b6114097f9e1688b53537f356172ce07f39e129155063957163c5f9462d4d9e55b228b06c3361154d565b8061143a57506114397f99b4cb81d693045578a6795d2045a8e4a6dc2d789bd539397ae2ce05c66045993361154d565b5b611479576040517f08c379a0000000000000000000000000000000000000000000000000000000008152600401611470906138a9565b60405180910390fd5b60008190508073ffffffffffffffffffffffffffffffffffffffff1663a9059cbb33346040518363ffffffff1660e01b81526004016114b99291906136b5565b602060405180830381600087803b1580156114d357600080fd5b505af11580156114e7573d6000803e3d6000fd5b505050506040513d601f19601f8201168201806040525081019061150b91906131ba565b505050565b7f704c992d358ec8f6051d88e5bd9f92457afedcbc3e2d110fcd019b5eda48e52e6115428161153d611f7e565b611f86565b61154a612a97565b50565b60006006600084815260200190815260200160002060000160008373ffffffffffffffffffffffffffffffffffffffff1673ffffffffffffffffffffffffffffffffffffffff16815260200190815260200160002060009054906101000a900460ff16905092915050565b6060600480546115c790613bb2565b80601f01602080910402602001604051908101604052809291908181526020018280546115f390613bb2565b80156116405780601f1061161557610100808354040283529160200191611640565b820191906000526020600020905b81548152906001019060200180831161162357829003601f168201915b5050505050905090565b600d60205280600052604060002060009150905080600001805461166d90613bb2565b80601f016020809104026020016040519081016040528092919081815260200182805461169990613bb2565b80156116e65780601f106116bb576101008083540402835291602001916116e6565b820191906000526020600020905b8154815290600101906020018083116116c957829003601f168201915b50505050509080600101549080600201549080600301805461170790613bb2565b80601f016020809104026020016040519081016040528092919081815260200182805461173390613bb2565b80156117805780601f1061175557610100808354040283529160200191611780565b820191906000526020600020905b81548152906001019060200180831161176357829003601f168201915b5050505050905084565b7f99b4cb81d693045578a6795d2045a8e4a6dc2d789bd539397ae2ce05c660459981565b6000801b81565b6000806117c0611f7e565b90506000600160008373ffffffffffffffffffffffffffffffffffffffff1673ffffffffffffffffffffffffffffffffffffffff16815260200190815260200160002060008673ffffffffffffffffffffffffffffffffffffffff1673ffffffffffffffffffffffffffffffffffffffff16815260200190815260200160002054905083811015611886576040517f08c379a000000000000000000000000000000000000000000000000000000000815260040161187d90613929565b60405180910390fd5b6118938286868403612104565b60019250505092915050565b6001600860003373ffffffffffffffffffffffffffffffffffffffff1673ffffffffffffffffffffffffffffffffffffffff16815260200190815260200160002060006101000a81548160ff021916908315150217905550565b600080611904611f7e565b905061191181858561235b565b600191505092915050565b6119457f99b4cb81d693045578a6795d2045a8e4a6dc2d789bd539397ae2ce05c6604599610da2565b61195681611951611f7e565b611f86565b6119807f99b4cb81d693045578a6795d2045a8e4a6dc2d789bd539397ae2ce05c660459983612023565b600b60008373ffffffffffffffffffffffffffffffffffffffff1673ffffffffffffffffffffffffffffffffffffffff168152602001908152602001600020600d60008473ffffffffffffffffffffffffffffffffffffffff1673ffffffffffffffffffffffffffffffffffffffff1681526020019081526020016000206000820181600001908054611a1290613bb2565b611a1d929190612f6d565b5060018201548160010155600282015481600201556003820181600301908054611a4690613bb2565b611a51929190612f6d565b50905050600b60008373ffffffffffffffffffffffffffffffffffffffff1673ffffffffffffffffffffffffffffffffffffffff16815260200190815260200160002060008082016000611aa59190612f2d565b60018201600090556002820160009055600382016000611ac59190612f2d565b5050611b2782611b22600754600d60008773ffffffffffffffffffffffffffffffffffffffff1673ffffffffffffffffffffffffffffffffffffffff16815260200190815260200160002060010154612b3a90919063ffffffff16565b61109e565b5050565b611b3482610da2565b611b4581611b40611f7e565b611f86565b611b4f83836125dc565b505050565b7f704c992d358ec8f6051d88e5bd9f92457afedcbc3e2d110fcd019b5eda48e52e81565b611ba17f0ce23c3e399818cfee81a7ab0880f714e53d7672b08df0fa62f2843416e1ea09610da2565b611bb281611bad611f7e565b611f86565b600860008373ffffffffffffffffffffffffffffffffffffffff1673ffffffffffffffffffffffffffffffffffffffff16815260200190815260200160002060006101000a81549060ff02191690555050565b6000600160008473ffffffffffffffffffffffffffffffffffffffff1673ffffffffffffffffffffffffffffffffffffffff16815260200190815260200160002060008373ffffffffffffffffffffffffffffffffffffffff1673ffffffffffffffffffffffffffffffffffffffff16815260200190815260200160002054905092915050565b7f0ce23c3e399818cfee81a7ab0880f714e53d7672b08df0fa62f2843416e1ea0981565b611cd97f9e1688b53537f356172ce07f39e129155063957163c5f9462d4d9e55b228b06c610da2565b611cea81611ce5611f7e565b611f86565b600a60008373ffffffffffffffffffffffffffffffffffffffff1673ffffffffffffffffffffffffffffffffffffffff16815260200190815260200160002060008082016000611d3a9190612f2d565b60018201600090556002820160009055600382016000611d5a9190612f2d565b50505050565b611d897f9e1688b53537f356172ce07f39e129155063957163c5f9462d4d9e55b228b06c610da2565b611d9a81611d95611f7e565b611f86565b611dc47f9e1688b53537f356172ce07f39e129155063957163c5f9462d4d9e55b228b06c83612023565b600a60008373ffffffffffffffffffffffffffffffffffffffff1673ffffffffffffffffffffffffffffffffffffffff168152602001908152602001600020600c60008473ffffffffffffffffffffffffffffffffffffffff1673ffffffffffffffffffffffffffffffffffffffff1681526020019081526020016000206000820181600001908054611e5690613bb2565b611e61929190612f6d565b5060018201548160010155600282015481600201556003820181600301908054611e8a90613bb2565b611e95929190612f6d565b50905050600a60008373ffffffffffffffffffffffffffffffffffffffff1673ffffffffffffffffffffffffffffffffffffffff16815260200190815260200160002060008082016000611ee99190612f2d565b60018201600090556002820160009055600382016000611f099190612f2d565b50505050565b505050565b60007f01ffc9a7000000000000000000000000000000000000000000000000000000007bffffffffffffffffffffffffffffffffffffffffffffffffffffffff1916827bffffffffffffffffffffffffffffffffffffffffffffffffffffffff1916149050919050565b600033905090565b611f90828261154d565b61201f57611fb58173ffffffffffffffffffffffffffffffffffffffff166014612b50565b611fc38360001c6020612b50565b604051602001611fd4929190613660565b6040516020818303038152906040526040517f08c379a00000000000000000000000000000000000000000000000000000000081526004016120169190613714565b60405180910390fd5b5050565b61202d828261154d565b6121005760016006600084815260200190815260200160002060000160008373ffffffffffffffffffffffffffffffffffffffff1673ffffffffffffffffffffffffffffffffffffffff16815260200190815260200160002060006101000a81548160ff0219169083151502179055506120a5611f7e565b73ffffffffffffffffffffffffffffffffffffffff168173ffffffffffffffffffffffffffffffffffffffff16837f2f8788117e7eff1d82e926ec794901d17c78024a50270940304540a733656f0d60405160405180910390a45b5050565b600073ffffffffffffffffffffffffffffffffffffffff168373ffffffffffffffffffffffffffffffffffffffff161415612174576040517f08c379a000000000000000000000000000000000000000000000000000000000815260040161216b90613909565b60405180910390fd5b600073ffffffffffffffffffffffffffffffffffffffff168273ffffffffffffffffffffffffffffffffffffffff1614156121e4576040517f08c379a00000000000000000000000000000000000000000000000000000000081526004016121db90613809565b60405180910390fd5b80600160008573ffffffffffffffffffffffffffffffffffffffff1673ffffffffffffffffffffffffffffffffffffffff16815260200190815260200160002060008473ffffffffffffffffffffffffffffffffffffffff1673ffffffffffffffffffffffffffffffffffffffff168152602001908152602001600020819055508173ffffffffffffffffffffffffffffffffffffffff168373ffffffffffffffffffffffffffffffffffffffff167f8c5be1e5ebec7d5bd14f71427d1e84f3dd0314c0f7b2291e5b200ac8c7c3b925836040516122c29190613989565b60405180910390a3505050565b60006122db8484611c05565b90507fffffffffffffffffffffffffffffffffffffffffffffffffffffffffffffffff81146123555781811015612347576040517f08c379a000000000000000000000000000000000000000000000000000000000815260040161233e90613849565b60405180910390fd5b6123548484848403612104565b5b50505050565b600073ffffffffffffffffffffffffffffffffffffffff168373ffffffffffffffffffffffffffffffffffffffff1614156123cb576040517f08c379a00000000000000000000000000000000000000000000000000000000081526004016123c2906138e9565b60405180910390fd5b600073ffffffffffffffffffffffffffffffffffffffff168273ffffffffffffffffffffffffffffffffffffffff16141561243b576040517f08c379a0000000000000000000000000000000000000000000000000000000008152600401612432906137a9565b60405180910390fd5b612446838383612e4a565b60008060008573ffffffffffffffffffffffffffffffffffffffff1673ffffffffffffffffffffffffffffffffffffffff168152602001908152602001600020549050818110156124cc576040517f08c379a00000000000000000000000000000000000000000000000000000000081526004016124c390613869565b60405180910390fd5b8181036000808673ffffffffffffffffffffffffffffffffffffffff1673ffffffffffffffffffffffffffffffffffffffff16815260200190815260200160002081905550816000808573ffffffffffffffffffffffffffffffffffffffff1673ffffffffffffffffffffffffffffffffffffffff168152602001908152602001600020600082825461255f91906139e6565b925050819055508273ffffffffffffffffffffffffffffffffffffffff168473ffffffffffffffffffffffffffffffffffffffff167fddf252ad1be2c89b69c2b068fc378daa952ba7f163c4a11628f55a4df523b3ef846040516125c39190613989565b60405180910390a36125d6848484612ea2565b50505050565b6125e6828261154d565b156126ba5760006006600084815260200190815260200160002060000160008373ffffffffffffffffffffffffffffffffffffffff1673ffffffffffffffffffffffffffffffffffffffff16815260200190815260200160002060006101000a81548160ff02191690831515021790555061265f611f7e565b73ffffffffffffffffffffffffffffffffffffffff168173ffffffffffffffffffffffffffffffffffffffff16837ff6391f5c32d9c69d2a47ea670b442974b53935d1edc7fd64eb21e047a839171b60405160405180910390a45b5050565b6126c661116f565b612705576040517f08c379a00000000000000000000000000000000000000000000000000000000081526004016126fc906137c9565b60405180910390fd5b6000600560006101000a81548160ff0219169083151502179055507f5db9ee0a495bf2e6ff9c91a7834c1ba4fdd244a5e8aa4e537bd38aeae4b073aa612749611f7e565b604051612756919061369a565b60405180910390a1565b600073ffffffffffffffffffffffffffffffffffffffff168273ffffffffffffffffffffffffffffffffffffffff1614156127d0576040517f08c379a00000000000000000000000000000000000000000000000000000000081526004016127c790613969565b60405180910390fd5b6127dc60008383612e4a565b80600260008282546127ee91906139e6565b92505081905550806000808473ffffffffffffffffffffffffffffffffffffffff1673ffffffffffffffffffffffffffffffffffffffff168152602001908152602001600020600082825461284391906139e6565b925050819055508173ffffffffffffffffffffffffffffffffffffffff16600073ffffffffffffffffffffffffffffffffffffffff167fddf252ad1be2c89b69c2b068fc378daa952ba7f163c4a11628f55a4df523b3ef836040516128a89190613989565b60405180910390a36128bc60008383612ea2565b5050565b600073ffffffffffffffffffffffffffffffffffffffff168273ffffffffffffffffffffffffffffffffffffffff161415612930576040517f08c379a0000000000000000000000000000000000000000000000000000000008152600401612927906138c9565b60405180910390fd5b61293c82600083612e4a565b60008060008473ffffffffffffffffffffffffffffffffffffffff1673ffffffffffffffffffffffffffffffffffffffff168152602001908152602001600020549050818110156129c2576040517f08c379a00000000000000000000000000000000000000000000000000000000081526004016129b9906137e9565b60405180910390fd5b8181036000808573ffffffffffffffffffffffffffffffffffffffff1673ffffffffffffffffffffffffffffffffffffffff168152602001908152602001600020819055508160026000828254612a199190613a96565b92505081905550600073ffffffffffffffffffffffffffffffffffffffff168373ffffffffffffffffffffffffffffffffffffffff167fddf252ad1be2c89b69c2b068fc378daa952ba7f163c4a11628f55a4df523b3ef84604051612a7e9190613989565b60405180910390a3612a9283600084612ea2565b505050565b612a9f61116f565b15612adf576040517f08c379a0000000000000000000000000000000000000000000000000000000008152600401612ad690613889565b60405180910390fd5b6001600560006101000a81548160ff0219169083151502179055507f62e78cea01bee320cd4e420270b5ea74000d11b0c9f74754ebdbfc544b05a258612b23611f7e565b604051612b30919061369a565b60405180910390a1565b60008183612b489190613a3c565b905092915050565b606060006002836002612b639190613a3c565b612b6d91906139e6565b67ffffffffffffffff811115612bac577f4e487b7100000000000000000000000000000000000000000000000000000000600052604160045260246000fd5b6040519080825280601f01601f191660200182016040528015612bde5781602001600182028036833780820191505090505b5090507f300000000000000000000000000000000000000000000000000000000000000081600081518110612c3c577f4e487b7100000000000000000000000000000000000000000000000000000000600052603260045260246000fd5b60200101907effffffffffffffffffffffffffffffffffffffffffffffffffffffffffffff1916908160001a9053507f780000000000000000000000000000000000000000000000000000000000000081600181518110612cc6577f4e487b7100000000000000000000000000000000000000000000000000000000600052603260045260246000fd5b60200101907effffffffffffffffffffffffffffffffffffffffffffffffffffffffffffff1916908160001a90535060006001846002612d069190613a3c565b612d1091906139e6565b90505b6001811115612dfc577f3031323334353637383961626364656600000000000000000000000000000000600f861660108110612d78577f4e487b7100000000000000000000000000000000000000000000000000000000600052603260045260246000fd5b1a60f81b828281518110612db5577f4e487b7100000000000000000000000000000000000000000000000000000000600052603260045260246000fd5b60200101907effffffffffffffffffffffffffffffffffffffffffffffffffffffffffffff1916908160001a905350600485901c945080612df590613b88565b9050612d13565b5060008414612e40576040517f08c379a0000000000000000000000000000000000000000000000000000000008152600401612e3790613789565b60405180910390fd5b8091505092915050565b612e5261116f565b15612e92576040517f08c379a0000000000000000000000000000000000000000000000000000000008152600401612e8990613889565b60405180910390fd5b612e9d838383611f0f565b505050565b505050565b828054612eb390613bb2565b90600052602060002090601f016020900481019282612ed55760008555612f1c565b82601f10612eee57805160ff1916838001178555612f1c565b82800160010185558215612f1c579182015b82811115612f1b578251825591602001919060010190612f00565b5b509050612f299190612ffa565b5090565b508054612f3990613bb2565b6000825580601f10612f4b5750612f6a565b601f016020900490600052602060002090810190612f699190612ffa565b5b50565b828054612f7990613bb2565b90600052602060002090601f016020900481019282612f9b5760008555612fe9565b82601f10612fac5780548555612fe9565b82800160010185558215612fe957600052602060002091601f016020900482015b82811115612fe8578254825591600101919060010190612fcd565b5b509050612ff69190612ffa565b5090565b5b80821115613013576000816000905550600101612ffb565b5090565b600081359050613026816140b1565b92915050565b60008151905061303b816140c8565b92915050565b600081359050613050816140df565b92915050565b600081359050613065816140f6565b92915050565b60008083601f84011261307d57600080fd5b8235905067ffffffffffffffff81111561309657600080fd5b6020830191508360018202830111156130ae57600080fd5b9250929050565b6000813590506130c48161410d565b92915050565b6000602082840312156130dc57600080fd5b60006130ea84828501613017565b91505092915050565b6000806040838503121561310657600080fd5b600061311485828601613017565b925050602061312585828601613017565b9150509250929050565b60008060006060848603121561314457600080fd5b600061315286828701613017565b935050602061316386828701613017565b9250506040613174868287016130b5565b9150509250925092565b6000806040838503121561319157600080fd5b600061319f85828601613017565b92505060206131b0858286016130b5565b9150509250929050565b6000602082840312156131cc57600080fd5b60006131da8482850161302c565b91505092915050565b6000602082840312156131f557600080fd5b600061320384828501613041565b91505092915050565b6000806040838503121561321f57600080fd5b600061322d85828601613041565b925050602061323e85828601613017565b9150509250929050565b60006020828403121561325a57600080fd5b600061326884828501613056565b91505092915050565b6000806000806000806080878903121561328a57600080fd5b600087013567ffffffffffffffff8111156132a457600080fd5b6132b089828a0161306b565b965096505060206132c389828a016130b5565b94505060406132d489828a016130b5565b935050606087013567ffffffffffffffff8111156132f157600080fd5b6132fd89828a0161306b565b92509250509295509295509295565b60006020828403121561331e57600080fd5b600061332c848285016130b5565b91505092915050565b61333e81613aca565b82525050565b61334d81613adc565b82525050565b61335c81613ae8565b82525050565b600061336d826139bf565b61337781856139ca565b9350613387818560208601613b55565b61339081613c42565b840191505092915050565b60006133a6826139bf565b6133b081856139db565b93506133c0818560208601613b55565b80840191505092915050565b60006133d96020836139ca565b91506133e482613c53565b602082019050919050565b60006133fc6023836139ca565b915061340782613c7c565b604082019050919050565b600061341f6014836139ca565b915061342a82613ccb565b602082019050919050565b60006134426022836139ca565b915061344d82613cf4565b604082019050919050565b60006134656022836139ca565b915061347082613d43565b604082019050919050565b60006134886021836139ca565b915061349382613d92565b604082019050919050565b60006134ab601d836139ca565b91506134b682613de1565b602082019050919050565b60006134ce6026836139ca565b91506134d982613e0a565b604082019050919050565b60006134f16010836139ca565b91506134fc82613e59565b602082019050919050565b6000613514600b836139ca565b915061351f82613e82565b602082019050919050565b60006135376021836139ca565b915061354282613eab565b604082019050919050565b600061355a6025836139ca565b915061356582613efa565b604082019050919050565b600061357d6024836139ca565b915061358882613f49565b604082019050919050565b60006135a06017836139db565b91506135ab82613f98565b601782019050919050565b60006135c36025836139ca565b91506135ce82613fc1565b604082019050919050565b60006135e66011836139db565b91506135f182614010565b601182019050919050565b6000613609602f836139ca565b915061361482614039565b604082019050919050565b600061362c601f836139ca565b915061363782614088565b602082019050919050565b61364b81613b3e565b82525050565b61365a81613b48565b82525050565b600061366b82613593565b9150613677828561339b565b9150613682826135d9565b915061368e828461339b565b91508190509392505050565b60006020820190506136af6000830184613335565b92915050565b60006040820190506136ca6000830185613335565b6136d76020830184613642565b9392505050565b60006020820190506136f36000830184613344565b92915050565b600060208201905061370e6000830184613353565b92915050565b6000602082019050818103600083015261372e8184613362565b905092915050565b600060808201905081810360008301526137508187613362565b905061375f6020830186613642565b61376c6040830185613642565b818103606083015261377e8184613362565b905095945050505050565b600060208201905081810360008301526137a2816133cc565b9050919050565b600060208201905081810360008301526137c2816133ef565b9050919050565b600060208201905081810360008301526137e281613412565b9050919050565b6000602082019050818103600083015261380281613435565b9050919050565b6000602082019050818103600083015261382281613458565b9050919050565b600060208201905081810360008301526138428161347b565b9050919050565b600060208201905081810360008301526138628161349e565b9050919050565b60006020820190508181036000830152613882816134c1565b9050919050565b600060208201905081810360008301526138a2816134e4565b9050919050565b600060208201905081810360008301526138c281613507565b9050919050565b600060208201905081810360008301526138e28161352a565b9050919050565b600060208201905081810360008301526139028161354d565b9050919050565b6000602082019050818103600083015261392281613570565b9050919050565b60006020820190508181036000830152613942816135b6565b9050919050565b60006020820190508181036000830152613962816135fc565b9050919050565b600060208201905081810360008301526139828161361f565b9050919050565b600060208201905061399e6000830184613642565b92915050565b60006020820190506139b96000830184613651565b92915050565b600081519050919050565b600082825260208201905092915050565b600081905092915050565b60006139f182613b3e565b91506139fc83613b3e565b9250827fffffffffffffffffffffffffffffffffffffffffffffffffffffffffffffffff03821115613a3157613a30613be4565b5b828201905092915050565b6000613a4782613b3e565b9150613a5283613b3e565b9250817fffffffffffffffffffffffffffffffffffffffffffffffffffffffffffffffff0483118215151615613a8b57613a8a613be4565b5b828202905092915050565b6000613aa182613b3e565b9150613aac83613b3e565b925082821015613abf57613abe613be4565b5b828203905092915050565b6000613ad582613b1e565b9050919050565b60008115159050919050565b6000819050919050565b60007fffffffff0000000000000000000000000000000000000000000000000000000082169050919050565b600073ffffffffffffffffffffffffffffffffffffffff82169050919050565b6000819050919050565b600060ff82169050919050565b60005b83811015613b73578082015181840152602081019050613b58565b83811115613b82576000848401525b50505050565b6000613b9382613b3e565b91506000821415613ba757613ba6613be4565b5b600182039050919050565b60006002820490506001821680613bca57607f821691505b60208210811415613bde57613bdd613c13565b5b50919050565b7f4e487b7100000000000000000000000000000000000000000000000000000000600052601160045260246000fd5b7f4e487b7100000000000000000000000000000000000000000000000000000000600052602260045260246000fd5b6000601f19601f8301169050919050565b7f537472696e67733a20686578206c656e67746820696e73756666696369656e74600082015250565b7f45524332303a207472616e7366657220746f20746865207a65726f206164647260008201527f6573730000000000000000000000000000000000000000000000000000000000602082015250565b7f5061757361626c653a206e6f7420706175736564000000000000000000000000600082015250565b7f45524332303a206275726e20616d6f756e7420657863656564732062616c616e60008201527f6365000000000000000000000000000000000000000000000000000000000000602082015250565b7f45524332303a20617070726f766520746f20746865207a65726f20616464726560008201527f7373000000000000000000000000000000000000000000000000000000000000602082015250565b7f61646472657373206973206e6f7420612076657269666965642070726f6a656360008201527f7400000000000000000000000000000000000000000000000000000000000000602082015250565b7f45524332303a20696e73756666696369656e7420616c6c6f77616e6365000000600082015250565b7f45524332303a207472616e7366657220616d6f756e742065786365656473206260008201527f616c616e63650000000000000000000000000000000000000000000000000000602082015250565b7f5061757361626c653a2070617573656400000000000000000000000000000000600082015250565b7f4e6f7420616c6c6f776564000000000000000000000000000000000000000000600082015250565b7f45524332303a206275726e2066726f6d20746865207a65726f2061646472657360008201527f7300000000000000000000000000000000000000000000000000000000000000602082015250565b7f45524332303a207472616e736665722066726f6d20746865207a65726f20616460008201527f6472657373000000000000000000000000000000000000000000000000000000602082015250565b7f45524332303a20617070726f76652066726f6d20746865207a65726f2061646460008201527f7265737300000000000000000000000000000000000000000000000000000000602082015250565b7f416363657373436f6e74726f6c3a206163636f756e7420000000000000000000600082015250565b7f45524332303a2064656372656173656420616c6c6f77616e63652062656c6f7760008201527f207a65726f000000000000000000000000000000000000000000000000000000602082015250565b7f206973206d697373696e6720726f6c6520000000000000000000000000000000600082015250565b7f416363657373436f6e74726f6c3a2063616e206f6e6c792072656e6f756e636560008201527f20726f6c657320666f722073656c660000000000000000000000000000000000602082015250565b7f45524332303a206d696e7420746f20746865207a65726f206164647265737300600082015250565b6140ba81613aca565b81146140c557600080fd5b50565b6140d181613adc565b81146140dc57600080fd5b50565b6140e881613ae8565b81146140f357600080fd5b50565b6140ff81613af2565b811461410a57600080fd5b50565b61411681613b3e565b811461412157600080fd5b5056fea2646970667358221220e994b4fc53c7215848142b27979c88674b08bbe44aae5807ac75c25143d80c9f64736f6c63430008030033",
  "immutableReferences": {},
  "source": "// SPDX-License-Identifier: MIT\npragma solidity >=0.4.22 <0.9.0;\n// ERC20 for token\n// ERC721 will be required for nft receipt\n// Burnable is required for yearly burning\n// Access control for assigning responsibilities\n\nimport \"../node_modules/@openzeppelin/contracts/token/ERC20/ERC20.sol\";\nimport \"../node_modules/@openzeppelin/contracts/token/ERC20/extensions/ERC20Burnable.sol\";\nimport \"../node_modules/@openzeppelin/contracts/security/Pausable.sol\";\nimport \"../node_modules/@openzeppelin/contracts/access/AccessControl.sol\";\nimport \"../node_modules/@openzeppelin/contracts/utils/math/SafeMath.sol\";\n\ncontract GreenToken is ERC20, ERC20Burnable, Pausable, AccessControl {\n    using SafeMath for uint256;\n    //Create roles\n    bytes32 public constant VERIFIER_ROLE = keccak256(\"VERIFIER_ROLE\");\n    bytes32 public constant GOVERNER_ROLE = keccak256(\"GOVERNER_ROLE\");\n    bytes32 public constant COMPANY_ROLE = keccak256(\"COMPANY_ROLE\");\n    bytes32 public constant PROJECT_ROLE = keccak256(\"PROJECT_ROLE\");\n\n    uint256 Rate =1;\n    // uint256 public INITIAL_SUPPLY = 1000*(10 ** uint256(decimals));\n    enum Roles{ GOV, VALIDATOR, COMPANY, PROJECT }\n\n    //list of addresses requesting verification\n    //Should be poped out once they are analysed\n    // address[] private addressesRequestingVerifierRole;\n    mapping(address => bool) private addressesRequestingVerifierRole;\n    address owner;\n\n\n    struct KYC_Company {\n        string registrationID;\n        uint256 tco2Emission;\n        uint256 gntTokenBalance;\n        string document_uri;\n    }\n\n    \n    struct KYC_Project {\n        string registrationID;\n        uint256 tco2Reduction;\n        uint256 gntTokenBalance;\n        string document_uri;\n    }\n    mapping(address => KYC_Company) private addressesRequestingCompanyVerification;\n    mapping(address => KYC_Project) private addressesRequestingProjectVerification;\n\n    mapping(address => KYC_Company) public verifiedCompanies;\n    mapping(address => KYC_Project) public verifiedProjects;\n\n    constructor() ERC20(\"GreenToken\", \"GNT\") {\n        //assign all initial roles to contract creator\n        _grantRole(DEFAULT_ADMIN_ROLE, msg.sender);\n        _grantRole(VERIFIER_ROLE, msg.sender);\n        _grantRole(GOVERNER_ROLE, msg.sender);\n        _grantRole(COMPANY_ROLE, msg.sender);\n        _grantRole(PROJECT_ROLE, msg.sender);\n\n        _setRoleAdmin(PROJECT_ROLE,VERIFIER_ROLE);\n        _setRoleAdmin(COMPANY_ROLE,VERIFIER_ROLE);\n        _setRoleAdmin(VERIFIER_ROLE,GOVERNER_ROLE);\n        _setRoleAdmin(GOVERNER_ROLE,DEFAULT_ADMIN_ROLE);\n\n        //mint init token\n        // uint256 totalSupply = 10000 * (10 ** uint256(decimals));\n        // _mint(msg.sender, 10000 * (10 **uint256(decimals)));\n        _mint(address(this), 9000 * (10 **18));\n        // uint256 totalSupply = 10000 * (10 ** uint256(decimals));\n        //  owner = msg.sender;\n        \n    }\n\n    //request verifier role\n    function requestVerifierRole() public{\n        addressesRequestingVerifierRole[msg.sender]=true;\n    }\n\n    //grant verifier  role\n    function grantVerifierRole(address applicantAddress) public onlyRole(getRoleAdmin(VERIFIER_ROLE)){\n        _grantRole(VERIFIER_ROLE,applicantAddress);\n        delete addressesRequestingVerifierRole[applicantAddress];\n    }\n\n    //Reject verifier application\n    function rejectVerifierApplication(address applicantAddress) public onlyRole(getRoleAdmin(VERIFIER_ROLE)){\n        delete addressesRequestingVerifierRole[applicantAddress];\n    }\n\n\n    //Company request to review their CO2 emission\n    //change memory to calldata?\n    function requestCompanyVerification( string calldata _registrationID, uint256 _tco2Emission, uint256 _gntTokenBalance, string calldata _document_uri) public{\n        //save in addressesRequestingCompanyVerification\n        addressesRequestingCompanyVerification[msg.sender]= KYC_Company(_registrationID, _tco2Emission, _gntTokenBalance, _document_uri);\n    }\n                \n    //Accept company request\n\n    function companyApplicationVerified(address _companyAddress) public onlyRole(getRoleAdmin(COMPANY_ROLE)){\n        _grantRole(COMPANY_ROLE,_companyAddress);\n        //add to verified company list\n        verifiedCompanies[_companyAddress] = addressesRequestingCompanyVerification[_companyAddress];\n        //verify if it is a copy or just referncing otherwise after delete phase, the data will be removed from verified compan yas ell\n        delete addressesRequestingCompanyVerification[_companyAddress];\n\n        //emit event to be done\n    }\n\n    //Reject company request\n    function companyApplicationRejected(address _companyAddress) public onlyRole(getRoleAdmin(COMPANY_ROLE)){\n        delete addressesRequestingCompanyVerification[_companyAddress];\n            //emit event to be done\n\n    }\n\n\n    //Project request to review their CO2 offset\n\n     function requestProjectVerification( string calldata _registrationID, uint256 _tco2Reduction, uint256 _gntTokenBalance, string calldata _document_uri) public{\n        //save in addressesRequestingProjectVerification\n        addressesRequestingProjectVerification[msg.sender]= KYC_Project(_registrationID, _tco2Reduction, _gntTokenBalance, _document_uri);\n    }\n    \n    //Accept project requet\n    function projectApplicationVerified(address _projectAddress) public onlyRole(getRoleAdmin(PROJECT_ROLE)){\n        _grantRole(PROJECT_ROLE,_projectAddress);\n        //add to verified project list\n        verifiedProjects[_projectAddress] = addressesRequestingProjectVerification[_projectAddress];\n        //verify if it is a copy or just referncing otherwise after delete phase, the data will be removed from verified compan yas ell\n        delete addressesRequestingProjectVerification[_projectAddress];\n\n        //mint equivalent tokens\n        mint(_projectAddress, (verifiedProjects[_projectAddress].tco2Reduction).mul(Rate));\n        //emit event to be done\n    }\n\n    //Reject proejct request\n    function projectApplicationRejected(address _projectAddress) public onlyRole(getRoleAdmin(PROJECT_ROLE)){\n        delete addressesRequestingProjectVerification[_projectAddress];\n            //emit event to be done\n\n    }\n\n\n\n    function pause() public onlyRole(GOVERNER_ROLE) {\n        _pause();\n    }\n\n    function unpause() public onlyRole(GOVERNER_ROLE) {\n        _unpause();\n    }\n\n\n    /*\n    ERC20 methods\n    */\n\n    // Mint function is private since, it will be called by another func\n    function mint(address to, uint256 amount) public onlyRole(VERIFIER_ROLE) {\n        // Pop out the specific address\n        \n        require(hasRole(PROJECT_ROLE,to), \"address is not a verified project\");\n        _mint(to, amount*(10**18));\n        //Emit event (to be done)\n    }\n\n\n    /*Function for buying token by sending equivalent ether to contract\n        Buying token by company means:\n        1. Company request to buy XX GNT \n        2. Check if sufficient GNT/ETH in the account\n        3. Payable Eth receive, and then send equivalent token to the account\n        4. Emit event \n        5. Issue NFT for the transaction\n        \n        \n\n        Function to sell token to contract\n        1. Check sufficient balance in contract account\n        2. Rate decided by the contract\n        3. Add the asked token to the pool, and pay to the requesting amount in ETH equivalent\n        4. Emit event\n        5. Issue NFT for the transaction\n    */\n\n    //Implementation\n    function buyToken(address _tokenAddress) public payable { //onlyRole(COMPANY_ROLE)\n        // verifiedCompanies[msg.sender].gntTokenBalance.add(msg.value);\n        // approve(address(this),msg.value);\n        require(hasRole(COMPANY_ROLE,msg.sender) || hasRole(PROJECT_ROLE, msg.sender), \"Not allowed\");\n        IERC20 tokenContract = IERC20(_tokenAddress);\n        // transferFrom(owner,msg.sender,msg.value*(10**18)); //to transfer in max token unit\n        tokenContract.transfer(msg.sender, msg.value);\n        // address(this).send()\n\n    }\n\n    function sellToken(  uint256 amount) public{ //address _tokenAddress\n        // require(hasRole(COMPANY_ROLE,msg.sender) || hasRole(PROJECT_ROLE, msg.sender), \"Not allowed\");\n        // IERC20 tokenContract = IERC20(_tokenAddress);\n        payable(msg.sender).transfer( amount*(10**18));\n        transfer(address(this), amount*(10**18));\n    }\n\n\n\n\n\n    function _beforeTokenTransfer(address from, address to, uint256 amount)\n        internal\n        whenNotPaused\n        override\n    {\n        super._beforeTokenTransfer(from, to, amount);\n    }\n}",
  "sourcePath": "/home/trowk/CCT_NetZero/contracts/GreenToken.sol",
  "compiler": {
    "name": "solc",
    "version": "0.8.3+commit.8d00100c.Emscripten.clang"
  },
  "schemaVersion": "3.4.6",
  "updatedAt": "2022-04-13T23:20:21.857Z",
  "devdoc": {
    "kind": "dev",
    "methods": {
      "allowance(address,address)": {
        "details": "See {IERC20-allowance}."
      },
      "approve(address,uint256)": {
        "details": "See {IERC20-approve}. NOTE: If `amount` is the maximum `uint256`, the allowance is not updated on `transferFrom`. This is semantically equivalent to an infinite approval. Requirements: - `spender` cannot be the zero address."
      },
      "balanceOf(address)": {
        "details": "See {IERC20-balanceOf}."
      },
      "burn(uint256)": {
        "details": "Destroys `amount` tokens from the caller. See {ERC20-_burn}."
      },
      "burnFrom(address,uint256)": {
        "details": "Destroys `amount` tokens from `account`, deducting from the caller's allowance. See {ERC20-_burn} and {ERC20-allowance}. Requirements: - the caller must have allowance for ``accounts``'s tokens of at least `amount`."
      },
      "decimals()": {
        "details": "Returns the number of decimals used to get its user representation. For example, if `decimals` equals `2`, a balance of `505` tokens should be displayed to a user as `5.05` (`505 / 10 ** 2`). Tokens usually opt for a value of 18, imitating the relationship between Ether and Wei. This is the value {ERC20} uses, unless this function is overridden; NOTE: This information is only used for _display_ purposes: it in no way affects any of the arithmetic of the contract, including {IERC20-balanceOf} and {IERC20-transfer}."
      },
      "decreaseAllowance(address,uint256)": {
        "details": "Atomically decreases the allowance granted to `spender` by the caller. This is an alternative to {approve} that can be used as a mitigation for problems described in {IERC20-approve}. Emits an {Approval} event indicating the updated allowance. Requirements: - `spender` cannot be the zero address. - `spender` must have allowance for the caller of at least `subtractedValue`."
      },
      "getRoleAdmin(bytes32)": {
        "details": "Returns the admin role that controls `role`. See {grantRole} and {revokeRole}. To change a role's admin, use {_setRoleAdmin}."
      },
      "grantRole(bytes32,address)": {
        "details": "Grants `role` to `account`. If `account` had not been already granted `role`, emits a {RoleGranted} event. Requirements: - the caller must have ``role``'s admin role."
      },
      "hasRole(bytes32,address)": {
        "details": "Returns `true` if `account` has been granted `role`."
      },
      "increaseAllowance(address,uint256)": {
        "details": "Atomically increases the allowance granted to `spender` by the caller. This is an alternative to {approve} that can be used as a mitigation for problems described in {IERC20-approve}. Emits an {Approval} event indicating the updated allowance. Requirements: - `spender` cannot be the zero address."
      },
      "name()": {
        "details": "Returns the name of the token."
      },
      "paused()": {
        "details": "Returns true if the contract is paused, and false otherwise."
      },
      "renounceRole(bytes32,address)": {
        "details": "Revokes `role` from the calling account. Roles are often managed via {grantRole} and {revokeRole}: this function's purpose is to provide a mechanism for accounts to lose their privileges if they are compromised (such as when a trusted device is misplaced). If the calling account had been revoked `role`, emits a {RoleRevoked} event. Requirements: - the caller must be `account`."
      },
      "revokeRole(bytes32,address)": {
        "details": "Revokes `role` from `account`. If `account` had been granted `role`, emits a {RoleRevoked} event. Requirements: - the caller must have ``role``'s admin role."
      },
      "supportsInterface(bytes4)": {
        "details": "See {IERC165-supportsInterface}."
      },
      "symbol()": {
        "details": "Returns the symbol of the token, usually a shorter version of the name."
      },
      "totalSupply()": {
        "details": "See {IERC20-totalSupply}."
      },
      "transfer(address,uint256)": {
        "details": "See {IERC20-transfer}. Requirements: - `to` cannot be the zero address. - the caller must have a balance of at least `amount`."
      },
      "transferFrom(address,address,uint256)": {
        "details": "See {IERC20-transferFrom}. Emits an {Approval} event indicating the updated allowance. This is not required by the EIP. See the note at the beginning of {ERC20}. NOTE: Does not update the allowance if the current allowance is the maximum `uint256`. Requirements: - `from` and `to` cannot be the zero address. - `from` must have a balance of at least `amount`. - the caller must have allowance for ``from``'s tokens of at least `amount`."
      }
    },
    "version": 1
  },
  "userdoc": {
    "kind": "user",
    "methods": {},
    "version": 1
  }
}