{
  "contractName": "GreenToken",
  "abi": [
    {
      "inputs": [
        {
          "internalType": "uint256",
          "name": "tokenQty",
          "type": "uint256"
        }
      ],
      "stateMutability": "nonpayable",
      "type": "constructor"
    },
    {
      "anonymous": false,
      "inputs": [
        {
          "indexed": true,
          "internalType": "address",
          "name": "owner",
          "type": "address"
        },
        {
          "indexed": true,
          "internalType": "address",
          "name": "spender",
          "type": "address"
        },
        {
          "indexed": false,
          "internalType": "uint256",
          "name": "value",
          "type": "uint256"
        }
      ],
      "name": "Approval",
      "type": "event"
    },
    {
      "anonymous": false,
      "inputs": [
        {
          "indexed": false,
          "internalType": "address",
          "name": "account",
          "type": "address"
        }
      ],
      "name": "Paused",
      "type": "event"
    },
    {
      "anonymous": false,
      "inputs": [
        {
          "indexed": true,
          "internalType": "bytes32",
          "name": "role",
          "type": "bytes32"
        },
        {
          "indexed": true,
          "internalType": "bytes32",
          "name": "previousAdminRole",
          "type": "bytes32"
        },
        {
          "indexed": true,
          "internalType": "bytes32",
          "name": "newAdminRole",
          "type": "bytes32"
        }
      ],
      "name": "RoleAdminChanged",
      "type": "event"
    },
    {
      "anonymous": false,
      "inputs": [
        {
          "indexed": true,
          "internalType": "bytes32",
          "name": "role",
          "type": "bytes32"
        },
        {
          "indexed": true,
          "internalType": "address",
          "name": "account",
          "type": "address"
        },
        {
          "indexed": true,
          "internalType": "address",
          "name": "sender",
          "type": "address"
        }
      ],
      "name": "RoleGranted",
      "type": "event"
    },
    {
      "anonymous": false,
      "inputs": [
        {
          "indexed": true,
          "internalType": "bytes32",
          "name": "role",
          "type": "bytes32"
        },
        {
          "indexed": true,
          "internalType": "address",
          "name": "account",
          "type": "address"
        },
        {
          "indexed": true,
          "internalType": "address",
          "name": "sender",
          "type": "address"
        }
      ],
      "name": "RoleRevoked",
      "type": "event"
    },
    {
      "anonymous": false,
      "inputs": [
        {
          "indexed": false,
          "internalType": "bool",
          "name": "",
          "type": "bool"
        },
        {
          "indexed": false,
          "internalType": "address",
          "name": "",
          "type": "address"
        }
      ],
      "name": "STATUS",
      "type": "event"
    },
    {
      "anonymous": false,
      "inputs": [
        {
          "indexed": true,
          "internalType": "address",
          "name": "from",
          "type": "address"
        },
        {
          "indexed": true,
          "internalType": "address",
          "name": "to",
          "type": "address"
        },
        {
          "indexed": false,
          "internalType": "uint256",
          "name": "value",
          "type": "uint256"
        }
      ],
      "name": "Transfer",
      "type": "event"
    },
    {
      "anonymous": false,
      "inputs": [
        {
          "indexed": false,
          "internalType": "address",
          "name": "account",
          "type": "address"
        }
      ],
      "name": "Unpaused",
      "type": "event"
    },
    {
      "inputs": [],
      "name": "COMPANY_ROLE",
      "outputs": [
        {
          "internalType": "bytes32",
          "name": "",
          "type": "bytes32"
        }
      ],
      "stateMutability": "view",
      "type": "function",
      "constant": true
    },
    {
      "inputs": [],
      "name": "DEFAULT_ADMIN_ROLE",
      "outputs": [
        {
          "internalType": "bytes32",
          "name": "",
          "type": "bytes32"
        }
      ],
      "stateMutability": "view",
      "type": "function",
      "constant": true
    },
    {
      "inputs": [],
      "name": "GOVERNER_ROLE",
      "outputs": [
        {
          "internalType": "bytes32",
          "name": "",
          "type": "bytes32"
        }
      ],
      "stateMutability": "view",
      "type": "function",
      "constant": true
    },
    {
      "inputs": [],
      "name": "PROJECT_ROLE",
      "outputs": [
        {
          "internalType": "bytes32",
          "name": "",
          "type": "bytes32"
        }
      ],
      "stateMutability": "view",
      "type": "function",
      "constant": true
    },
    {
      "inputs": [],
      "name": "VERIFIER_ROLE",
      "outputs": [
        {
          "internalType": "bytes32",
          "name": "",
          "type": "bytes32"
        }
      ],
      "stateMutability": "view",
      "type": "function",
      "constant": true
    },
    {
      "inputs": [
        {
          "internalType": "address",
          "name": "owner",
          "type": "address"
        },
        {
          "internalType": "address",
          "name": "spender",
          "type": "address"
        }
      ],
      "name": "allowance",
      "outputs": [
        {
          "internalType": "uint256",
          "name": "",
          "type": "uint256"
        }
      ],
      "stateMutability": "view",
      "type": "function",
      "constant": true
    },
    {
      "inputs": [
        {
          "internalType": "address",
          "name": "spender",
          "type": "address"
        },
        {
          "internalType": "uint256",
          "name": "amount",
          "type": "uint256"
        }
      ],
      "name": "approve",
      "outputs": [
        {
          "internalType": "bool",
          "name": "",
          "type": "bool"
        }
      ],
      "stateMutability": "nonpayable",
      "type": "function"
    },
    {
      "inputs": [
        {
          "internalType": "address",
          "name": "account",
          "type": "address"
        }
      ],
      "name": "balanceOf",
      "outputs": [
        {
          "internalType": "uint256",
          "name": "",
          "type": "uint256"
        }
      ],
      "stateMutability": "view",
      "type": "function",
      "constant": true
    },
    {
      "inputs": [
        {
          "internalType": "uint256",
          "name": "amount",
          "type": "uint256"
        }
      ],
      "name": "burn",
      "outputs": [],
      "stateMutability": "nonpayable",
      "type": "function"
    },
    {
      "inputs": [
        {
          "internalType": "address",
          "name": "account",
          "type": "address"
        },
        {
          "internalType": "uint256",
          "name": "amount",
          "type": "uint256"
        }
      ],
      "name": "burnFrom",
      "outputs": [],
      "stateMutability": "nonpayable",
      "type": "function"
    },
    {
      "inputs": [
        {
          "internalType": "uint256",
          "name": "",
          "type": "uint256"
        }
      ],
      "name": "company_request_address",
      "outputs": [
        {
          "internalType": "address",
          "name": "",
          "type": "address"
        }
      ],
      "stateMutability": "view",
      "type": "function",
      "constant": true
    },
    {
      "inputs": [],
      "name": "decimals",
      "outputs": [
        {
          "internalType": "uint8",
          "name": "",
          "type": "uint8"
        }
      ],
      "stateMutability": "view",
      "type": "function",
      "constant": true
    },
    {
      "inputs": [
        {
          "internalType": "address",
          "name": "spender",
          "type": "address"
        },
        {
          "internalType": "uint256",
          "name": "subtractedValue",
          "type": "uint256"
        }
      ],
      "name": "decreaseAllowance",
      "outputs": [
        {
          "internalType": "bool",
          "name": "",
          "type": "bool"
        }
      ],
      "stateMutability": "nonpayable",
      "type": "function"
    },
    {
      "inputs": [
        {
          "internalType": "bytes32",
          "name": "role",
          "type": "bytes32"
        }
      ],
      "name": "getRoleAdmin",
      "outputs": [
        {
          "internalType": "bytes32",
          "name": "",
          "type": "bytes32"
        }
      ],
      "stateMutability": "view",
      "type": "function",
      "constant": true
    },
    {
      "inputs": [
        {
          "internalType": "bytes32",
          "name": "role",
          "type": "bytes32"
        },
        {
          "internalType": "address",
          "name": "account",
          "type": "address"
        }
      ],
      "name": "grantRole",
      "outputs": [],
      "stateMutability": "nonpayable",
      "type": "function"
    },
    {
      "inputs": [
        {
          "internalType": "bytes32",
          "name": "role",
          "type": "bytes32"
        },
        {
          "internalType": "address",
          "name": "account",
          "type": "address"
        }
      ],
      "name": "hasRole",
      "outputs": [
        {
          "internalType": "bool",
          "name": "",
          "type": "bool"
        }
      ],
      "stateMutability": "view",
      "type": "function",
      "constant": true
    },
    {
      "inputs": [
        {
          "internalType": "address",
          "name": "spender",
          "type": "address"
        },
        {
          "internalType": "uint256",
          "name": "addedValue",
          "type": "uint256"
        }
      ],
      "name": "increaseAllowance",
      "outputs": [
        {
          "internalType": "bool",
          "name": "",
          "type": "bool"
        }
      ],
      "stateMutability": "nonpayable",
      "type": "function"
    },
    {
      "inputs": [],
      "name": "name",
      "outputs": [
        {
          "internalType": "string",
          "name": "",
          "type": "string"
        }
      ],
      "stateMutability": "view",
      "type": "function",
      "constant": true
    },
    {
      "inputs": [],
      "name": "paused",
      "outputs": [
        {
          "internalType": "bool",
          "name": "",
          "type": "bool"
        }
      ],
      "stateMutability": "view",
      "type": "function",
      "constant": true
    },
    {
      "inputs": [
        {
          "internalType": "uint256",
          "name": "",
          "type": "uint256"
        }
      ],
      "name": "project_request_address",
      "outputs": [
        {
          "internalType": "address",
          "name": "",
          "type": "address"
        }
      ],
      "stateMutability": "view",
      "type": "function",
      "constant": true
    },
    {
      "inputs": [
        {
          "internalType": "bytes32",
          "name": "role",
          "type": "bytes32"
        },
        {
          "internalType": "address",
          "name": "account",
          "type": "address"
        }
      ],
      "name": "renounceRole",
      "outputs": [],
      "stateMutability": "nonpayable",
      "type": "function"
    },
    {
      "inputs": [
        {
          "internalType": "bytes32",
          "name": "role",
          "type": "bytes32"
        },
        {
          "internalType": "address",
          "name": "account",
          "type": "address"
        }
      ],
      "name": "revokeRole",
      "outputs": [],
      "stateMutability": "nonpayable",
      "type": "function"
    },
    {
      "inputs": [
        {
          "internalType": "bytes4",
          "name": "interfaceId",
          "type": "bytes4"
        }
      ],
      "name": "supportsInterface",
      "outputs": [
        {
          "internalType": "bool",
          "name": "",
          "type": "bool"
        }
      ],
      "stateMutability": "view",
      "type": "function",
      "constant": true
    },
    {
      "inputs": [],
      "name": "symbol",
      "outputs": [
        {
          "internalType": "string",
          "name": "",
          "type": "string"
        }
      ],
      "stateMutability": "view",
      "type": "function",
      "constant": true
    },
    {
      "inputs": [],
      "name": "tokenContract",
      "outputs": [
        {
          "internalType": "contract IERC20",
          "name": "",
          "type": "address"
        }
      ],
      "stateMutability": "view",
      "type": "function",
      "constant": true
    },
    {
      "inputs": [],
      "name": "totalSupply",
      "outputs": [
        {
          "internalType": "uint256",
          "name": "",
          "type": "uint256"
        }
      ],
      "stateMutability": "view",
      "type": "function",
      "constant": true
    },
    {
      "inputs": [
        {
          "internalType": "address",
          "name": "to",
          "type": "address"
        },
        {
          "internalType": "uint256",
          "name": "amount",
          "type": "uint256"
        }
      ],
      "name": "transfer",
      "outputs": [
        {
          "internalType": "bool",
          "name": "",
          "type": "bool"
        }
      ],
      "stateMutability": "nonpayable",
      "type": "function"
    },
    {
      "inputs": [
        {
          "internalType": "address",
          "name": "from",
          "type": "address"
        },
        {
          "internalType": "address",
          "name": "to",
          "type": "address"
        },
        {
          "internalType": "uint256",
          "name": "amount",
          "type": "uint256"
        }
      ],
      "name": "transferFrom",
      "outputs": [
        {
          "internalType": "bool",
          "name": "",
          "type": "bool"
        }
      ],
      "stateMutability": "nonpayable",
      "type": "function"
    },
    {
      "inputs": [
        {
          "internalType": "address",
          "name": "",
          "type": "address"
        }
      ],
      "name": "verifiedCompanies",
      "outputs": [
        {
          "internalType": "string",
          "name": "registrationID",
          "type": "string"
        },
        {
          "internalType": "uint256",
          "name": "tco2Emission",
          "type": "uint256"
        },
        {
          "internalType": "uint256",
          "name": "gntTokenBalance",
          "type": "uint256"
        },
        {
          "internalType": "string",
          "name": "document_uri",
          "type": "string"
        },
        {
          "internalType": "bool",
          "name": "appliedForVerification",
          "type": "bool"
        }
      ],
      "stateMutability": "view",
      "type": "function",
      "constant": true
    },
    {
      "inputs": [
        {
          "internalType": "address",
          "name": "",
          "type": "address"
        }
      ],
      "name": "verifiedProjects",
      "outputs": [
        {
          "internalType": "string",
          "name": "registrationID",
          "type": "string"
        },
        {
          "internalType": "uint256",
          "name": "tco2Reduction",
          "type": "uint256"
        },
        {
          "internalType": "uint256",
          "name": "gntTokenBalance",
          "type": "uint256"
        },
        {
          "internalType": "string",
          "name": "document_uri",
          "type": "string"
        },
        {
          "internalType": "bool",
          "name": "appliedForVerification",
          "type": "bool"
        }
      ],
      "stateMutability": "view",
      "type": "function",
      "constant": true
    },
    {
      "inputs": [
        {
          "internalType": "uint256",
          "name": "",
          "type": "uint256"
        }
      ],
      "name": "verifier_request_address",
      "outputs": [
        {
          "internalType": "address",
          "name": "",
          "type": "address"
        }
      ],
      "stateMutability": "view",
      "type": "function",
      "constant": true
    },
    {
      "inputs": [],
      "name": "getVerifierRequests",
      "outputs": [
        {
          "internalType": "address[]",
          "name": "",
          "type": "address[]"
        }
      ],
      "stateMutability": "view",
      "type": "function",
      "constant": true
    },
    {
      "inputs": [],
      "name": "getCompanyRequests",
      "outputs": [
        {
          "internalType": "address[]",
          "name": "",
          "type": "address[]"
        }
      ],
      "stateMutability": "view",
      "type": "function",
      "constant": true
    },
    {
      "inputs": [],
      "name": "getProjectRequests",
      "outputs": [
        {
          "internalType": "address[]",
          "name": "",
          "type": "address[]"
        }
      ],
      "stateMutability": "view",
      "type": "function",
      "constant": true
    },
    {
      "inputs": [],
      "name": "requestVerifierRole",
      "outputs": [],
      "stateMutability": "nonpayable",
      "type": "function"
    },
    {
      "inputs": [
        {
          "internalType": "address",
          "name": "applicantAddress",
          "type": "address"
        }
      ],
      "name": "grantVerifierRole",
      "outputs": [],
      "stateMutability": "nonpayable",
      "type": "function"
    },
    {
      "inputs": [
        {
          "internalType": "address",
          "name": "applicantAddress",
          "type": "address"
        }
      ],
      "name": "rejectVerifierApplication",
      "outputs": [],
      "stateMutability": "nonpayable",
      "type": "function"
    },
    {
      "inputs": [
        {
          "internalType": "string",
          "name": "_registrationID",
          "type": "string"
        },
        {
          "internalType": "uint256",
          "name": "_tco2Emission",
          "type": "uint256"
        },
        {
          "internalType": "uint256",
          "name": "_gntTokenBalance",
          "type": "uint256"
        },
        {
          "internalType": "string",
          "name": "_document_uri",
          "type": "string"
        }
      ],
      "name": "requestCompanyVerification",
      "outputs": [],
      "stateMutability": "nonpayable",
      "type": "function"
    },
    {
      "inputs": [
        {
          "internalType": "address",
          "name": "_companyAddress",
          "type": "address"
        }
      ],
      "name": "companyApplicationVerified",
      "outputs": [],
      "stateMutability": "nonpayable",
      "type": "function"
    },
    {
      "inputs": [
        {
          "internalType": "address",
          "name": "_companyAddress",
          "type": "address"
        }
      ],
      "name": "companyApplicationRejected",
      "outputs": [],
      "stateMutability": "nonpayable",
      "type": "function"
    },
    {
      "inputs": [
        {
          "internalType": "string",
          "name": "_registrationID",
          "type": "string"
        },
        {
          "internalType": "uint256",
          "name": "_tco2Reduction",
          "type": "uint256"
        },
        {
          "internalType": "uint256",
          "name": "_gntTokenBalance",
          "type": "uint256"
        },
        {
          "internalType": "string",
          "name": "_document_uri",
          "type": "string"
        }
      ],
      "name": "requestProjectVerification",
      "outputs": [],
      "stateMutability": "nonpayable",
      "type": "function"
    },
    {
      "inputs": [
        {
          "internalType": "address",
          "name": "_projectAddress",
          "type": "address"
        }
      ],
      "name": "projectApplicationVerified",
      "outputs": [],
      "stateMutability": "nonpayable",
      "type": "function"
    },
    {
      "inputs": [
        {
          "internalType": "address",
          "name": "_projectAddress",
          "type": "address"
        }
      ],
      "name": "projectApplicationRejected",
      "outputs": [],
      "stateMutability": "nonpayable",
      "type": "function"
    },
    {
      "inputs": [],
      "name": "pause",
      "outputs": [],
      "stateMutability": "nonpayable",
      "type": "function"
    },
    {
      "inputs": [],
      "name": "unpause",
      "outputs": [],
      "stateMutability": "nonpayable",
      "type": "function"
    },
    {
      "inputs": [
        {
          "internalType": "address",
          "name": "to",
          "type": "address"
        },
        {
          "internalType": "uint256",
          "name": "amount",
          "type": "uint256"
        }
      ],
      "name": "mint",
      "outputs": [],
      "stateMutability": "nonpayable",
      "type": "function"
    },
    {
      "inputs": [],
      "name": "buyToken",
      "outputs": [],
      "stateMutability": "payable",
      "type": "function",
      "payable": true
    },
    {
      "inputs": [
        {
          "internalType": "uint256",
          "name": "token",
          "type": "uint256"
        }
      ],
      "name": "sellToken",
      "outputs": [],
      "stateMutability": "nonpayable",
      "type": "function"
    }
  ],
  "bytecode": "0x6080604052600260075560056008553480156200001b57600080fd5b5060405162005f8038038062005f8083398181016040528101906200004191906200086e565b6040518060400160405280600a81526020017f477265656e546f6b656e000000000000000000000000000000000000000000008152506040518060400160405280600381526020017f474e5400000000000000000000000000000000000000000000000000000000008152508160039080519060200190620000c5929190620007a7565b508060049080519060200190620000de929190620007a7565b5050506000600560006101000a81548160ff021916908315150217905550620001116000801b33620003b460201b60201c565b620001437f0ce23c3e399818cfee81a7ab0880f714e53d7672b08df0fa62f2843416e1ea0933620003b460201b60201c565b620001757f704c992d358ec8f6051d88e5bd9f92457afedcbc3e2d110fcd019b5eda48e52e33620003b460201b60201c565b620001a77f9e1688b53537f356172ce07f39e129155063957163c5f9462d4d9e55b228b06c33620003b460201b60201c565b620001d97f99b4cb81d693045578a6795d2045a8e4a6dc2d789bd539397ae2ce05c660459933620003b460201b60201c565b6200022b7f99b4cb81d693045578a6795d2045a8e4a6dc2d789bd539397ae2ce05c66045997f0ce23c3e399818cfee81a7ab0880f714e53d7672b08df0fa62f2843416e1ea09620004a660201b60201c565b6200027d7f9e1688b53537f356172ce07f39e129155063957163c5f9462d4d9e55b228b06c7f0ce23c3e399818cfee81a7ab0880f714e53d7672b08df0fa62f2843416e1ea09620004a660201b60201c565b620002cf7f0ce23c3e399818cfee81a7ab0880f714e53d7672b08df0fa62f2843416e1ea097f704c992d358ec8f6051d88e5bd9f92457afedcbc3e2d110fcd019b5eda48e52e620004a660201b60201c565b620003047f704c992d358ec8f6051d88e5bd9f92457afedcbc3e2d110fcd019b5eda48e52e6000801b620004a660201b60201c565b6200032b30670de0b6b3a7640000836200031f9190620009c8565b6200050a60201b60201c565b33600a60006101000a81548173ffffffffffffffffffffffffffffffffffffffff021916908373ffffffffffffffffffffffffffffffffffffffff16021790555030601260006101000a81548173ffffffffffffffffffffffffffffffffffffffff021916908373ffffffffffffffffffffffffffffffffffffffff1602179055505062000b33565b620003c682826200068360201b60201c565b620004a25760016006600084815260200190815260200160002060000160008373ffffffffffffffffffffffffffffffffffffffff1673ffffffffffffffffffffffffffffffffffffffff16815260200190815260200160002060006101000a81548160ff02191690831515021790555062000447620006ee60201b60201c565b73ffffffffffffffffffffffffffffffffffffffff168173ffffffffffffffffffffffffffffffffffffffff16837f2f8788117e7eff1d82e926ec794901d17c78024a50270940304540a733656f0d60405160405180910390a45b5050565b6000620004b983620006f660201b60201c565b90508160066000858152602001908152602001600020600101819055508181847fbd79b86ffe0ab8e8776151514217cd7cacd52c909f66475c3af44e129f0b00ff60405160405180910390a4505050565b600073ffffffffffffffffffffffffffffffffffffffff168273ffffffffffffffffffffffffffffffffffffffff1614156200057d576040517f08c379a000000000000000000000000000000000000000000000000000000000815260040162000574906200091b565b60405180910390fd5b62000591600083836200071660201b60201c565b8060026000828254620005a591906200096b565b92505081905550806000808473ffffffffffffffffffffffffffffffffffffffff1673ffffffffffffffffffffffffffffffffffffffff1681526020019081526020016000206000828254620005fc91906200096b565b925050819055508173ffffffffffffffffffffffffffffffffffffffff16600073ffffffffffffffffffffffffffffffffffffffff167fddf252ad1be2c89b69c2b068fc378daa952ba7f163c4a11628f55a4df523b3ef836040516200066391906200093d565b60405180910390a36200067f600083836200078660201b60201c565b5050565b60006006600084815260200190815260200160002060000160008373ffffffffffffffffffffffffffffffffffffffff1673ffffffffffffffffffffffffffffffffffffffff16815260200190815260200160002060009054906101000a900460ff16905092915050565b600033905090565b600060066000838152602001908152602001600020600101549050919050565b620007266200078b60201b60201c565b1562000769576040517f08c379a00000000000000000000000000000000000000000000000000000000081526004016200076090620008f9565b60405180910390fd5b62000781838383620007a260201b62002f091760201c565b505050565b505050565b6000600560009054906101000a900460ff16905090565b505050565b828054620007b59062000a33565b90600052602060002090601f016020900481019282620007d9576000855562000825565b82601f10620007f457805160ff191683800117855562000825565b8280016001018555821562000825579182015b828111156200082457825182559160200191906001019062000807565b5b50905062000834919062000838565b5090565b5b808211156200085357600081600090555060010162000839565b5090565b600081519050620008688162000b19565b92915050565b6000602082840312156200088157600080fd5b6000620008918482850162000857565b91505092915050565b6000620008a96010836200095a565b9150620008b68262000ac7565b602082019050919050565b6000620008d0601f836200095a565b9150620008dd8262000af0565b602082019050919050565b620008f38162000a29565b82525050565b6000602082019050818103600083015262000914816200089a565b9050919050565b600060208201905081810360008301526200093681620008c1565b9050919050565b6000602082019050620009546000830184620008e8565b92915050565b600082825260208201905092915050565b6000620009788262000a29565b9150620009858362000a29565b9250827fffffffffffffffffffffffffffffffffffffffffffffffffffffffffffffffff03821115620009bd57620009bc62000a69565b5b828201905092915050565b6000620009d58262000a29565b9150620009e28362000a29565b9250817fffffffffffffffffffffffffffffffffffffffffffffffffffffffffffffffff048311821515161562000a1e5762000a1d62000a69565b5b828202905092915050565b6000819050919050565b6000600282049050600182168062000a4c57607f821691505b6020821081141562000a635762000a6262000a98565b5b50919050565b7f4e487b7100000000000000000000000000000000000000000000000000000000600052601160045260246000fd5b7f4e487b7100000000000000000000000000000000000000000000000000000000600052602260045260246000fd5b7f5061757361626c653a2070617573656400000000000000000000000000000000600082015250565b7f45524332303a206d696e7420746f20746865207a65726f206164647265737300600082015250565b62000b248162000a29565b811462000b3057600080fd5b50565b61543d8062000b436000396000f3fe6080604052600436106102935760003560e01c80636bbc203d1161015a578063a9059cbb116100c1578063dd62ed3e1161007a578063dd62ed3e14610a21578063e7705db614610a5e578063f4cc934a14610a89578063f879a78214610ab2578063fb24ed1c14610add578063ff9c1ddf14610b0657610293565b8063a9059cbb14610901578063acc1e49c1461093e578063ce83f53314610967578063d547741f146109a4578063da04d2e0146109cd578063da33b01e146109f857610293565b80639c39af01116101135780639c39af011461080c5780639fe6678c1461084d578063a217fddf14610878578063a457c2d7146108a3578063a4821719146108e0578063a64edfa7146108ea57610293565b80636bbc203d146106fe57806370a082311461072757806379cc6790146107645780638456cb591461078d57806391d14854146107a457806395d89b41146107e157610293565b8063313ce567116101fe5780634040d843116101b75780634040d8431461060257806340c10f191461062d57806342966c681461065657806355a373d61461067f5780635c975abb146106aa5780636847386c146106d557610293565b8063313ce567146104dc57806331a376321461050757806336568abe1461054857806339509351146105715780633a50957a146105ae5780633f4ba83a146105eb57610293565b80631c9ee11a116102505780631c9ee11a146103ba5780632397e4d7146103e557806323b872dd1461040e57806323f4234d1461044b578063248a9ca3146104765780632f2ff15d146104b357610293565b806301ffc9a7146102985780630337c061146102d557806306fdde03146102fe578063095ea7b3146103295780631058d5001461036657806318160ddd1461038f575b600080fd5b3480156102a457600080fd5b506102bf60048036038101906102ba9190614242565b610b43565b6040516102cc91906147d4565b60405180910390f35b3480156102e157600080fd5b506102fc60048036038101906102f791906140c4565b610bbd565b005b34801561030a57600080fd5b50610313610dc5565b604051610320919061484e565b60405180910390f35b34801561033557600080fd5b50610350600480360381019061034b9190614178565b610e57565b60405161035d91906147d4565b60405180910390f35b34801561037257600080fd5b5061038d6004803603810190610388919061426b565b610e7a565b005b34801561039b57600080fd5b506103a4611047565b6040516103b19190614b11565b60405180910390f35b3480156103c657600080fd5b506103cf611051565b6040516103dc9190614818565b60405180910390f35b3480156103f157600080fd5b5061040c60048036038101906104079190614306565b611075565b005b34801561041a57600080fd5b5061043560048036038101906104309190614129565b611137565b60405161044291906147d4565b60405180910390f35b34801561045757600080fd5b50610460611166565b60405161046d91906147b2565b60405180910390f35b34801561048257600080fd5b5061049d600480360381019061049891906141dd565b61122f565b6040516104aa9190614818565b60405180910390f35b3480156104bf57600080fd5b506104da60048036038101906104d59190614206565b61124f565b005b3480156104e857600080fd5b506104f1611278565b6040516104fe9190614b2c565b60405180910390f35b34801561051357600080fd5b5061052e600480360381019061052991906140c4565b611281565b60405161053f959493929190614870565b60405180910390f35b34801561055457600080fd5b5061056f600480360381019061056a9190614206565b6113d4565b005b34801561057d57600080fd5b5061059860048036038101906105939190614178565b611457565b6040516105a591906147d4565b60405180910390f35b3480156105ba57600080fd5b506105d560048036038101906105d09190614306565b611501565b6040516105e2919061476e565b60405180910390f35b3480156105f757600080fd5b50610600611540565b005b34801561060e57600080fd5b5061061761157d565b60405161062491906147b2565b60405180910390f35b34801561063957600080fd5b50610654600480360381019061064f9190614178565b611646565b005b34801561066257600080fd5b5061067d60048036038101906106789190614306565b61169a565b005b34801561068b57600080fd5b506106946116ae565b6040516106a19190614833565b60405180910390f35b3480156106b657600080fd5b506106bf6116d4565b6040516106cc91906147d4565b60405180910390f35b3480156106e157600080fd5b506106fc60048036038101906106f791906140c4565b6116eb565b005b34801561070a57600080fd5b506107256004803603810190610720919061426b565b6118e5565b005b34801561073357600080fd5b5061074e600480360381019061074991906140c4565b611ab2565b60405161075b9190614b11565b60405180910390f35b34801561077057600080fd5b5061078b60048036038101906107869190614178565b611afa565b005b34801561079957600080fd5b506107a2611b1a565b005b3480156107b057600080fd5b506107cb60048036038101906107c69190614206565b611b57565b6040516107d891906147d4565b60405180910390f35b3480156107ed57600080fd5b506107f6611bc2565b604051610803919061484e565b60405180910390f35b34801561081857600080fd5b50610833600480360381019061082e91906140c4565b611c54565b604051610844959493929190614870565b60405180910390f35b34801561085957600080fd5b50610862611da7565b60405161086f9190614818565b60405180910390f35b34801561088457600080fd5b5061088d611dcb565b60405161089a9190614818565b60405180910390f35b3480156108af57600080fd5b506108ca60048036038101906108c59190614178565b611dd2565b6040516108d791906147d4565b60405180910390f35b6108e8611ebc565b005b3480156108f657600080fd5b506108ff61204f565b005b34801561090d57600080fd5b5061092860048036038101906109239190614178565b61210c565b60405161093591906147d4565b60405180910390f35b34801561094a57600080fd5b50610965600480360381019061096091906140c4565b61212f565b005b34801561097357600080fd5b5061098e60048036038101906109899190614306565b6125c9565b60405161099b919061476e565b60405180910390f35b3480156109b057600080fd5b506109cb60048036038101906109c69190614206565b612608565b005b3480156109d957600080fd5b506109e2612631565b6040516109ef9190614818565b60405180910390f35b348015610a0457600080fd5b50610a1f6004803603810190610a1a91906140c4565b612655565b005b348015610a2d57600080fd5b50610a486004803603810190610a4391906140ed565b6127db565b604051610a559190614b11565b60405180910390f35b348015610a6a57600080fd5b50610a73612862565b604051610a809190614818565b60405180910390f35b348015610a9557600080fd5b50610ab06004803603810190610aab91906140c4565b612886565b005b348015610abe57600080fd5b50610ac7612a80565b604051610ad491906147b2565b60405180910390f35b348015610ae957600080fd5b50610b046004803603810190610aff91906140c4565b612b49565b005b348015610b1257600080fd5b50610b2d6004803603810190610b289190614306565b612eca565b604051610b3a919061476e565b60405180910390f35b60007f7965db0b000000000000000000000000000000000000000000000000000000007bffffffffffffffffffffffffffffffffffffffffffffffffffffffff1916827bffffffffffffffffffffffffffffffffffffffffffffffffffffffff19161480610bb65750610bb582612f0e565b5b9050919050565b610be67f0ce23c3e399818cfee81a7ab0880f714e53d7672b08df0fa62f2843416e1ea0961122f565b610bf781610bf2612f78565b612f80565b600960008373ffffffffffffffffffffffffffffffffffffffff1673ffffffffffffffffffffffffffffffffffffffff16815260200190815260200160002060009054906101000a900460ff16610c83576040517f08c379a0000000000000000000000000000000000000000000000000000000008152600401610c7a90614991565b60405180910390fd5b6000600960008473ffffffffffffffffffffffffffffffffffffffff1673ffffffffffffffffffffffffffffffffffffffff16815260200190815260200160002060006101000a81548160ff021916908315150217905550610d057f0ce23c3e399818cfee81a7ab0880f714e53d7672b08df0fa62f2843416e1ea098361301d565b600960008373ffffffffffffffffffffffffffffffffffffffff1673ffffffffffffffffffffffffffffffffffffffff16815260200190815260200160002060006101000a81549060ff0219169055600f805480610d8c577f4e487b7100000000000000000000000000000000000000000000000000000000600052603160045260246000fd5b6001900381819060005260206000200160006101000a81549073ffffffffffffffffffffffffffffffffffffffff021916905590555050565b606060038054610dd490614dc8565b80601f0160208091040260200160405190810160405280929190818152602001828054610e0090614dc8565b8015610e4d5780601f10610e2257610100808354040283529160200191610e4d565b820191906000526020600020905b815481529060010190602001808311610e3057829003601f168201915b5050505050905090565b600080610e62612f78565b9050610e6f8185856130fe565b600191505092915050565b6040518060a0016040528087878080601f016020809104026020016040519081016040528093929190818152602001838380828437600081840152601f19601f82011690508083019250505050505050815260200185815260200184815260200183838080601f016020809104026020016040519081016040528093929190818152602001838380828437600081840152601f19601f82011690508083019250505050505050815260200160011515815250600c60003373ffffffffffffffffffffffffffffffffffffffff1673ffffffffffffffffffffffffffffffffffffffff1681526020019081526020016000206000820151816000019080519060200190610f87929190613ea1565b5060208201518160010155604082015181600201556060820151816003019080519060200190610fb8929190613ea1565b5060808201518160040160006101000a81548160ff0219169083151502179055509050506011339080600181540180825580915050600190039060005260206000200160009091909190916101000a81548173ffffffffffffffffffffffffffffffffffffffff021916908373ffffffffffffffffffffffffffffffffffffffff160217905550505050505050565b6000600254905090565b7f9e1688b53537f356172ce07f39e129155063957163c5f9462d4d9e55b228b06c81565b3373ffffffffffffffffffffffffffffffffffffffff166108fc600854670de0b6b3a7640000846110a69190614c2e565b6110b09190614bfd565b9081150290604051600060405180830381858888f193505050501580156110db573d6000803e3d6000fd5b506110f930670de0b6b3a7640000836110f49190614c2e565b61210c565b507f53c0012b5a3b6547e5b25c88c39858e8dc441a028cd124b8411512145a4f15a560013360405161112c9291906147ef565b60405180910390a150565b600080611142612f78565b905061114f8582856132c9565b61115a858585613355565b60019150509392505050565b60606111917f99b4cb81d693045578a6795d2045a8e4a6dc2d789bd539397ae2ce05c660459961122f565b6111a28161119d612f78565b612f80565b601180548060200260200160405190810160405280929190818152602001828054801561122457602002820191906000526020600020905b8160009054906101000a900473ffffffffffffffffffffffffffffffffffffffff1673ffffffffffffffffffffffffffffffffffffffff16815260200190600101908083116111da575b505050505091505090565b600060066000838152602001908152602001600020600101549050919050565b6112588261122f565b61126981611264612f78565b612f80565b611273838361301d565b505050565b60006012905090565b600d6020528060005260406000206000915090508060000180546112a490614dc8565b80601f01602080910402602001604051908101604052809291908181526020018280546112d090614dc8565b801561131d5780601f106112f25761010080835404028352916020019161131d565b820191906000526020600020905b81548152906001019060200180831161130057829003601f168201915b50505050509080600101549080600201549080600301805461133e90614dc8565b80601f016020809104026020016040519081016040528092919081815260200182805461136a90614dc8565b80156113b75780601f1061138c576101008083540402835291602001916113b7565b820191906000526020600020905b81548152906001019060200180831161139a57829003601f168201915b5050505050908060040160009054906101000a900460ff16905085565b6113dc612f78565b73ffffffffffffffffffffffffffffffffffffffff168173ffffffffffffffffffffffffffffffffffffffff1614611449576040517f08c379a000000000000000000000000000000000000000000000000000000000815260040161144090614ad1565b60405180910390fd5b61145382826135d6565b5050565b600080611462612f78565b90506114f6818585600160008673ffffffffffffffffffffffffffffffffffffffff1673ffffffffffffffffffffffffffffffffffffffff16815260200190815260200160002060008973ffffffffffffffffffffffffffffffffffffffff1673ffffffffffffffffffffffffffffffffffffffff168152602001908152602001600020546114f19190614ba7565b6130fe565b600191505092915050565b6011818154811061151157600080fd5b906000526020600020016000915054906101000a900473ffffffffffffffffffffffffffffffffffffffff1681565b7f704c992d358ec8f6051d88e5bd9f92457afedcbc3e2d110fcd019b5eda48e52e6115728161156d612f78565b612f80565b61157a6136b8565b50565b60606115a87f9e1688b53537f356172ce07f39e129155063957163c5f9462d4d9e55b228b06c61122f565b6115b9816115b4612f78565b612f80565b601080548060200260200160405190810160405280929190818152602001828054801561163b57602002820191906000526020600020905b8160009054906101000a900473ffffffffffffffffffffffffffffffffffffffff1673ffffffffffffffffffffffffffffffffffffffff16815260200190600101908083116115f1575b505050505091505090565b7f704c992d358ec8f6051d88e5bd9f92457afedcbc3e2d110fcd019b5eda48e52e61167881611673612f78565b612f80565b61169583670de0b6b3a7640000846116909190614c2e565b61375a565b505050565b6116ab6116a5612f78565b826138ba565b50565b601260009054906101000a900473ffffffffffffffffffffffffffffffffffffffff1681565b6000600560009054906101000a900460ff16905090565b6117147f99b4cb81d693045578a6795d2045a8e4a6dc2d789bd539397ae2ce05c660459961122f565b61172581611720612f78565b612f80565b600c60008373ffffffffffffffffffffffffffffffffffffffff1673ffffffffffffffffffffffffffffffffffffffff16815260200190815260200160002060040160009054906101000a900460ff166117b4576040517f08c379a00000000000000000000000000000000000000000000000000000000081526004016117ab90614a11565b60405180910390fd5b600c60008373ffffffffffffffffffffffffffffffffffffffff1673ffffffffffffffffffffffffffffffffffffffff168152602001908152602001600020600080820160006118049190613f27565b600182016000905560028201600090556003820160006118249190613f27565b6004820160006101000a81549060ff021916905550506011805480611872577f4e487b7100000000000000000000000000000000000000000000000000000000600052603160045260246000fd5b6001900381819060005260206000200160006101000a81549073ffffffffffffffffffffffffffffffffffffffff021916905590557f53c0012b5a3b6547e5b25c88c39858e8dc441a028cd124b8411512145a4f15a56000836040516118d99291906147ef565b60405180910390a15050565b6040518060a0016040528087878080601f016020809104026020016040519081016040528093929190818152602001838380828437600081840152601f19601f82011690508083019250505050505050815260200185815260200184815260200183838080601f016020809104026020016040519081016040528093929190818152602001838380828437600081840152601f19601f82011690508083019250505050505050815260200160011515815250600b60003373ffffffffffffffffffffffffffffffffffffffff1673ffffffffffffffffffffffffffffffffffffffff16815260200190815260200160002060008201518160000190805190602001906119f2929190613ea1565b5060208201518160010155604082015181600201556060820151816003019080519060200190611a23929190613ea1565b5060808201518160040160006101000a81548160ff0219169083151502179055509050506010339080600181540180825580915050600190039060005260206000200160009091909190916101000a81548173ffffffffffffffffffffffffffffffffffffffff021916908373ffffffffffffffffffffffffffffffffffffffff160217905550505050505050565b60008060008373ffffffffffffffffffffffffffffffffffffffff1673ffffffffffffffffffffffffffffffffffffffff168152602001908152602001600020549050919050565b611b0c82611b06612f78565b836132c9565b611b1682826138ba565b5050565b7f704c992d358ec8f6051d88e5bd9f92457afedcbc3e2d110fcd019b5eda48e52e611b4c81611b47612f78565b612f80565b611b54613a91565b50565b60006006600084815260200190815260200160002060000160008373ffffffffffffffffffffffffffffffffffffffff1673ffffffffffffffffffffffffffffffffffffffff16815260200190815260200160002060009054906101000a900460ff16905092915050565b606060048054611bd190614dc8565b80601f0160208091040260200160405190810160405280929190818152602001828054611bfd90614dc8565b8015611c4a5780601f10611c1f57610100808354040283529160200191611c4a565b820191906000526020600020905b815481529060010190602001808311611c2d57829003601f168201915b5050505050905090565b600e602052806000526040600020600091509050806000018054611c7790614dc8565b80601f0160208091040260200160405190810160405280929190818152602001828054611ca390614dc8565b8015611cf05780601f10611cc557610100808354040283529160200191611cf0565b820191906000526020600020905b815481529060010190602001808311611cd357829003601f168201915b505050505090806001015490806002015490806003018054611d1190614dc8565b80601f0160208091040260200160405190810160405280929190818152602001828054611d3d90614dc8565b8015611d8a5780601f10611d5f57610100808354040283529160200191611d8a565b820191906000526020600020905b815481529060010190602001808311611d6d57829003601f168201915b5050505050908060040160009054906101000a900460ff16905085565b7f99b4cb81d693045578a6795d2045a8e4a6dc2d789bd539397ae2ce05c660459981565b6000801b81565b600080611ddd612f78565b90506000600160008373ffffffffffffffffffffffffffffffffffffffff1673ffffffffffffffffffffffffffffffffffffffff16815260200190815260200160002060008673ffffffffffffffffffffffffffffffffffffffff1673ffffffffffffffffffffffffffffffffffffffff16815260200190815260200160002054905083811015611ea3576040517f08c379a0000000000000000000000000000000000000000000000000000000008152600401611e9a90614ab1565b60405180910390fd5b611eb082868684036130fe565b60019250505092915050565b611ee67f9e1688b53537f356172ce07f39e129155063957163c5f9462d4d9e55b228b06c33611b57565b80611f175750611f167f99b4cb81d693045578a6795d2045a8e4a6dc2d789bd539397ae2ce05c660459933611b57565b5b611f56576040517f08c379a0000000000000000000000000000000000000000000000000000000008152600401611f4d90614a31565b60405180910390fd5b601260009054906101000a900473ffffffffffffffffffffffffffffffffffffffff1673ffffffffffffffffffffffffffffffffffffffff1663a9059cbb3360085434611fa39190614c2e565b6040518363ffffffff1660e01b8152600401611fc0929190614789565b602060405180830381600087803b158015611fda57600080fd5b505af1158015611fee573d6000803e3d6000fd5b505050506040513d601f19601f8201168201806040525081019061201291906141b4565b507f53c0012b5a3b6547e5b25c88c39858e8dc441a028cd124b8411512145a4f15a56001336040516120459291906147ef565b60405180910390a1565b6001600960003373ffffffffffffffffffffffffffffffffffffffff1673ffffffffffffffffffffffffffffffffffffffff16815260200190815260200160002060006101000a81548160ff021916908315150217905550600f339080600181540180825580915050600190039060005260206000200160009091909190916101000a81548173ffffffffffffffffffffffffffffffffffffffff021916908373ffffffffffffffffffffffffffffffffffffffff160217905550565b600080612117612f78565b9050612124818585613355565b600191505092915050565b6121587f99b4cb81d693045578a6795d2045a8e4a6dc2d789bd539397ae2ce05c660459961122f565b61216981612164612f78565b612f80565b600c60008373ffffffffffffffffffffffffffffffffffffffff1673ffffffffffffffffffffffffffffffffffffffff16815260200190815260200160002060040160009054906101000a900460ff166121f8576040517f08c379a00000000000000000000000000000000000000000000000000000000081526004016121ef90614a11565b60405180910390fd5b6000600c60008473ffffffffffffffffffffffffffffffffffffffff1673ffffffffffffffffffffffffffffffffffffffff16815260200190815260200160002060040160006101000a81548160ff02191690831515021790555061227d7f99b4cb81d693045578a6795d2045a8e4a6dc2d789bd539397ae2ce05c66045998361301d565b600c60008373ffffffffffffffffffffffffffffffffffffffff1673ffffffffffffffffffffffffffffffffffffffff168152602001908152602001600020600e60008473ffffffffffffffffffffffffffffffffffffffff1673ffffffffffffffffffffffffffffffffffffffff168152602001908152602001600020600082018160000190805461230f90614dc8565b61231a929190613f67565b506001820154816001015560028201548160020155600382018160030190805461234390614dc8565b61234e929190613f67565b506004820160009054906101000a900460ff168160040160006101000a81548160ff021916908315150217905550905050600c60008373ffffffffffffffffffffffffffffffffffffffff1673ffffffffffffffffffffffffffffffffffffffff168152602001908152602001600020600080820160006123cf9190613f27565b600182016000905560028201600090556003820160006123ef9190613f27565b6004820160006101000a81549060ff02191690555050601180548061243d577f4e487b7100000000000000000000000000000000000000000000000000000000600052603160045260246000fd5b6001900381819060005260206000200160006101000a81549073ffffffffffffffffffffffffffffffffffffffff02191690559055601260009054906101000a900473ffffffffffffffffffffffffffffffffffffffff1673ffffffffffffffffffffffffffffffffffffffff1663a9059cbb8361251b670de0b6b3a76400006007546124ca9190614c2e565b600e60008873ffffffffffffffffffffffffffffffffffffffff1673ffffffffffffffffffffffffffffffffffffffff16815260200190815260200160002060010154613b3490919063ffffffff16565b6040518363ffffffff1660e01b8152600401612538929190614789565b602060405180830381600087803b15801561255257600080fd5b505af1158015612566573d6000803e3d6000fd5b505050506040513d601f19601f8201168201806040525081019061258a91906141b4565b507f53c0012b5a3b6547e5b25c88c39858e8dc441a028cd124b8411512145a4f15a56001836040516125bd9291906147ef565b60405180910390a15050565b601081815481106125d957600080fd5b906000526020600020016000915054906101000a900473ffffffffffffffffffffffffffffffffffffffff1681565b6126118261122f565b6126228161261d612f78565b612f80565b61262c83836135d6565b505050565b7f704c992d358ec8f6051d88e5bd9f92457afedcbc3e2d110fcd019b5eda48e52e81565b61267e7f0ce23c3e399818cfee81a7ab0880f714e53d7672b08df0fa62f2843416e1ea0961122f565b61268f8161268a612f78565b612f80565b600960008373ffffffffffffffffffffffffffffffffffffffff1673ffffffffffffffffffffffffffffffffffffffff16815260200190815260200160002060009054906101000a900460ff1661271b576040517f08c379a000000000000000000000000000000000000000000000000000000000815260040161271290614991565b60405180910390fd5b600960008373ffffffffffffffffffffffffffffffffffffffff1673ffffffffffffffffffffffffffffffffffffffff16815260200190815260200160002060006101000a81549060ff0219169055600f8054806127a2577f4e487b7100000000000000000000000000000000000000000000000000000000600052603160045260246000fd5b6001900381819060005260206000200160006101000a81549073ffffffffffffffffffffffffffffffffffffffff021916905590555050565b6000600160008473ffffffffffffffffffffffffffffffffffffffff1673ffffffffffffffffffffffffffffffffffffffff16815260200190815260200160002060008373ffffffffffffffffffffffffffffffffffffffff1673ffffffffffffffffffffffffffffffffffffffff16815260200190815260200160002054905092915050565b7f0ce23c3e399818cfee81a7ab0880f714e53d7672b08df0fa62f2843416e1ea0981565b6128af7f9e1688b53537f356172ce07f39e129155063957163c5f9462d4d9e55b228b06c61122f565b6128c0816128bb612f78565b612f80565b600b60008373ffffffffffffffffffffffffffffffffffffffff1673ffffffffffffffffffffffffffffffffffffffff16815260200190815260200160002060040160009054906101000a900460ff1661294f576040517f08c379a000000000000000000000000000000000000000000000000000000000815260040161294690614911565b60405180910390fd5b600b60008373ffffffffffffffffffffffffffffffffffffffff1673ffffffffffffffffffffffffffffffffffffffff1681526020019081526020016000206000808201600061299f9190613f27565b600182016000905560028201600090556003820160006129bf9190613f27565b6004820160006101000a81549060ff021916905550506010805480612a0d577f4e487b7100000000000000000000000000000000000000000000000000000000600052603160045260246000fd5b6001900381819060005260206000200160006101000a81549073ffffffffffffffffffffffffffffffffffffffff021916905590557f53c0012b5a3b6547e5b25c88c39858e8dc441a028cd124b8411512145a4f15a5600083604051612a749291906147ef565b60405180910390a15050565b6060612aab7f0ce23c3e399818cfee81a7ab0880f714e53d7672b08df0fa62f2843416e1ea0961122f565b612abc81612ab7612f78565b612f80565b600f805480602002602001604051908101604052809291908181526020018280548015612b3e57602002820191906000526020600020905b8160009054906101000a900473ffffffffffffffffffffffffffffffffffffffff1673ffffffffffffffffffffffffffffffffffffffff1681526020019060010190808311612af4575b505050505091505090565b612b727f9e1688b53537f356172ce07f39e129155063957163c5f9462d4d9e55b228b06c61122f565b612b8381612b7e612f78565b612f80565b600b60008373ffffffffffffffffffffffffffffffffffffffff1673ffffffffffffffffffffffffffffffffffffffff16815260200190815260200160002060040160009054906101000a900460ff16612c12576040517f08c379a0000000000000000000000000000000000000000000000000000000008152600401612c0990614911565b60405180910390fd5b6000600b60008473ffffffffffffffffffffffffffffffffffffffff1673ffffffffffffffffffffffffffffffffffffffff16815260200190815260200160002060040160006101000a81548160ff021916908315150217905550612c977f9e1688b53537f356172ce07f39e129155063957163c5f9462d4d9e55b228b06c8361301d565b600b60008373ffffffffffffffffffffffffffffffffffffffff1673ffffffffffffffffffffffffffffffffffffffff168152602001908152602001600020600d60008473ffffffffffffffffffffffffffffffffffffffff1673ffffffffffffffffffffffffffffffffffffffff1681526020019081526020016000206000820181600001908054612d2990614dc8565b612d34929190613f67565b5060018201548160010155600282015481600201556003820181600301908054612d5d90614dc8565b612d68929190613f67565b506004820160009054906101000a900460ff168160040160006101000a81548160ff021916908315150217905550905050600b60008373ffffffffffffffffffffffffffffffffffffffff1673ffffffffffffffffffffffffffffffffffffffff16815260200190815260200160002060008082016000612de99190613f27565b60018201600090556002820160009055600382016000612e099190613f27565b6004820160006101000a81549060ff021916905550506010805480612e57577f4e487b7100000000000000000000000000000000000000000000000000000000600052603160045260246000fd5b6001900381819060005260206000200160006101000a81549073ffffffffffffffffffffffffffffffffffffffff021916905590557f53c0012b5a3b6547e5b25c88c39858e8dc441a028cd124b8411512145a4f15a5600183604051612ebe9291906147ef565b60405180910390a15050565b600f8181548110612eda57600080fd5b906000526020600020016000915054906101000a900473ffffffffffffffffffffffffffffffffffffffff1681565b505050565b60007f01ffc9a7000000000000000000000000000000000000000000000000000000007bffffffffffffffffffffffffffffffffffffffffffffffffffffffff1916827bffffffffffffffffffffffffffffffffffffffffffffffffffffffff1916149050919050565b600033905090565b612f8a8282611b57565b61301957612faf8173ffffffffffffffffffffffffffffffffffffffff166014613b4a565b612fbd8360001c6020613b4a565b604051602001612fce929190614734565b6040516020818303038152906040526040517f08c379a0000000000000000000000000000000000000000000000000000000008152600401613010919061484e565b60405180910390fd5b5050565b6130278282611b57565b6130fa5760016006600084815260200190815260200160002060000160008373ffffffffffffffffffffffffffffffffffffffff1673ffffffffffffffffffffffffffffffffffffffff16815260200190815260200160002060006101000a81548160ff02191690831515021790555061309f612f78565b73ffffffffffffffffffffffffffffffffffffffff168173ffffffffffffffffffffffffffffffffffffffff16837f2f8788117e7eff1d82e926ec794901d17c78024a50270940304540a733656f0d60405160405180910390a45b5050565b600073ffffffffffffffffffffffffffffffffffffffff168373ffffffffffffffffffffffffffffffffffffffff16141561316e576040517f08c379a000000000000000000000000000000000000000000000000000000000815260040161316590614a91565b60405180910390fd5b600073ffffffffffffffffffffffffffffffffffffffff168273ffffffffffffffffffffffffffffffffffffffff1614156131de576040517f08c379a00000000000000000000000000000000000000000000000000000000081526004016131d590614971565b60405180910390fd5b80600160008573ffffffffffffffffffffffffffffffffffffffff1673ffffffffffffffffffffffffffffffffffffffff16815260200190815260200160002060008473ffffffffffffffffffffffffffffffffffffffff1673ffffffffffffffffffffffffffffffffffffffff168152602001908152602001600020819055508173ffffffffffffffffffffffffffffffffffffffff168373ffffffffffffffffffffffffffffffffffffffff167f8c5be1e5ebec7d5bd14f71427d1e84f3dd0314c0f7b2291e5b200ac8c7c3b925836040516132bc9190614b11565b60405180910390a3505050565b60006132d584846127db565b90507fffffffffffffffffffffffffffffffffffffffffffffffffffffffffffffffff811461334f5781811015613341576040517f08c379a0000000000000000000000000000000000000000000000000000000008152600401613338906149b1565b60405180910390fd5b61334e84848484036130fe565b5b50505050565b600073ffffffffffffffffffffffffffffffffffffffff168373ffffffffffffffffffffffffffffffffffffffff1614156133c5576040517f08c379a00000000000000000000000000000000000000000000000000000000081526004016133bc90614a71565b60405180910390fd5b600073ffffffffffffffffffffffffffffffffffffffff168273ffffffffffffffffffffffffffffffffffffffff161415613435576040517f08c379a000000000000000000000000000000000000000000000000000000000815260040161342c906148f1565b60405180910390fd5b613440838383613e44565b60008060008573ffffffffffffffffffffffffffffffffffffffff1673ffffffffffffffffffffffffffffffffffffffff168152602001908152602001600020549050818110156134c6576040517f08c379a00000000000000000000000000000000000000000000000000000000081526004016134bd906149d1565b60405180910390fd5b8181036000808673ffffffffffffffffffffffffffffffffffffffff1673ffffffffffffffffffffffffffffffffffffffff16815260200190815260200160002081905550816000808573ffffffffffffffffffffffffffffffffffffffff1673ffffffffffffffffffffffffffffffffffffffff16815260200190815260200160002060008282546135599190614ba7565b925050819055508273ffffffffffffffffffffffffffffffffffffffff168473ffffffffffffffffffffffffffffffffffffffff167fddf252ad1be2c89b69c2b068fc378daa952ba7f163c4a11628f55a4df523b3ef846040516135bd9190614b11565b60405180910390a36135d0848484613e9c565b50505050565b6135e08282611b57565b156136b45760006006600084815260200190815260200160002060000160008373ffffffffffffffffffffffffffffffffffffffff1673ffffffffffffffffffffffffffffffffffffffff16815260200190815260200160002060006101000a81548160ff021916908315150217905550613659612f78565b73ffffffffffffffffffffffffffffffffffffffff168173ffffffffffffffffffffffffffffffffffffffff16837ff6391f5c32d9c69d2a47ea670b442974b53935d1edc7fd64eb21e047a839171b60405160405180910390a45b5050565b6136c06116d4565b6136ff576040517f08c379a00000000000000000000000000000000000000000000000000000000081526004016136f690614931565b60405180910390fd5b6000600560006101000a81548160ff0219169083151502179055507f5db9ee0a495bf2e6ff9c91a7834c1ba4fdd244a5e8aa4e537bd38aeae4b073aa613743612f78565b604051613750919061476e565b60405180910390a1565b600073ffffffffffffffffffffffffffffffffffffffff168273ffffffffffffffffffffffffffffffffffffffff1614156137ca576040517f08c379a00000000000000000000000000000000000000000000000000000000081526004016137c190614af1565b60405180910390fd5b6137d660008383613e44565b80600260008282546137e89190614ba7565b92505081905550806000808473ffffffffffffffffffffffffffffffffffffffff1673ffffffffffffffffffffffffffffffffffffffff168152602001908152602001600020600082825461383d9190614ba7565b925050819055508173ffffffffffffffffffffffffffffffffffffffff16600073ffffffffffffffffffffffffffffffffffffffff167fddf252ad1be2c89b69c2b068fc378daa952ba7f163c4a11628f55a4df523b3ef836040516138a29190614b11565b60405180910390a36138b660008383613e9c565b5050565b600073ffffffffffffffffffffffffffffffffffffffff168273ffffffffffffffffffffffffffffffffffffffff16141561392a576040517f08c379a000000000000000000000000000000000000000000000000000000000815260040161392190614a51565b60405180910390fd5b61393682600083613e44565b60008060008473ffffffffffffffffffffffffffffffffffffffff1673ffffffffffffffffffffffffffffffffffffffff168152602001908152602001600020549050818110156139bc576040517f08c379a00000000000000000000000000000000000000000000000000000000081526004016139b390614951565b60405180910390fd5b8181036000808573ffffffffffffffffffffffffffffffffffffffff1673ffffffffffffffffffffffffffffffffffffffff168152602001908152602001600020819055508160026000828254613a139190614c88565b92505081905550600073ffffffffffffffffffffffffffffffffffffffff168373ffffffffffffffffffffffffffffffffffffffff167fddf252ad1be2c89b69c2b068fc378daa952ba7f163c4a11628f55a4df523b3ef84604051613a789190614b11565b60405180910390a3613a8c83600084613e9c565b505050565b613a996116d4565b15613ad9576040517f08c379a0000000000000000000000000000000000000000000000000000000008152600401613ad0906149f1565b60405180910390fd5b6001600560006101000a81548160ff0219169083151502179055507f62e78cea01bee320cd4e420270b5ea74000d11b0c9f74754ebdbfc544b05a258613b1d612f78565b604051613b2a919061476e565b60405180910390a1565b60008183613b429190614c2e565b905092915050565b606060006002836002613b5d9190614c2e565b613b679190614ba7565b67ffffffffffffffff811115613ba6577f4e487b7100000000000000000000000000000000000000000000000000000000600052604160045260246000fd5b6040519080825280601f01601f191660200182016040528015613bd85781602001600182028036833780820191505090505b5090507f300000000000000000000000000000000000000000000000000000000000000081600081518110613c36577f4e487b7100000000000000000000000000000000000000000000000000000000600052603260045260246000fd5b60200101907effffffffffffffffffffffffffffffffffffffffffffffffffffffffffffff1916908160001a9053507f780000000000000000000000000000000000000000000000000000000000000081600181518110613cc0577f4e487b7100000000000000000000000000000000000000000000000000000000600052603260045260246000fd5b60200101907effffffffffffffffffffffffffffffffffffffffffffffffffffffffffffff1916908160001a90535060006001846002613d009190614c2e565b613d0a9190614ba7565b90505b6001811115613df6577f3031323334353637383961626364656600000000000000000000000000000000600f861660108110613d72577f4e487b7100000000000000000000000000000000000000000000000000000000600052603260045260246000fd5b1a60f81b828281518110613daf577f4e487b7100000000000000000000000000000000000000000000000000000000600052603260045260246000fd5b60200101907effffffffffffffffffffffffffffffffffffffffffffffffffffffffffffff1916908160001a905350600485901c945080613def90614d9e565b9050613d0d565b5060008414613e3a576040517f08c379a0000000000000000000000000000000000000000000000000000000008152600401613e31906148d1565b60405180910390fd5b8091505092915050565b613e4c6116d4565b15613e8c576040517f08c379a0000000000000000000000000000000000000000000000000000000008152600401613e83906149f1565b60405180910390fd5b613e97838383612f09565b505050565b505050565b828054613ead90614dc8565b90600052602060002090601f016020900481019282613ecf5760008555613f16565b82601f10613ee857805160ff1916838001178555613f16565b82800160010185558215613f16579182015b82811115613f15578251825591602001919060010190613efa565b5b509050613f239190613ff4565b5090565b508054613f3390614dc8565b6000825580601f10613f455750613f64565b601f016020900490600052602060002090810190613f639190613ff4565b5b50565b828054613f7390614dc8565b90600052602060002090601f016020900481019282613f955760008555613fe3565b82601f10613fa65780548555613fe3565b82800160010185558215613fe357600052602060002091601f016020900482015b82811115613fe2578254825591600101919060010190613fc7565b5b509050613ff09190613ff4565b5090565b5b8082111561400d576000816000905550600101613ff5565b5090565b60008135905061402081615394565b92915050565b600081519050614035816153ab565b92915050565b60008135905061404a816153c2565b92915050565b60008135905061405f816153d9565b92915050565b60008083601f84011261407757600080fd5b8235905067ffffffffffffffff81111561409057600080fd5b6020830191508360018202830111156140a857600080fd5b9250929050565b6000813590506140be816153f0565b92915050565b6000602082840312156140d657600080fd5b60006140e484828501614011565b91505092915050565b6000806040838503121561410057600080fd5b600061410e85828601614011565b925050602061411f85828601614011565b9150509250929050565b60008060006060848603121561413e57600080fd5b600061414c86828701614011565b935050602061415d86828701614011565b925050604061416e868287016140af565b9150509250925092565b6000806040838503121561418b57600080fd5b600061419985828601614011565b92505060206141aa858286016140af565b9150509250929050565b6000602082840312156141c657600080fd5b60006141d484828501614026565b91505092915050565b6000602082840312156141ef57600080fd5b60006141fd8482850161403b565b91505092915050565b6000806040838503121561421957600080fd5b60006142278582860161403b565b925050602061423885828601614011565b9150509250929050565b60006020828403121561425457600080fd5b600061426284828501614050565b91505092915050565b6000806000806000806080878903121561428457600080fd5b600087013567ffffffffffffffff81111561429e57600080fd5b6142aa89828a01614065565b965096505060206142bd89828a016140af565b94505060406142ce89828a016140af565b935050606087013567ffffffffffffffff8111156142eb57600080fd5b6142f789828a01614065565b92509250509295509295509295565b60006020828403121561431857600080fd5b6000614326848285016140af565b91505092915050565b600061433b8383614347565b60208301905092915050565b61435081614cbc565b82525050565b61435f81614cbc565b82525050565b600061437082614b57565b61437a8185614b7a565b935061438583614b47565b8060005b838110156143b657815161439d888261432f565b97506143a883614b6d565b925050600181019050614389565b5085935050505092915050565b6143cc81614cce565b82525050565b6143db81614cda565b82525050565b6143ea81614d47565b82525050565b60006143fb82614b62565b6144058185614b8b565b9350614415818560208601614d6b565b61441e81614e87565b840191505092915050565b600061443482614b62565b61443e8185614b9c565b935061444e818560208601614d6b565b80840191505092915050565b6000614467602083614b8b565b915061447282614e98565b602082019050919050565b600061448a602383614b8b565b915061449582614ec1565b604082019050919050565b60006144ad602c83614b8b565b91506144b882614f10565b604082019050919050565b60006144d0601483614b8b565b91506144db82614f5f565b602082019050919050565b60006144f3602283614b8b565b91506144fe82614f88565b604082019050919050565b6000614516602283614b8b565b915061452182614fd7565b604082019050919050565b6000614539602483614b8b565b915061454482615026565b604082019050919050565b600061455c601d83614b8b565b915061456782615075565b602082019050919050565b600061457f602683614b8b565b915061458a8261509e565b604082019050919050565b60006145a2601083614b8b565b91506145ad826150ed565b602082019050919050565b60006145c5602c83614b8b565b91506145d082615116565b604082019050919050565b60006145e8600b83614b8b565b91506145f382615165565b602082019050919050565b600061460b602183614b8b565b91506146168261518e565b604082019050919050565b600061462e602583614b8b565b9150614639826151dd565b604082019050919050565b6000614651602483614b8b565b915061465c8261522c565b604082019050919050565b6000614674601783614b9c565b915061467f8261527b565b601782019050919050565b6000614697602583614b8b565b91506146a2826152a4565b604082019050919050565b60006146ba601183614b9c565b91506146c5826152f3565b601182019050919050565b60006146dd602f83614b8b565b91506146e88261531c565b604082019050919050565b6000614700601f83614b8b565b915061470b8261536b565b602082019050919050565b61471f81614d30565b82525050565b61472e81614d3a565b82525050565b600061473f82614667565b915061474b8285614429565b9150614756826146ad565b91506147628284614429565b91508190509392505050565b60006020820190506147836000830184614356565b92915050565b600060408201905061479e6000830185614356565b6147ab6020830184614716565b9392505050565b600060208201905081810360008301526147cc8184614365565b905092915050565b60006020820190506147e960008301846143c3565b92915050565b600060408201905061480460008301856143c3565b6148116020830184614356565b9392505050565b600060208201905061482d60008301846143d2565b92915050565b600060208201905061484860008301846143e1565b92915050565b6000602082019050818103600083015261486881846143f0565b905092915050565b600060a082019050818103600083015261488a81886143f0565b90506148996020830187614716565b6148a66040830186614716565b81810360608301526148b881856143f0565b90506148c760808301846143c3565b9695505050505050565b600060208201905081810360008301526148ea8161445a565b9050919050565b6000602082019050818103600083015261490a8161447d565b9050919050565b6000602082019050818103600083015261492a816144a0565b9050919050565b6000602082019050818103600083015261494a816144c3565b9050919050565b6000602082019050818103600083015261496a816144e6565b9050919050565b6000602082019050818103600083015261498a81614509565b9050919050565b600060208201905081810360008301526149aa8161452c565b9050919050565b600060208201905081810360008301526149ca8161454f565b9050919050565b600060208201905081810360008301526149ea81614572565b9050919050565b60006020820190508181036000830152614a0a81614595565b9050919050565b60006020820190508181036000830152614a2a816145b8565b9050919050565b60006020820190508181036000830152614a4a816145db565b9050919050565b60006020820190508181036000830152614a6a816145fe565b9050919050565b60006020820190508181036000830152614a8a81614621565b9050919050565b60006020820190508181036000830152614aaa81614644565b9050919050565b60006020820190508181036000830152614aca8161468a565b9050919050565b60006020820190508181036000830152614aea816146d0565b9050919050565b60006020820190508181036000830152614b0a816146f3565b9050919050565b6000602082019050614b266000830184614716565b92915050565b6000602082019050614b416000830184614725565b92915050565b6000819050602082019050919050565b600081519050919050565b600081519050919050565b6000602082019050919050565b600082825260208201905092915050565b600082825260208201905092915050565b600081905092915050565b6000614bb282614d30565b9150614bbd83614d30565b9250827fffffffffffffffffffffffffffffffffffffffffffffffffffffffffffffffff03821115614bf257614bf1614dfa565b5b828201905092915050565b6000614c0882614d30565b9150614c1383614d30565b925082614c2357614c22614e29565b5b828204905092915050565b6000614c3982614d30565b9150614c4483614d30565b9250817fffffffffffffffffffffffffffffffffffffffffffffffffffffffffffffffff0483118215151615614c7d57614c7c614dfa565b5b828202905092915050565b6000614c9382614d30565b9150614c9e83614d30565b925082821015614cb157614cb0614dfa565b5b828203905092915050565b6000614cc782614d10565b9050919050565b60008115159050919050565b6000819050919050565b60007fffffffff0000000000000000000000000000000000000000000000000000000082169050919050565b600073ffffffffffffffffffffffffffffffffffffffff82169050919050565b6000819050919050565b600060ff82169050919050565b6000614d5282614d59565b9050919050565b6000614d6482614d10565b9050919050565b60005b83811015614d89578082015181840152602081019050614d6e565b83811115614d98576000848401525b50505050565b6000614da982614d30565b91506000821415614dbd57614dbc614dfa565b5b600182039050919050565b60006002820490506001821680614de057607f821691505b60208210811415614df457614df3614e58565b5b50919050565b7f4e487b7100000000000000000000000000000000000000000000000000000000600052601160045260246000fd5b7f4e487b7100000000000000000000000000000000000000000000000000000000600052601260045260246000fd5b7f4e487b7100000000000000000000000000000000000000000000000000000000600052602260045260246000fd5b6000601f19601f8301169050919050565b7f537472696e67733a20686578206c656e67746820696e73756666696369656e74600082015250565b7f45524332303a207472616e7366657220746f20746865207a65726f206164647260008201527f6573730000000000000000000000000000000000000000000000000000000000602082015250565b7f4163636f756e7420646964206e6f74207265717565737420636f6d70616e792060008201527f766572696669636174696f6e0000000000000000000000000000000000000000602082015250565b7f5061757361626c653a206e6f7420706175736564000000000000000000000000600082015250565b7f45524332303a206275726e20616d6f756e7420657863656564732062616c616e60008201527f6365000000000000000000000000000000000000000000000000000000000000602082015250565b7f45524332303a20617070726f766520746f20746865207a65726f20616464726560008201527f7373000000000000000000000000000000000000000000000000000000000000602082015250565b7f4163636f756e7420646964206e6f74207265717565737420766572696669636160008201527f74696f6e00000000000000000000000000000000000000000000000000000000602082015250565b7f45524332303a20696e73756666696369656e7420616c6c6f77616e6365000000600082015250565b7f45524332303a207472616e7366657220616d6f756e742065786365656473206260008201527f616c616e63650000000000000000000000000000000000000000000000000000602082015250565b7f5061757361626c653a2070617573656400000000000000000000000000000000600082015250565b7f4163636f756e7420646964206e6f7420726571756573742070726f6a6563742060008201527f766572696669636174696f6e0000000000000000000000000000000000000000602082015250565b7f4e6f7420616c6c6f776564000000000000000000000000000000000000000000600082015250565b7f45524332303a206275726e2066726f6d20746865207a65726f2061646472657360008201527f7300000000000000000000000000000000000000000000000000000000000000602082015250565b7f45524332303a207472616e736665722066726f6d20746865207a65726f20616460008201527f6472657373000000000000000000000000000000000000000000000000000000602082015250565b7f45524332303a20617070726f76652066726f6d20746865207a65726f2061646460008201527f7265737300000000000000000000000000000000000000000000000000000000602082015250565b7f416363657373436f6e74726f6c3a206163636f756e7420000000000000000000600082015250565b7f45524332303a2064656372656173656420616c6c6f77616e63652062656c6f7760008201527f207a65726f000000000000000000000000000000000000000000000000000000602082015250565b7f206973206d697373696e6720726f6c6520000000000000000000000000000000600082015250565b7f416363657373436f6e74726f6c3a2063616e206f6e6c792072656e6f756e636560008201527f20726f6c657320666f722073656c660000000000000000000000000000000000602082015250565b7f45524332303a206d696e7420746f20746865207a65726f206164647265737300600082015250565b61539d81614cbc565b81146153a857600080fd5b50565b6153b481614cce565b81146153bf57600080fd5b50565b6153cb81614cda565b81146153d657600080fd5b50565b6153e281614ce4565b81146153ed57600080fd5b50565b6153f981614d30565b811461540457600080fd5b5056fea26469706673582212204fdb41f8d8303740bb83b74ca4dc738532d85122eb7729c003ccdf728f0adb1164736f6c63430008030033",
  "immutableReferences": {},
  "source": "// SPDX-License-Identifier: MIT\npragma solidity >=0.4.22 <0.9.0;\n// ERC20 for token\n// ERC721 will be required for nft receipt\n// Burnable is required for yearly burning\n// Access control for assigning responsibilities\n\nimport \"../node_modules/@openzeppelin/contracts/token/ERC20/ERC20.sol\";\nimport \"../node_modules/@openzeppelin/contracts/token/ERC20/extensions/ERC20Burnable.sol\";\nimport \"../node_modules/@openzeppelin/contracts/security/Pausable.sol\";\nimport \"../node_modules/@openzeppelin/contracts/access/AccessControl.sol\";\nimport \"../node_modules/@openzeppelin/contracts/utils/math/SafeMath.sol\";\n\ncontract GreenToken is ERC20, ERC20Burnable, Pausable, AccessControl {\n    using SafeMath for uint256;\n    //Create roles\n    bytes32 public constant VERIFIER_ROLE = keccak256(\"VERIFIER_ROLE\");\n    bytes32 public constant GOVERNER_ROLE = keccak256(\"GOVERNER_ROLE\");\n    bytes32 public constant COMPANY_ROLE = keccak256(\"COMPANY_ROLE\");\n    bytes32 public constant PROJECT_ROLE = keccak256(\"PROJECT_ROLE\");\n\n    //token = tco2_multiplier*tCO2\n    uint private tco2_multiplier = 2.0;\n    //token = Rate*Ether\n    uint256 private Rate =5.0;\n    // uint256 public INITIAL_SUPPLY = 1000*(10 ** uint256(decimals));\n    enum Roles{ GOV, VALIDATOR, COMPANY, PROJECT }\n    //enum ApplicationStatus{}\n    //list of addresses requesting verification\n    //Should be poped out once they are analysed\n    // address[] private addressesRequestingVerifierRole;\n    mapping(address => bool) private addressesRequestingVerifierRole;\n    address owner;\n\n\n    struct KYC_Company {\n        string registrationID;\n        uint256 tco2Emission;\n        uint256 gntTokenBalance;\n        string document_uri;\n        bool appliedForVerification;\n    }\n\n    \n    struct KYC_Project {\n        string registrationID;\n        uint256 tco2Reduction;\n        uint256 gntTokenBalance;\n        string document_uri;\n        bool appliedForVerification;\n    }\n    //mappings\n\n    mapping(address => KYC_Company) private addressesRequestingCompanyVerification;\n    mapping(address => KYC_Project) private addressesRequestingProjectVerification;\n    mapping(address => KYC_Company) public verifiedCompanies;\n    mapping(address => KYC_Project) public verifiedProjects;\n\n\n    //arrays (fifo) keeps the list of addresses requesting specific roles\n    address[] public verifier_request_address;\n    address[] public company_request_address;\n    address[] public project_request_address;\n\n    //Events\n    //V,C,P are FIFO type array\n    // event VERIFIER_REQUEST(address);\n    // event COMPANY_REQUEST();\n    // event PROJECT_REQUEST();\n    // event COMPANY_DETAIL();\n    // event PROJECT_DETAIL();\n    // event VERIFIER_DETAIL();\n    event STATUS(bool, address);\n\n    IERC20 public tokenContract;\n\n    //--need to add mint amount in the constructor for initial tokens qty to mint\n    constructor(uint256 tokenQty) ERC20(\"GreenToken\", \"GNT\")  {\n        //assign all initial roles to contract creator\n        _grantRole(DEFAULT_ADMIN_ROLE, msg.sender);\n        _grantRole(VERIFIER_ROLE, msg.sender);\n        _grantRole(GOVERNER_ROLE, msg.sender);\n        _grantRole(COMPANY_ROLE, msg.sender);\n        _grantRole(PROJECT_ROLE, msg.sender);\n\n        _setRoleAdmin(PROJECT_ROLE,VERIFIER_ROLE);\n        _setRoleAdmin(COMPANY_ROLE,VERIFIER_ROLE);\n        _setRoleAdmin(VERIFIER_ROLE,GOVERNER_ROLE);\n        _setRoleAdmin(GOVERNER_ROLE,DEFAULT_ADMIN_ROLE);\n\n        //mint init token\n        // uint256 totalSupply = 10000 * (10 ** uint256(decimals));\n        // _mint(msg.sender, 10000 * (10 **uint256(decimals)));\n        _mint(address(this), tokenQty * (10 **18));\n        // uint256 totalSupply = 10000 * (10 ** uint256(decimals));\n         owner = msg.sender;\n         tokenContract = IERC20(address(this));\n        \n    }\n    //frontend request 1st address in the list of verifier\n\n\n    function getVerifierRequests() public view onlyRole(getRoleAdmin(VERIFIER_ROLE))  returns(address[] memory){\n        return verifier_request_address;\n    }\n    function getCompanyRequests() public view onlyRole(getRoleAdmin(COMPANY_ROLE))  returns(address[] memory){\n        return company_request_address;\n    }\n    function getProjectRequests() public view onlyRole(getRoleAdmin(PROJECT_ROLE))  returns(address[] memory){\n        return project_request_address;\n    }\n\n    //request verifier role\n    function requestVerifierRole() public{\n        addressesRequestingVerifierRole[msg.sender]=true;\n        verifier_request_address.push(msg.sender);\n    }\n\n    //grant verifier  role\n    function grantVerifierRole(address applicantAddress) public onlyRole(getRoleAdmin(VERIFIER_ROLE)){\n        require(addressesRequestingVerifierRole[applicantAddress],\"Account did not request verification\"); //--added this line to prevent non request address.\n        addressesRequestingVerifierRole[applicantAddress] =false;\n        _grantRole(VERIFIER_ROLE,applicantAddress);\n        delete addressesRequestingVerifierRole[applicantAddress];\n        verifier_request_address.pop();\n        // emit STATUS(true, applicantAddress);\n    }\n\n    //Reject verifier application\n    function rejectVerifierApplication(address applicantAddress) public onlyRole(getRoleAdmin(VERIFIER_ROLE)){\n        require(addressesRequestingVerifierRole[applicantAddress],\"Account did not request verification\"); //--added this line to prevent non request address.      \n        delete addressesRequestingVerifierRole[applicantAddress];\n        verifier_request_address.pop();\n        // emit STATUS(false, applicantAddress);\n    }\n\n\n    //Company request to review their CO2 emission\n    //change memory to calldata?\n    function requestCompanyVerification( string calldata _registrationID, uint256 _tco2Emission, uint256 _gntTokenBalance, string calldata _document_uri) public{\n        //save in addressesRequestingCompanyVerification\n        addressesRequestingCompanyVerification[msg.sender]= KYC_Company(_registrationID, _tco2Emission, _gntTokenBalance, _document_uri, true);\n        company_request_address.push(msg.sender);\n    }\n                \n    //Accept company request\n\n    function companyApplicationVerified(address _companyAddress) public onlyRole(getRoleAdmin(COMPANY_ROLE)){\n        //--added this line to prevent non request address.\n        require(addressesRequestingCompanyVerification[_companyAddress].appliedForVerification,\"Account did not request company verification\");\n        addressesRequestingCompanyVerification[_companyAddress].appliedForVerification = false;\n        _grantRole(COMPANY_ROLE,_companyAddress);\n        //add to verified company list\n        verifiedCompanies[_companyAddress] = addressesRequestingCompanyVerification[_companyAddress];\n        //verify if it is a copy or just referncing otherwise after delete phase, the data will be removed from verified compan yas ell\n        delete addressesRequestingCompanyVerification[_companyAddress];\n        company_request_address.pop();\n        //emit event to be done\n        emit STATUS(true, _companyAddress);\n    }\n\n    //Reject company request\n    function companyApplicationRejected(address _companyAddress) public onlyRole(getRoleAdmin(COMPANY_ROLE)){\n        require(addressesRequestingCompanyVerification[_companyAddress].appliedForVerification,\"Account did not request company verification\");\n        delete addressesRequestingCompanyVerification[_companyAddress];\n        company_request_address.pop();\n            //emit event to be done\n        emit STATUS(false, _companyAddress);\n\n    }\n\n\n    //Project request to review their CO2 offset\n\n     function requestProjectVerification ( string calldata _registrationID, uint256 _tco2Reduction, uint256 _gntTokenBalance, string calldata _document_uri) public{\n        //save in addressesRequestingProjectVerification\n        addressesRequestingProjectVerification[msg.sender]= KYC_Project(_registrationID, _tco2Reduction, _gntTokenBalance, _document_uri, true);\n        project_request_address.push(msg.sender);\n    }\n    \n    //Accept project requet\n    function projectApplicationVerified(address _projectAddress) public onlyRole(getRoleAdmin(PROJECT_ROLE)){\n\n        require(addressesRequestingProjectVerification[_projectAddress].appliedForVerification,\"Account did not request project verification\");\n        addressesRequestingProjectVerification[_projectAddress].appliedForVerification = false;\n        _grantRole(PROJECT_ROLE,_projectAddress);\n        //add to verified project list\n        verifiedProjects[_projectAddress] = addressesRequestingProjectVerification[_projectAddress];\n        //verify if it is a copy or just referncing otherwise after delete phase, the data will be removed from verified compan yas ell\n        delete addressesRequestingProjectVerification[_projectAddress];\n        project_request_address.pop();\n\n        //mint equivalent tokens\n        // mint(_projectAddress, (verifiedProjects[_projectAddress].tco2Reduction).mul(Rate));\n        //Should be transfer token instead of mint\n        // (payable address(this)).transfer(_projectAddress, (verifiedProjects[_projectAddress].tco2Reduction).mul(Rate));\n        // IERC20 tokenContract = IERC20(_tokenAddress);\n\n        tokenContract.transfer(_projectAddress, ((verifiedProjects[_projectAddress].tco2Reduction).mul(tco2_multiplier* (10 **18))));\n        //emit event to be done\n        emit STATUS(true, _projectAddress);\n\n    }\n\n    //Reject proejct request\n    function projectApplicationRejected(address _projectAddress) public onlyRole(getRoleAdmin(PROJECT_ROLE)){\n        require(addressesRequestingProjectVerification[_projectAddress].appliedForVerification,\"Account did not request project verification\");\n        delete addressesRequestingProjectVerification[_projectAddress];\n        project_request_address.pop();\n            //emit event to be done\n        emit STATUS(false, _projectAddress);\n    }\n\n\n\n    function pause() public onlyRole(GOVERNER_ROLE) {\n        _pause();\n    }\n\n    function unpause() public onlyRole(GOVERNER_ROLE) {\n        _unpause();\n    }\n\n\n    /*\n    ERC20 methods\n    */\n\n    // Mint function is private since, it will be called by another func\n    function mint(address to, uint256 amount) public onlyRole(GOVERNER_ROLE) {\n        // Pop out the specific address\n        \n        // require(hasRole(PROJECT_ROLE,to), \"address is not a verified project\");\n        _mint(to, amount*(10**18));\n        //Emit event (to be done)\n    }\n\n\n    /*Function for buying token by sending equivalent ether to contract\n        Buying token by company means:\n        1. Company request to buy XX GNT \n        2. Check if sufficient GNT/ETH in the account\n        3. Payable Eth receive, and then send equivalent token to the account\n        4. Emit event \n        5. Issue NFT for the transaction\n        \n        \n\n        Function to sell token to contract\n        1. Check sufficient balance in contract account\n        2. Rate decided by the contract\n        3. Add the asked token to the pool, and pay to the requesting amount in ETH equivalent\n        4. Emit event\n        5. Issue NFT for the transaction\n    */\n\n    //Implementation\n    //removed addressparam \n    function buyToken() public payable { //onlyRole(COMPANY_ROLE)\n        // verifiedCompanies[msg.sender].gntTokenBalance.add(msg.value);\n        // approve(address(this),msg.value);\n        require(hasRole(COMPANY_ROLE,msg.sender) || hasRole(PROJECT_ROLE, msg.sender), \"Not allowed\");\n        //IERC20 tokenContract = IERC20(_tokenAddress);\n        // transferFrom(owner,msg.sender,msg.value*(10**18)); //to transfer in max token unit\n        tokenContract.transfer(msg.sender, msg.value*Rate);\n        // address(this).send()\n        emit STATUS(true, msg.sender);\n\n    }\n\n    function sellToken(  uint256 token) public{ //address _tokenAddress\n        // require(hasRole(COMPANY_ROLE,msg.sender) || hasRole(PROJECT_ROLE, msg.sender), \"Not allowed\");\n        // IERC20 tokenContract = IERC20(_tokenAddress);\n        //address(this) take this-> msg sender i guess\n        payable(msg.sender).transfer( token*(10**18)/Rate);\n        transfer(address(this), token*(10**18));\n        emit STATUS(true, msg.sender);\n    }\n\n\n\n\n\n    function _beforeTokenTransfer(address from, address to, uint256 amount)\n        internal\n        whenNotPaused\n        override\n    {\n        super._beforeTokenTransfer(from, to, amount);\n    }\n}\n",
  "sourcePath": "/home/trowk/CCT_NetZero/contracts/GreenToken.sol",
  "compiler": {
    "name": "solc",
    "version": "0.8.3+commit.8d00100c.Emscripten.clang"
  },
  "schemaVersion": "3.4.6",
  "updatedAt": "2022-04-21T14:56:20.866Z",
  "networkType": "ethereum",
  "devdoc": {
    "kind": "dev",
    "methods": {
      "allowance(address,address)": {
        "details": "See {IERC20-allowance}."
      },
      "approve(address,uint256)": {
        "details": "See {IERC20-approve}. NOTE: If `amount` is the maximum `uint256`, the allowance is not updated on `transferFrom`. This is semantically equivalent to an infinite approval. Requirements: - `spender` cannot be the zero address."
      },
      "balanceOf(address)": {
        "details": "See {IERC20-balanceOf}."
      },
      "burn(uint256)": {
        "details": "Destroys `amount` tokens from the caller. See {ERC20-_burn}."
      },
      "burnFrom(address,uint256)": {
        "details": "Destroys `amount` tokens from `account`, deducting from the caller's allowance. See {ERC20-_burn} and {ERC20-allowance}. Requirements: - the caller must have allowance for ``accounts``'s tokens of at least `amount`."
      },
      "decimals()": {
        "details": "Returns the number of decimals used to get its user representation. For example, if `decimals` equals `2`, a balance of `505` tokens should be displayed to a user as `5.05` (`505 / 10 ** 2`). Tokens usually opt for a value of 18, imitating the relationship between Ether and Wei. This is the value {ERC20} uses, unless this function is overridden; NOTE: This information is only used for _display_ purposes: it in no way affects any of the arithmetic of the contract, including {IERC20-balanceOf} and {IERC20-transfer}."
      },
      "decreaseAllowance(address,uint256)": {
        "details": "Atomically decreases the allowance granted to `spender` by the caller. This is an alternative to {approve} that can be used as a mitigation for problems described in {IERC20-approve}. Emits an {Approval} event indicating the updated allowance. Requirements: - `spender` cannot be the zero address. - `spender` must have allowance for the caller of at least `subtractedValue`."
      },
      "getRoleAdmin(bytes32)": {
        "details": "Returns the admin role that controls `role`. See {grantRole} and {revokeRole}. To change a role's admin, use {_setRoleAdmin}."
      },
      "grantRole(bytes32,address)": {
        "details": "Grants `role` to `account`. If `account` had not been already granted `role`, emits a {RoleGranted} event. Requirements: - the caller must have ``role``'s admin role."
      },
      "hasRole(bytes32,address)": {
        "details": "Returns `true` if `account` has been granted `role`."
      },
      "increaseAllowance(address,uint256)": {
        "details": "Atomically increases the allowance granted to `spender` by the caller. This is an alternative to {approve} that can be used as a mitigation for problems described in {IERC20-approve}. Emits an {Approval} event indicating the updated allowance. Requirements: - `spender` cannot be the zero address."
      },
      "name()": {
        "details": "Returns the name of the token."
      },
      "paused()": {
        "details": "Returns true if the contract is paused, and false otherwise."
      },
      "renounceRole(bytes32,address)": {
        "details": "Revokes `role` from the calling account. Roles are often managed via {grantRole} and {revokeRole}: this function's purpose is to provide a mechanism for accounts to lose their privileges if they are compromised (such as when a trusted device is misplaced). If the calling account had been revoked `role`, emits a {RoleRevoked} event. Requirements: - the caller must be `account`."
      },
      "revokeRole(bytes32,address)": {
        "details": "Revokes `role` from `account`. If `account` had been granted `role`, emits a {RoleRevoked} event. Requirements: - the caller must have ``role``'s admin role."
      },
      "supportsInterface(bytes4)": {
        "details": "See {IERC165-supportsInterface}."
      },
      "symbol()": {
        "details": "Returns the symbol of the token, usually a shorter version of the name."
      },
      "totalSupply()": {
        "details": "See {IERC20-totalSupply}."
      },
      "transfer(address,uint256)": {
        "details": "See {IERC20-transfer}. Requirements: - `to` cannot be the zero address. - the caller must have a balance of at least `amount`."
      },
      "transferFrom(address,address,uint256)": {
        "details": "See {IERC20-transferFrom}. Emits an {Approval} event indicating the updated allowance. This is not required by the EIP. See the note at the beginning of {ERC20}. NOTE: Does not update the allowance if the current allowance is the maximum `uint256`. Requirements: - `from` and `to` cannot be the zero address. - `from` must have a balance of at least `amount`. - the caller must have allowance for ``from``'s tokens of at least `amount`."
      }
    },
    "version": 1
  },
  "userdoc": {
    "kind": "user",
    "methods": {},
    "version": 1
  }
}